:100000000C9434000C9451000C9451000C94510049
:100010000C9451000C9451000C9451000C9451001C
:100020000C9451000C9451000C9451000C9451000C
:100030000C9451000C9451000C9451000C945100FC
:100040000C9451000C9451000C9451000C945100EC
:100050000C9451000C9451000C9451000C945100DC
:100060000C9451000C94510011241FBECFEFD8E026
:10007000DEBFCDBF14E0A0E0B1E0E6E5F2E302C0F0
:1000800005900D92A633B107D9F714E0A6E3B4E0CA
:1000900001C01D92A137B107E1F70E94FB0D0C943E
:1000A00029190C94000087B1807F87B9599A589814
:1000B00023E05E9A822F8A95F1F786B15E98922F9F
:1000C0009A95F1F75E9A922F9A95F1F75E98922F92
:1000D0009A95F1F783FDEDCF5998589A87B18F60C3
:1000E00087B908950F931F93082F162F0E9453006E
:1000F000112359F45898003811F0013061F481E06F
:10010000809355028093560206C0589A80915502FA
:100110008F5F80935502599898B1802F82958F7088
:10012000892B88B95E9A93EA892F8A95F1F75E98B0
:1001300088B1807F88B988B10F70802B88B95E9AAA
:100140009A95F1F75E9888B1807F88B91F910F91D9
:10015000089561E00E947200089561E00E947200BB
:100160000895682F88EE93E025EF30E0F90131978C
:10017000F1F70197D9F787B18F6087B988B1807F90
:1001800088B9509A519A8AB183648AB95E9859980D
:10019000589888B1836088B95E9A93EA892F8A95C6
:1001A000F1F75E9888B1807F88B940E050E6FA01A7
:1001B0003197F1F788B1836088B95E9A892F8A9563
:1001C000F1F75E9888B1807F88B929E939E0F901B3
:1001D0003197F1F788B1836088B95E9A892F8A9543
:1001E000F1F75E9888B1807F88B9F9013197F1F70E
:1001F000419A5E9A892F8A95F1F75E9888B1807F3F
:1002000088B9F9013197F1F7419A5E9A892F8A9559
:10021000F1F75E9888B1807F88B9F9013197F1F7DD
:10022000439A5E9A892F8A95F1F75E9888B1807F0C
:1002300088B9F9013197F1F7409A5E9A892F8A952A
:10024000F1F75E9888B1807F88B9E0E0F0E33197FC
:10025000F1F788B1866088B95E9A892F8A95F1F79F
:100260005E9888B1807F88B9F9013197F1F788B13C
:100270008C6088B9F9013197F1F788B1807F88B92E
:100280005E9A892F8A95F1F75E98419A5E9A9A95BF
:10029000F1F75E9888B1807F88B9CA010197F1F7BC
:1002A000862F8C6060E00E94720081E060E00E9416
:1002B000720080E860E00E94720008950F931F931F
:1002C000182F062F0E945300812F81508E3F08F077
:1002D00011E01093550200935602023051F00230A3
:1002E00030F0043051F0043030F00F3F39F4115049
:1002F00005C0115C03C01D5E01C01D5A812F8068BE
:1003000060E00E9472001F910F9108958091550244
:1003100061E00E945E0185EA61E00E9472008091C6
:100320005502815062E00E945E0185EA61E00E9410
:10033000720008950F931F93CF93DF93EC0111E0A8
:1003400001E023C01531E0F0013031F481E062E0DA
:100350000E945E0102E00FC0023031F481E063E0F0
:100360000E945E0103E007C0033029F481E064E0ED
:100370000E945E0104E08881803209F4219611E038
:10038000899161E00E9472001F5F88811816D4F283
:10039000DF91CF911F910F9108958F929F92AF920D
:1003A000BF92CF92DF92EF92FF920F931F93DF9352
:1003B000CF93CDB7DEB72C970FB6F894DEBF0FBE44
:1003C000CDBF4B015C01142F00E061157105810563
:1003D000910509F401E0C501B4010BC00F5F2AE0EB
:1003E00030E040E050E00E940D16C901DA01BC0186
:1003F000CD01611571058105910581F7402FB7FC8D
:1004000004C075016401BB240AC0CC24DD2476013C
:10041000C818D908EA08FB080F5FBB24B394FE0193
:1004200031968AE0DF011D928A95E9F7141B412F6E
:1004300017FD40E0102F140F20C01A3088F4FE0181
:10044000E10FF11DFC87EB87C701B6012AE030E020
:1004500040E050E00E940D16605DAB85BC856C935A
:10046000C701B6012AE030E040E050E00E940D16DE
:10047000C901DA016C017D0111501123F1F6BB2095
:1004800011F08DE28983CE0101960E949A012C968B
:100490000FB6F894DEBF0FBECDBFCF91DF911F9195
:1004A0000F91FF90EF90DF90CF90BF90AF909F9013
:1004B0008F9008956F927F928F929F92AF92BF928A
:1004C000CF92DF92EF92FF920F931F937B018C01EB
:1004D000642E822E222319F48824839405C087E099
:1004E000821710F487E0882E982C0F2EF0E0AF2EA4
:1004F000F0E0BF2EF0E0CF2EFFE3DF2EF02DC6019F
:10050000B50120E030E040E251E40E94D5115B01EA
:100510006C019A94A1F7C801B70120E030E040E0F7
:1005200050E00E94B11287FD02C0772406C017FB7D
:10053000109517F9109577247394C801B701A60197
:1005400095010E94AE107B018C010E943F135B015C
:100550006C010E94E1129B01AC01C801B7010E942D
:100560007D107B018C01982CC801B70120E030E0A0
:1005700040E251E40E94DB107B018C019A94A1F7C8
:10058000772089F0D094C094B094A094A11CB11CA1
:10059000C11CD11CA114B104C104D10421F480E018
:1005A00091E00E949A01C601B501462D0E94CD013D
:1005B00082E091E00E949A01C801B7010E943F13B6
:1005C000482D0E94CD011F910F91FF90EF90DF9079
:1005D000CF90BF90AF909F908F907F906F90089535
:1005E0005E9A83EA8A95F1F75E980895BF92CF925A
:1005F000DF92EF92FF920F931F93CF93DF93B82E6A
:10060000FB01D901E7014115510531F4011511052F
:1006100019F490E080E054C084EA8093BC0080919B
:10062000BC0087FFFCCF9091B900987F983009F00B
:100630009FC08B2D8E7F8093BB0084E88093BC008D
:100640008091BC0087FFFCCF9091B900987F9831D2
:10065000B1F0903209F08CC088C080818093BB00DB
:100660002093BC008091BC0087FFFCCF9091B90023
:10067000987F415050409832C9F4319601C024E827
:100680004115510551F716C08C918093BB00209302
:10069000BC008091BC0087FFFCCF9091B900987F8F
:1006A00001501040983211F4119605C0903309F0B2
:1006B0005FC05BC024E80115110531F791E081E0CE
:1006C000C114D10409F44EC0882311F428E001C0FC
:1006D00020E184EA8093BC008091BC0087FFFCCFBE
:1006E0009091B900987F921709F042C081E0B82A32
:1006F000B092BB0084E88093BC008091BC0087FF6F
:10070000FCCF9091B900987F903419F0983481F51E
:100710002CC00894C108D10824EC11C02093BC005F
:100720008091BC0087FFFCCF9091B900987F08941E
:10073000C108D1089035E1F48091BB008993C114C0
:10074000D10461F784E88093BC008091BC0087FFEE
:10075000FCCF9091B900987F983551F48091BB00FF
:10076000888302C0992321F090E084E98093BC0043
:10077000892FDF91CF911F910F91FF90EF90DF9024
:10078000CF90BF9008951092B9008093B80008955B
:10079000CF92DF92EF92FF920F931F93DF93CF934D
:1007A0000F92CDB7DEB71982009711F481E003C034
:1007B000019711F482E0898380EE60E070E040E010
:1007C00050E09E012F5F3F4F01E010E0EE24FF2438
:1007D000CC24DD240E94F6020F90CF91DF911F916F
:1007E0000F91FF90EF90DF90CF9008952F923F925E
:1007F0004F925F926F927F928F929F92AF92BF9231
:10080000CF92DF92EF92FF920F931F93DF93CF93DC
:1008100000D00F92CDB7DEB7AA24BB2453E0452EFB
:10082000512C4C0E5D1E4E010894811C911C42E01F
:10083000642E712C6C0E7D1E33E1232E21EA322EA4
:10084000C5010E94C80382EB898382E560E070E005
:1008500040E050E0940101E010E0720191E0C92E07
:10086000D12C0E94F6028B818035C1F481E08A830D
:1008700080EA898382E5B40141E050E09301EE24EF
:10088000FF24CC24DD240E94F6022A82398282E5EC
:10089000B40141E050E093010E94F6020894A11CCB
:1008A000B11C82E0A816B10459F60F900F900F907A
:1008B000CF91DF911F910F91FF90EF90DF90CF903C
:1008C000BF90AF909F908F907F906F905F904F9070
:1008D0003F902F9008956F927F928F929F92AF9248
:1008E000BF92CF92DF92EF92FF920F931F93DF930D
:1008F000CF93CDB7DEB727970FB6F894DEBF0FBE04
:10090000CDBF0E94C80383E08A8380EA898382E5A1
:100910004E010894811C911CB40141E050E09E01FD
:100920002E5F3F4F01E010E0EE24FF24CC24DD24B5
:100930000E94F60283EB898323E0A22EB12CAC0E39
:10094000BD1E82E5B40141E050E020E030E000E06F
:1009500010E0750191E0C92ED12C0E94F602B3EB94
:100960006B2E7A2CAB2C10C0698282E5B40141E079
:1009700050E020E030E000E010E0E72CFA2CA1E0AD
:10098000CA2ED12C0E94F6028B8180FFEDCF84EB22
:10099000898382E560E070E040E050E0940101E08E
:1009A00010E0F4E0EF2EF12CEC0EFD1EE4E0CE2E74
:1009B000D12C0E94F6029D8180E0AC80BB24A82A45
:1009C000B92A9F8180E02E8130E0822B932BA81AD8
:1009D000B90A80EA898381E08A8382E5B40141E033
:1009E00050E09E012E5F3F4FEE24FF24CC24DD24F7
:1009F0000E94F602C50127960FB6F894DEBF0FBE1F
:100A0000CDBFCF91DF911F910F91FF90EF90DF90BD
:100A1000CF90BF90AF909F908F907F906F900895F0
:100A20009B01281B390B48EF203334071CF0215D54
:100A3000374064F08617970718F421E030E008C0CB
:100A40006817790718F42FEF3FEF02C020E030E07D
:100A5000C9010895529820980895882341F4529A24
:100A60005A9880E090EC0197F1F75A9A08958130F6
:100A700039F4209A289880E090EC0197F1F7289AB1
:100A80000895882341F452984A99FECF4A9BFECF9D
:100A90004A99FECF0895813039F420981899FECFF5
:100AA000189BFECF1899FECF08958823A9F4809152
:100AB000360420E032E64A9BFECF932F9A95F1F759
:100AC0004A9B03C0880F816001C0880F4A99FECFFE
:100AD0002F5F283081F716C08130B1F48091360441
:100AE00020E032E6189BFECF932F9A95F1F7189BE2
:100AF00003C0880F816001C0880F1899FECF2F5F57
:100B0000283081F780933604809136040895EF925F
:100B1000FF920F931F93CF93DF93182F0E942D0501
:100B2000812F0E944105812F0E9455058093680402
:100B3000812F0E94550580936404812F0E945505E2
:100B400080936704812F0E94550580936C04812F48
:100B50000E945505809365046091670420916C04A0
:100B6000C22FD0E0409164042091680430E0240F4B
:100B7000311D260F311D2C0F3D1F90E0281739071E
:100B800051F081E061E00E945E0184E091E00E940A
:100B90009A0180E029C070E080E090E00E94931309
:100BA0007B018C01BE01882777FD8095982F0E94DC
:100BB000E1122DEC3CEC4CEC5DE30E94DB109B0160
:100BC000AC01C801B7010E94AE1026E636E646EE3B
:100BD0005FE30E94DB1020E030E040E052E40E943E
:100BE000AE100E94050F862FDF91CF911F910F91BC
:100BF000FF90EF900895992787FD909535E09695A1
:100C000087953A95E1F781700895282F22952F70E6
:100C10009AE0299F900111248F70820F0895482F28
:100C20006AE00E940116282F30E054E0220F331FA3
:100C30005A95E1F7842F0E940116892F820F08959B
:100C4000CF92DF92EF92FF920F931F93DF93CF9398
:100C500000D000D0CDB7DEB78C8380EDBE016C5FD5
:100C60007F4F41E050E020E030E000E010E0EE2473
:100C7000FF24CC24DD240E94F60281ED60E070E0C8
:100C800040E050E020E030E07E010894E11CF11CDF
:100C9000E3E0CE2ED12C0E94F60289818093460497
:100CA0008A81809349048B81809363040F900F9015
:100CB0000F900F90CF91DF911F910F91FF90EF90C8
:100CC000DF90CF900895CF92DF92EF92FF920F9333
:100CD0001F93DF93CF9300D000D0CDB7DEB7082F9E
:100CE000162F842F19820E940F068A83812F0E945B
:100CF0000F068B83802F0E940F068C8380EDBE0130
:100D00006F5F7F4F44E050E020E030E000E010E013
:100D1000EE24FF24CC24DD240E94F6020F900F90D5
:100D20000F900F90CF91DF911F910F91FF90EF9057
:100D3000DF90CF900895279A2F9808952F9A0895BD
:100D40002F9808955498089529B130E0F4E036952D
:100D50002795FA95E1F721703070C9010895559AE9
:100D600084B5836284BD84B58F7E84BD85B588607B
:100D700085BD85B5846085BD85B58D7F85BD85B50F
:100D80008E7F85BD89EF87BD80E888BD0895539A21
:100D9000E0EBF0E0808183608083808180628083EB
:100DA00089EF8093B30080E88093B400E1EBF0E03A
:100DB00080818460808380818260808380818E7F57
:100DC00080830895813079F429E145EF50E028BD12
:100DD00088EE93E0FA013197F1F70197D9F72F5F89
:100DE0002E37A9F708952DE745EF50E028BD88EE8E
:100DF00093E0FA013197F1F70197D9F721502831A3
:100E0000A9F70895813081F429E145EF50E020935E
:100E1000B40088EE93E0FA013197F1F70197D9F722
:100E20002F5F2E37A1F708952DE745EF50E020936F
:100E3000B40088EE93E0FA013197F1F70197D9F702
:100E400021502831A1F70895249A2C9808952C9ABE
:100E500008952C98089589B1881F8827881F0895C0
:100E600083B190E0969587958170089583B190E065
:100E70009695879596958795817008951F93182F5D
:100E800080916C0290916D020E949A0181E0612F25
:100E90000E945E011F9108959091440440914C047A
:100EA0004C9B0FC08CE3989FC0011124840F911DAF
:100EB0009093700480936F041092400410923F044A
:100EC00008952CE3929F90011124240F311D8091ED
:100ED0006F0490917004821B930B90934004809355
:100EE0003F0408951A9904C04F9902C0199B13C07A
:100EF000809144042CE3829FC001112420914C0472
:100F0000820F911D90936B0480936A0410923C04AD
:100F100010923B040895209144048CE3289F900193
:100F2000112480914C04280F311D80916A04909106
:100F30006B04821B930B90933C0480933B040895B5
:100F40009CE3899F90011124260F311DC90108954A
:100F5000EF920F933E2D9CE3899FF0011124E60F41
:100F6000F11D299FC0011124800F911D403511F4FE
:100F7000E053FD4F303511F480539D4F8E179F077E
:100F800018F421E030E008C0E817F90718F020E075
:100F900030E002C02FEF3FEFC9010F91EF900895AD
:100FA0009F92AF92BF92CF92DF92EF92FF920F93F8
:100FB0001F93CF93DF9380E090E00E946B048C013D
:100FC00081E090E00E946B04BC01C8010E94100502
:100FD0005C0181E00E948705982E80E00E948705D1
:100FE000C82E80E00E94200600916304802F8F713C
:100FF0000E940506F82E80934404809149040E94C3
:101000000506D82E80934C0406FF04C005FFBBC024
:1010100080E501C08FE5809343042FEFA2162FEFE8
:10102000B20679F48F2D6D2D4091430427E000E046
:1010300010E5E12E0E94A807019719F0C0E0D0E06A
:101040000CC020E080913F04909140044F9708F03D
:1010500021E081E02827C22FD0E0109143048F2D9A
:101060006D2D412F20913D0400914A04E0906D04C4
:101070000E94A8078F5F9F4F19F040E050E013C017
:101080008F2D6D2D412F20916E0400914104E09031
:101090004B040E94A80720E0019709F021E081E0BD
:1010A0002827422F50E039B18FE4891578F48C1548
:1010B00068F420E080913F04909140044F9708F03D
:1010C00021E081E02827E22FF0E002C0E0E0F0E03C
:1010D000452B69F02F9880E00E94020780E00E9473
:1010E000E2062C981092400410923F044EC06D2DE1
:1010F00070E034FF0FC08CE3F89EC0011124860F0E
:10110000971F9093700480936F0410924004109284
:101110003F0410C02CE3F29E90011124260F371FCC
:1011200080916F0490917004821B930B9093400404
:1011300080933F04EF2B19F02F9A80E00DC02F9879
:10114000C91460F480913F04909140044F9730F4AB
:1011500020E42C1518F481E00E940207CD2B19F031
:101160002C9A80E00DC02C988FEFA8168FEFB80650
:1011700061F480913F04909140044F9730F481E0F6
:101180000E94E20602C081E446CFDF91CF911F9119
:101190000F91FF90EF90DF90CF90BF90AF909F9016
:1011A00008950F931F93CF93DF9385E080933D04C1
:1011B00010924A0481E480936D048AE080936E0467
:1011C0001092410490E590934B0483E0809369046E
:1011D000109266049093480480E090E00E946B04B3
:1011E0008C0181E090E00E946B04BC01C8010E9468
:1011F0001005EC0181E061E00E945E01C130D10583
:1012000031F48AE091E00E949A012F9A0BC0CF5FDF
:10121000DF4F19F48FE191E002C084E391E00E9476
:101220009A012F9881E062E00E945E0181E00E94B5
:10123000870500D000D000D0EDB7FEB731960FE49F
:1012400014E0ADB7BEB712961C930E93119729E424
:1012500031E033832283848315820E9488168DB700
:101260009EB706960FB6F8949EBF0FBE8DBFC801FD
:101270000E949A0181E063E00E945E0180E00E948A
:10128000870500D000D000D0EDB7FEB73196ADB7DE
:10129000BEB712961C930E93119720E631E033836C
:1012A0002283848315820E9488168DB79EB7069686
:1012B0000FB6F8949EBF0FBE8DBFC8010E949A0161
:1012C00081E064E00E945E014C9B03C087E791E0EF
:1012D00002C08CE891E00E949A01DF91CF911F91AA
:1012E0000F910895AF92BF92CF92DF92EF92FF924B
:1012F0000F931F93CF93DF9381E060E00E94720011
:1013000081E00E94870500D000D000D0EDB7FEB785
:1013100031960FE414E0ADB7BEB712961C930E934E
:10132000119721EA31E033832283848315820E945E
:1013300088168DB79EB706960FB6F8949EBF0FBE5F
:101340008DBF80E860E00E947200C8010E949A018F
:1013500081E062E00E945E0100D000D000D0EDB7D5
:10136000FEB73196ADB7BEB712961C930E93119788
:1013700093EBE92E91E0F92EF382E282809147040B
:10138000848315820E9488168DB79EB706960FB685
:10139000F8949EBF0FBE8DBFC8010E949A0181E0E4
:1013A00063E00E945E0187EC91E00E949A0185EF64
:1013B000C82ED12CB02E012FAE2CEF2CC2E0D0E0E5
:1013C0001C2F81E06C2F0E945E018CED91E00E9449
:1013D0009A01C230D105A9F480ED97E0F60131976A
:1013E000F1F70197D9F71A9B09C081E0612F0E949C
:1013F0005E018EED91E00E949A0117C0199969C0B3
:10140000DFCF80ED97E0F6013197F1F70197D9F73B
:101410004F9B09C081E063E00E945E018EED91E088
:101420000E949A01CBCF199903C0C3E0D0E0C8CF86
:1014300081E0612F0E945E018EED91E00E949A0191
:10144000DF91CF911F910F91FF90EF90DF90CF90A0
:10145000BF90AF900895F6013197F1F70197D9F752
:1014600000D000D000D0EDB7FEB73196ADB7BEB713
:101470001196BC92119712960C93A282E3828091EE
:101480004704848315820E9488168DB79EB70696FE
:101490000FB6F8949EBF0FBE8DBF81E062E00E9440
:1014A0005E018B2D902F0E949A0180E162E00E94E4
:1014B0005E014F9B04C0809147048F5F05C01A9B5B
:1014C00006C08091470481508093470402C0199957
:1014D00075CF80ED97E0BFCF2F923F924F925F92F2
:1014E0006F927F928F929F92AF92BF92CF92DF9234
:1014F000EF92FF920F931F93DF93CF9300D000D012
:101500000F92CDB7DEB71C012B013A0181E060E0FC
:101510000E947200D101AC90F201B080D3019C9086
:101520001092450410924D0410923E041092420411
:10153000EDB7FEB73A970FB6F894FEBF0FBEEDBFFA
:1015400031960FE414E0ADB7BEB712961C930E931C
:101550001197A0EECA2EA1E0DA2ED382C282D10169
:101560008C9184831582D2018C9186831782D3015A
:101570008C91992787FD9095918780870E94881686
:10158000EDB7FEB73A960FB6F894FEBF0FBEEDBFAB
:1015900080E860E00E947200C8010E949A0181E028
:1015A00062E00E945E018DB79EB70A970FB6F8946D
:1015B0009EBF0FBE8DBFEDB7FEB73196ADB7BEB7BC
:1015C00012961C930E9311977AEFE72E71E0F72E87
:1015D000F382E282A4821582B6821782892D99272E
:1015E00087FD9095918780870E948816EDB7FEB79A
:1015F0003A960FB6F894FEBF0FBEEDBFC8010E9429
:101600009A0181E063E00E945E0187EC91E00E9414
:101610009A0182E090E09D838C83802E012FC98205
:10162000DA8265EFC62ED12CEB82EF2CADB7BEB7B8
:101630001A970FB6F894BEBF0FBEADBFEDB7FEB799
:10164000319611968C92119712960C93B981B283B0
:101650008A818383D1018C9184831582D2018C91FC
:1016600086831782D3018C91992787FD9095918766
:1016700080870E948816EDB7FEB73A960FB6F894A9
:10168000FEBF0FBEEDBF80E860E00E947200882DB3
:10169000902F0E949A011C8181E0612F0E945E01BF
:1016A0008CED91E00E949A018C819D810297F1F46A
:1016B00080EA9FE0F6013197F1F70197D9F71A9B7D
:1016C0000DC081E062E00E945E018EED91E00E941B
:1016D0009A01A3E0B0E0BD83AC83E5C0199BE3C0F1
:1016E00081E08093420480934504DDC080ED97E063
:1016F000F6013197F1F70197D9F74F9B0DC081E0C3
:1017000063E00E945E018EED91E00E949A01E2E0AA
:10171000F0E0FD83EC83C7C0199905C083E090E039
:101720009D838C83C0C081E0612F0E945E018EED9D
:1017300091E00E949A0180ED97E025EF30E0F901F9
:101740003197F1F70197D9F7BAC080ED97E0F6012C
:101750003197F1F70197D9F7ADB7BEB71A970FB622
:10176000F894BEBF0FBEADBFEDB7FEB73196119670
:101770008C92119712960C93BB81B283E382A48260
:101780001582B6821782892D992787FD90959187BA
:1017900080870E948816EDB7FEB73A960FB6F89488
:1017A000FEBF0FBEEDBF81E062E00E945E01882DAA
:1017B000902F0E949A0181E162E00E945E014F9B9E
:1017C00021C080914504882339F0FBE3BF1611F452
:1017D000BB2469C0B39467C080914D04882341F055
:1017E0008CE0A81619F4AA24A3945DC0A3945BC04E
:1017F00080913E04882309F456C091E4991609F0BB
:1018000050C04CC01A9B1FC080914504882339F0FA
:10181000BB2019F45BE3B52E46C0BA9444C0809156
:101820004D04882341F0A1E0AA1619F44CE0A42E3F
:101830003AC0AA9438C080913E048823A1F1B1E453
:101840009B1679F52BC0199B2EC0809145048823E7
:1018500031F01092450481E080934D0424C08091C2
:101860004D04882351F08EE062E00E945E011092E8
:101870004D0481E080933E0416C080913E0488238D
:1018800091F082E161E00E945E0110923E041092AC
:101890004204E2E0F0E0FD83EC830AC030E5932EE1
:1018A00002C021E4922E80914204882309F04DCF9A
:1018B000D101AC92F201B082D3019C92B7CE0F90CD
:1018C0000F900F900F900F90CF91DF911F910F917C
:1018D000FF90EF90DF90CF90BF90AF909F908F9050
:1018E0007F906F905F904F903F902F9008958F92D0
:1018F0009F92AF92BF92CF92DF92EF92FF920F939F
:101900001F93DF93CF93CDB7DEB760970FB6F894F0
:10191000DEBF0FBECDBFDE011196EDE1F3E080E149
:1019200001900D928150E1F780913A0480934E042A
:101930006E010894C11CD11C4AE2842E42E0942E10
:1019400034E1A32E32E0B32E96C087E08F1508F461
:101950008DC091E0F916C1F4EE0FFF1FEC0DFD1DD7
:101960000081118181E00E94870500D000D000D065
:10197000EDB7FEB73196ADB7BEB712961C930E9376
:101980001197B382A2821AC092E0F91621F5EE0FE8
:10199000FF1FEC0DFD1D0081118180E00E94870575
:1019A00000D000D000D0EDB7FEB73196ADB7BEB7CE
:1019B00012961C930E9311979382828284831582D0
:1019C0000E9488168DB79EB706960FB6F8949EBFF4
:1019D0000FBE8DBF3AC093E0F916B9F580E090E0F4
:1019E0000E946B048C0181E090E00E946B04BC01BA
:1019F000C8010E9410058130910561F4E0914E0408
:101A0000F0E0EE0FFF1FEC0DFD1D808191816AE07B
:101A100071E019C0E0914E04AFEF8F3F9A0751F487
:101A2000F0E0EE0FFF1FEC0DFD1D808191816FE155
:101A300071E009C0F0E0EE0FFF1FEC0DFD1D80818D
:101A4000918160E472E00E948116F394FE1881E0B7
:101A50006F2D0E945E01E0914E04F0E0EE0FFF1F3B
:101A6000EC0DFD1D808191810E949A0180914E04B0
:101A70008F5F80934E04F0904E04EF2DF0E0E090E5
:101A80003A048E2D90E003968E179F070CF05DCFE1
:101A90001A9B17C0809137049091380487309105C4
:101AA00084F40196909338048093370480917302F4
:101AB000909174028430910514F4019618C0E39457
:101AC0001CC04F9B1DC08091370490913804823018
:101AD0009105B4F001979093380480933704809176
:101AE0007302909174028230910534F001979093C3
:101AF00074028093730261C0EA94E0923A045DC07C
:101B0000199B5BC0809137049091380490937202C6
:101B1000809371028130910509F44FC082309105A4
:101B200009F44BC08330910509F447C08430910516
:101B300051F580E00E94200600916304802F8F7190
:101B40000E94050680936904809149040E9405065D
:101B50008093660406FF04C005FF4BC080E501C00A
:101B60008FE58093480489E694E066E674E048E4F3
:101B700054E00E946C0A809169046091660440E020
:101B80000E9463061AC08530910519F40E947209FB
:101B900014C08630910539F48DE394E06AE474E072
:101BA0004DE654E008C0079741F48EE694E061E406
:101BB00074E04BE454E00E946C0A81E0609173028F
:101BC0000E945E018CED91E00E949A0160960FB632
:101BD000F894DEBF0FBECDBFCF91DF911F910F9163
:101BE000FF90EF90DF90CF90BF90AF909F908F903D
:101BF000089581E4B6CF0F931F931092B9008AE243
:101C00008093B8008CE060E040E00E9463060E9490
:101C1000F60354981092400410923F0410927004FE
:101C200010926F04529820980E94AF0680E00E94A4
:101C3000E2060E94C70680E00E940207279A2F98BA
:101C4000249A2C9880E00E94200610916304812F32
:101C50008F710E940506082F8093690480914904C2
:101C60000E940506982F8093660416FF04C015FF96
:101C700035C080E501C08FE58093480400936E0471
:101C8000909341048091480480934B0400933D0459
:101C900090934A0480936D048BE48093470480E022
:101CA0000E94B10081E060E00E94720080E860E084
:101CB0000E94720005EF10E080913B0490913C047B
:101CC000069710F40E94770C0E94D00780E197E2FB
:101CD000F8013197F1F70197D9F7EECF81E4CCCF36
:101CE0002F923F924F925F926F927F928F929F922C
:101CF000AF92BF92CF92DF92EF92FF920F931F931A
:101D0000CF93DF936C01DC010D900020E9F77D019A
:101D10000894E108F108E81AF90A81E060E00E94FD
:101D2000720084E161E00E945E0186018824839450
:101D300099249394E3E17E2E74E1472E512C4E0CAE
:101D40005F1C65EF262E312C6E2C41C0899161E01D
:101D50000E9472009E01201B2915C0F380ED97E0C0
:101D6000F1013197F1F70197D9F781E060E00E9426
:101D7000720033E1381548F0AE14BF0430F4872DFB
:101D800061E00E945E0193941FC0882D90E0A5E160
:101D9000EA16F10438F00196E816F90628F054E145
:101DA000952E03C044975CF09A948501035110402E
:101DB0000C0D1D1D81E061E00E945E0106C0962CA5
:101DC000872D61E00E945E01860183947A94A82C9D
:101DD000BB24A414B50410F4E801BCCF80E860E093
:101DE0000E947200DF91CF911F910F91FF90EF90B1
:101DF000DF90CF90BF90AF909F908F907F906F902B
:101E00005F904F903F902F900895EF92FF920F9325
:101E10001F937B018C0120E030E040E05FE40E94F2
:101E2000811288238CF0C801B70120E030E040E047
:101E30005FE40E947D100E943F139B01AC01205083
:101E400030404040504806C0C801B7010E943F13CF
:101E50009B01AC01B901CA011F910F91FF90EF9056
:101E60000895A0E0B0E0E7E3FFE00C944A16DC013F
:101E70002B01FA019C91923008F439C1EB01888161
:101E8000823008F433C1943069F4843009F02FC1F2
:101E900011969C9111978981981709F428C1ADE298
:101EA000B3E025C1843009F421C18230A9F4923015
:101EB00009F01DC19A01AD0188E0EA010990AE0167
:101EC000E90109929E018150C1F7E20189811196D1
:101ED0009C918923818308C1923009F407C112962D
:101EE0002D903C901397EB018A819B811496AD90C5
:101EF000BD90CD90DC901797EC80FD800E811F8106
:101F00009101281B390BB90137FF04C066277727D9
:101F1000621B730B603271050CF061C01216130660
:101F20006CF537014801062E04C096948794779487
:101F300067940A94D2F721E030E040E050E004C01A
:101F4000220F331F441F551F6A95D2F7215030408E
:101F5000404050402E213F2140235123211531057F
:101F60004105510521F021E030E040E050E07901E9
:101F70008A01E628F728082919293CC0232BD1F12A
:101F8000260E371E35014601062E04C0969487940E
:101F9000779467940A94D2F721E030E040E050E073
:101FA00004C0220F331F441F551F6A95D2F72150DA
:101FB0003040404050402A213B214C215D212115D9
:101FC00031054105510521F021E030E040E050E0CD
:101FD00059016A01A628B728C828D9280BC082153C
:101FE00093052CF01C01AA24BB24650103C0EE2438
:101FF000FF24870111969C91D20111968C9198171C
:1020000009F445C0992339F0A80197012A193B0921
:102010004C095D0906C0A60195012E193F09400B28
:10202000510B57FD08C011823382228224833583ED
:10203000468357831DC081E08183338222828827B3
:102040009927DC01821B930BA40BB50B848395832A
:10205000A683B7830DC0220F331F441F551F24834F
:10206000358346835783828193810197938382834B
:102070002481358146815781DA01C9010197A1097F
:10208000B1098F5F9F4FAF4FBF4328F30BC09183C0
:1020900033822282EA0CFB1C0C1D1D1DE482F5829A
:1020A0000683178383E080832481358146815781AD
:1020B00057FF1AC0C901AA2797FDA095BA2F8170B2
:1020C0009070A070B0705695479537952795822BE4
:1020D000932BA42BB52B84839583A683B78382810E
:1020E0009381019693838283DF0101C0D201CD01E8
:1020F000CDB7DEB7E2E10C946616A0E2B0E0E3E80B
:10210000F0E10C94561669837A838B839C832D832C
:102110003E834F835887E9E0EE2EF12CEC0EFD1E36
:10212000CE010196B7010E9430158E010F5E1F4F40
:10213000CE010596B8010E9430158A8991E0892761
:102140008A8BC701B801AE01475E5F4F0E94310F15
:102150000E945B14A096E6E00C947216A0E2B0E038
:10216000E4EBF0E10C94561669837A838B839C83AD
:102170002D833E834F835887F9E0EF2EF12CEC0E30
:10218000FD1ECE010196B7010E9430158E010F5E33
:102190001F4FCE010596B8010E943015C701B80146
:1021A000AE01475E5F4F0E94310F0E945B14A09604
:1021B000E6E00C947216A0E2B0E0E1EEF0E10C94DF
:1021C0004A1669837A838B839C832D833E834F8356
:1021D0005887CE010196BE01675F7F4F0E94301580
:1021E000CE010596BE016F5E7F4F0E943015998526
:1021F000923088F089898230C8F0943019F48230A6
:1022000051F404C0843029F4923081F48DE293E0DB
:10221000C6C0923049F420E09A858A89981321E05B
:102220002A87CE010996BBC0823049F420E09A8506
:102230008A89981321E02A8BCE014196B0C02D8463
:102240003E844F8458886D887E888F88988CEE24D1
:10225000FF248701AA24BB24650140E050E060E030
:1022600070E0E0E0F0E0C10181709070892BE9F04E
:10227000E60CF71C081D191D9A01AB012A0D3B1D28
:102280004C1D5D1D80E090E0A0E0B0E0E614F70496
:102290000805190520F481E090E0A0E0B0E0BA0163
:1022A000A901480F591F6A1F7B1FAA0CBB1CCC1C1D
:1022B000DD1C97FE08C081E090E0A0E0B0E0A82A15
:1022C000B92ACA2ADB2A3196E032F10549F0660CB8
:1022D000771C881C991C5694479437942794C3CF35
:1022E000FA85EA892B893C898B859C85280F391FC3
:1022F0002E5F3F4F17C0CA0181709070892B61F02B
:1023000016950795F794E79480E090E0A0E0B0E898
:10231000E82AF92A0A2B1B2B76956795579547953E
:102320002F5F3F4F77FDE7CF0CC0440F551F661F4F
:10233000771F17FD4160EE0CFF1C001F111F21507D
:102340003040403090E0590790E0690790E4790709
:1023500060F32B8F3C8FDB01CA018F779070A070E8
:10236000B07080349105A105B10561F447FD0AC044
:10237000E114F1040105110529F0405C5F4F6F4F36
:102380007F4F40781A8EFE1711F081E08A8F4D8FB3
:102390005E8F6F8F78A383E0898FCE0149960E946C
:1023A0005B14A096E2E10C946616A8E1B0E0EBEDB8
:1023B000F1E10C94521669837A838B839C832D837D
:1023C0003E834F835887B9E0EB2EF12CEC0EFD1EB7
:1023D000CE010196B7010E9430158E010F5E1F4F8E
:1023E000CE010596B8010E9430152985223008F4E7
:1023F0007EC03989323010F4B8017CC08A859A8950
:1024000089278A87243011F0223031F4231709F00C
:102410006EC06DE273E06EC0343039F41D861E86E6
:102420001F86188A1C861B8604C0323021F484E083
:102430008987B7015FC02B853C858B899C89281BC8
:10244000390B3C872B87ED84FE840F851889AD8876
:10245000BE88CF88D88CEA14FB040C051D0540F417
:10246000EE0CFF1C001F111F215030403C872B87B2
:1024700020E030E040E050E080E090E0A0E0B0E418
:1024800060E070E0EA14FB040C051D0540F0282B09
:10249000392B4A2B5B2BEA18FB080C091D09B69552
:1024A000A79597958795EE0CFF1C001F111F6F5F76
:1024B0007F4F6F31710531F7DA01C9018F77907065
:1024C000A070B07080349105A105B10561F427FDBD
:1024D0000AC0E114F1040105110529F0205C3F4F09
:1024E0004F4F5F4F20782D873E874F87588BBE0117
:1024F000675F7F4FCB010E945B146896EAE00C9403
:102500006E16A8E1B0E0E7E8F2E10C945616698394
:102510007A838B839C832D833E834F83588789E006
:10252000E82EF12CEC0EFD1ECE010196B7010E94A3
:1025300030158E010F5E1F4FCE010596B8010E9427
:1025400030158985823040F08989823028F0C701B2
:10255000B8010E94A81501C08FEF6896E6E00C94C0
:102560007216A8E1B0E0E7EBF2E10C94561669832D
:102570007A838B839C832D833E834F83588789E0A6
:10258000E82EF12CEC0EFD1ECE010196B7010E9443
:1025900030158E010F5E1F4FCE010596B8010E94C7
:1025A00030158985823040F08989823028F0C70152
:1025B000B8010E94A81501C081E06896E6E00C947D
:1025C0007216A8E0B0E0E7EEF2E10C9453169B011E
:1025D000AC0183E08983DA01C9018827B7FD8395BF
:1025E0009927AA27BB27B82E21153105410551058A
:1025F00019F482E089833AC08823A9F0203080E072
:10260000380780E0480780E8580729F460E070E068
:1026100080E09FEC30C0EE24FF248701E21AF30A29
:10262000040B150B02C079018A018EE1C82ED12C52
:10263000DC82CB82ED82FE820F831887C801B7014E
:102640000E940C1401971816190684F4082E04C071
:10265000EE0CFF1C001F111F0A94D2F7ED82FE82C0
:102660000F831887C81AD90ADC82CB82BA82CE01BE
:1026700001960E945B142896E9E00C946F16ACE07A
:10268000B0E0E5E4F3E10C945A1669837A838B8316
:102690009C83CE010196BE016B5F7F4F0E94301577
:1026A0008D81823061F1823050F1843021F48E814D
:1026B000882351F12EC02F81388537FD20C06E81CF
:1026C0002F3131051CF06623F9F023C08EE190E034
:1026D000821B930B29853A854B855C8504C05695F2
:1026E0004795379527958A95D2F76623B1F050958F
:1026F0004095309521953F4F4F4F5F4F0EC020E0E2
:1027000030E040E050E009C02FEF3FEF4FEF5FE7D0
:1027100004C020E030E040E050E8B901CA012C9646
:10272000E2E00C947616A8E0B0E0E9E9F3E10C945D
:1027300052167B018C01611571058105910519F413
:1027400082E0898360C083E089838EE1C82ED12C2A
:10275000DC82CB82ED82FE820F831887C801B7012D
:102760000E940C14FC013197F7FF3BC0222733274E
:102770002E1B3F0B57016801022E04C0D694C7944C
:10278000B794A7940A94D2F740E050E060E070E07C
:1027900081E090E0A0E0B0E004C0880F991FAA1F7C
:1027A000BB1F2A95D2F70197A109B1098E219F215C
:1027B000A023B1230097A105B10521F041E050E02D
:1027C00060E070E04A295B296C297D294D835E8396
:1027D0006F8378878EE190E08E1B9F0B9C838B83A9
:1027E00012C0309781F00E2E04C0EE0CFF1C001FAB
:1027F000111F0A94D2F7ED82FE820F831887CE1A3A
:10280000DF0ADC82CB821A82CE0101960E945B1421
:102810002896EAE00C946E16EF92FF920F931F93A6
:102820007B018C0180E0E81680E0F80681E0080773
:1028300080E0180788F48FEFE816F1040105110510
:1028400031F028F088E090E0A0E0B0E017C080E030
:1028500090E0A0E0B0E012C080E0E81680E0F8066A
:1028600080E0080781E0180728F088E190E0A0E008
:10287000B0E004C080E190E0A0E0B0E020E230E011
:1028800040E050E0281B390B4A0B5B0B04C0169547
:102890000795F794E7948A95D2F7F701EB5CFC4F24
:1028A0008081281B310941095109C9011F910F91EC
:1028B000FF90EF900895DF92EF92FF920F931F9396
:1028C000FC01E480F58006811781D180808182300F
:1028D00048F480E090E0A0E1B0E0E82AF92A0A2B71
:1028E0001B2BA5C0843009F49FC0823021F4EE2454
:1028F000FF24870105C0E114F1040105110519F455
:10290000E0E0F0E096C0628173819FEF6238790762
:102910000CF05BC022E83FEF261B370B2A31310554
:102920002CF020E030E040E050E02AC0B801A701E0
:10293000022E04C076956795579547950A94D2F76D
:1029400081E090E0A0E0B0E004C0880F991FAA1FCA
:10295000BB1F2A95D2F70197A109B1098E219F21AA
:10296000A023B1230097A105B10521F081E090E0FB
:10297000A0E0B0E09A01AB01282B392B4A2B5B2B4E
:10298000DA01C9018F779070A070B0708034910522
:10299000A105B10539F427FF09C0205C3F4F4F4F17
:1029A0005F4F04C0215C3F4F4F4F5F4FE0E0F0E0CE
:1029B0002030A0E03A07A0E04A07A0E45A0710F050
:1029C000E1E0F0E079018A0127C06038710564F523
:1029D000FB01E158FF4FD801C7018F779070A070BD
:1029E000B07080349105A105B10539F4E7FE0DC042
:1029F00080E490E0A0E0B0E004C08FE390E0A0E0CD
:102A0000B0E0E80EF91E0A1F1B1F17FF05C0169540
:102A10000795F794E794319687E016950795F79414
:102A2000E7948A95D1F705C0EE24FF248701EFEFE4
:102A3000F0E06E2F679566276795902F9F77D79464
:102A4000DD24D7948E2F8695492F462B582F5D294C
:102A5000B701CA011F910F91FF90EF90DF90089589
:102A6000FC01DB01408151812281622F6F7770E090
:102A7000221F2227221F9381892F880F822B282F24
:102A800030E0991F9927991F11969C931197211552
:102A90003105A9F5411551056105710511F482E073
:102AA00037C082E89FEF13969C938E9312979A01FA
:102AB000AB0167E0220F331F441F551F6A95D1F702
:102AC00083E08C930DC0220F331F441F551F1296B5
:102AD0008D919C911397019713969C938E931297C7
:102AE000203080E0380780E0480780E4580758F33A
:102AF00014962D933D934D935C93179708952F3F14
:102B0000310579F4411551056105710519F484E029
:102B10008C93089564FF03C081E08C9312C01C92D3
:102B200010C02F57304013963C932E93129783E09A
:102B30008C9387E0440F551F661F771F8A95D1F746
:102B4000706414964D935D936D937C9317970895DD
:102B50001F93DC01FB019C91923008F447C08081F7
:102B6000823008F443C0943051F411961C918430A3
:102B700099F58181682F70E0611B71093FC0843035
:102B800021F0923031F48230B9F18181882389F1CA
:102B90002DC011961C9111978230F1F08181181788
:102BA000D9F412962D913C911397828193818217CB
:102BB000930794F028173907BCF014968D919D91D6
:102BC0000D90BC91A02D2481358146815781281715
:102BD00039074A075B0718F4112341F00AC082172E
:102BE0009307A407B50740F4112319F061E070E0E2
:102BF00005C06FEF7FEF02C060E070E0CB011F9176
:102C00000895991B79E004C0991F961708F0961B48
:102C1000881F7A95C9F78095089597FB092E052698
:102C20000ED057FD04D014D00AD0001C38F45095B3
:102C30004095309521953F4F4F4F5F4F0895F6F7E0
:102C400090958095709561957F4F8F4F9F4F089518
:102C5000A1E21A2EAA1BBB1BFD010DC0AA1FBB1FA0
:102C6000EE1FFF1FA217B307E407F50720F0A21B12
:102C7000B30BE40BF50B661F771F881F991F1A947F
:102C800069F760957095809590959B01AC01BD01A9
:102C9000CF0108952F923F924F925F926F927F9251
:102CA0008F929F92AF92BF92CF92DF92EF92FF925C
:102CB0000F931F93CF93DF93CDB7DEB7CA1BDB0B08
:102CC0000FB6F894DEBF0FBECDBF09942A883988AD
:102CD00048885F846E847D848C849B84AA84B984B4
:102CE000C884DF80EE80FD800C811B81AA81B981C0
:102CF000CE0FD11D0FB6F894DEBF0FBECDBFED01D4
:102D00000895FB01DC0101900D920020E1F7089588
:102D1000AEE0B0E0EEE8F6E10C9458160D891E899D
:102D200086E08C831A8309838FEF9FE79E838D83D0
:102D30009E01275E3F4FCE0101966F89788DA901D4
:102D40000E94AC162F813885020F131FF8011082E4
:102D50002E96E4E00C947416ABE0B0E0E2EBF6E102
:102D60000C944A163C012B015A01FC011782168271
:102D7000838181FD03C06FEF7FEFC6C19AE0892E8A
:102D80001E010894211C311CF3012381F20123FD53
:102D9000859123FF81912F01882309F4B2C18532E7
:102DA00039F423FD859123FF81912F01853229F488
:102DB00090E0B3010E949F18E7CF982FFF24EE24E4
:102DC0009924FFE1FF15D0F09B3269F09C3228F482
:102DD000903259F0933291F40EC09D3249F0903305
:102DE00069F441E024C052E0F52A84E0F82A28C0C2
:102DF00098E0F92A25C0E0E1FE2A22C0F7FC29C0AC
:102E0000892F80538A3070F4F6FE05C0989C902C70
:102E10001124980E15C0E89CE02C1124E80EF0E275
:102E2000FF2A0EC09E3229F4F6FC6BC140E4F42A5E
:102E300007C09C3619F450E8F52A02C0983649F4C8
:102E4000F20123FD959123FF91912F01992309F020
:102E5000B8CF892F8554833018F08052833038F4EE
:102E600044E050E0A40EB51E5FE359830FC09336D3
:102E700031F0933779F0933509F056C020C0F50151
:102E80008081898342E050E0A40EB51E610101E01B
:102E900010E012C0F501C080D180F6FC03C06FEFD6
:102EA0007FEF02C0692D70E042E050E0A40EB51E35
:102EB000C6010E9494188C015FE7F52214C0F50149
:102EC000C080D180F6FC03C06FEF7FEF02C0692D98
:102ED00070E042E050E0A40EB51EC6010E948918C1
:102EE0008C0150E8F52AF3FE07C01AC080E290E09A
:102EF000B3010E949F18EA948E2D90E008171907DD
:102F0000A8F30EC0F601F7FC8591F7FE81916F01E1
:102F100090E0B3010E949F18E110EA940150104024
:102F20000115110579F7EAC0943611F0993669F563
:102F3000F7FE08C0F501208131814281538184E090
:102F400090E00AC0F501808191819C01442737FD02
:102F50004095542F82E090E0A80EB91E9FE6F9221A
:102F600057FF09C050954095309521953F4F4F4FE1
:102F70005F4FE0E8FE2ACA01B901A1012AE030E072
:102F80000E94CB18D82ED21840C0953729F41F2D97
:102F90001F7E2AE030E01DC01F2D197F9F3661F093
:102FA000903720F4983509F0ACC00FC0903739F055
:102FB000983709F0A6C004C028E030E00AC01061CC
:102FC00014FD146020E130E004C014FD166020E11F
:102FD00032E017FF08C0F501608171818281938121
:102FE00044E050E008C0F50180819181BC0180E09F
:102FF00090E042E050E0A40EB51EA1010E94CB1863
:10300000D82ED2188FE7F82EF122F6FE0BC05EEF15
:10301000F522D91438F4F4FE07C0F2FC05C08FEE97
:10302000F82202C01D2D01C0192DF4FE0DC0FE01B5
:10303000ED0DF11D8081803319F499EEF92208C05D
:103040001F5FF2FE05C003C08F2D867809F01F5F59
:103050000F2DF3FC14C0F0FE0FC01E1510F09D2CB8
:103060000BC09D2C9E0C911A1E2D06C080E290E094
:10307000B3010E949F181F5F1E15C0F304C01E15E8
:1030800010F4E11A01C0EE2404FF0FC080E390E0C9
:10309000B3010E949F1802FF1DC001FD03C088E715
:1030A00090E00EC088E590E00BC0802F867891F00C
:1030B00001FF02C08BE201C080E2F7FC8DE290E0EC
:1030C000B3010E949F1806C080E390E0B3010E9404
:1030D0009F189A94D914C0F3DA94F101ED0DF11D03
:1030E000808190E0B3010E949F18DD20A9F706C0FF
:1030F00080E290E0B3010E949F18EA94EE20C1F7AD
:1031000043CEF30166817781CB012B96E2E10C94EB
:103110006616FC010590615070400110D8F780954B
:1031200090958E0F9F1F0895FC0161507040019093
:103130000110D8F7809590958E0F9F1F08950F93DB
:103140001F93CF93DF938C01EB018B8181FF1BC019
:1031500082FF0DC02E813F818C819D812817390708
:1031600064F4E881F9810193F983E88306C0E88576
:10317000F985802F0995892B31F48E819F810196E5
:103180009F838E8302C00FEF1FEFC801DF91CF91A5
:103190001F910F910895FA01AA27283051F120318B
:1031A00081F1E8946F936E7F6E5F7F4F8F4F9F4FDB
:1031B000AF4FB1E03ED0B4E03CD0670F781F891F1D
:1031C0009A1FA11D680F791F8A1F911DA11D6A0FEB
:1031D000711D811D911DA11D20D009F468943F919E
:1031E0002AE0269F11243019305D3193DEF6CF019D
:1031F0000895462F4770405D4193B3E00FD0C9F763
:10320000F6CF462F4F70405D4A3318F0495D31FDCF
:103210004052419302D0A9F7EACFB4E0A695979522
:10322000879577956795BA95C9F7009761057105F8
:1032300008959B01AC010A2E069457954795379542
:103240002795BA95C9F7620F731F841F951FA01D9C
:063250000895F894FFCF81
:103256002D002E004572726F72002020427269673F
:10326600687465723A20494E2020202020200020D4
:103276002042726967687465723A204F555420205F
:1032860020202000202042726967687465723A2007
:1032960053414D452020202000496E736964652006
:1032A60074656D703A20202530327520202020006C
:1032B6004F7574736964652074656D703A202530A6
:1032C600327520202020004D6F74696F6E202020FB
:1032D6002020202020202020202020004E4F204D7E
:1032E6006F74696F6E20202020202020202020204F
:1032F600002020437572722074656D703A20253067
:1033060032750020205461726765742074656D7093
:103316003A2025303275002020476F206261636BAA
:103326002020202020202020202020003E002000D9
:103336002020437572722074696D653A20253032FB
:10334600753A2530327525634D002020536574206B
:1033560074696D653A2020253032753A253032750C
:1033660025634D00202025327520646567204620A0
:10337600494E2020202020202000202025327520A4
:103386006465672046204F555420202020202000C9
:1033960020204272696768746E6573733A205341E0
:1033A6004D45202000010120202020202020202023
:1033B6002020202020202020202020005702197DB8
:1033C60064FFFF0100202D427269676874427265CE
:1033D600657A65206D656E752D0020205F5F20641F
:1033E6006567204620494E202020202020200020EE
:1033F600205F5F206465672046204F5554202020BB
:1034060020202000202042726967687465723A2085
:103416005B696E2F6F75745D002020536574207490
:10342600696D6520202020202020202020002020DB
:10343600536574207461726765742074656D7020BD
:1034460020200020205365742077616B65757020FD
:1034560074696D6520202000202053657420626504
:103466006474696D65202020202020200075028A62
:10347600029F02B402C902DE02F302080300000042
:103486000000000000000102020303030304040419
:1034960004040404040505050505050505050505DB
:1034A60005050505050606060606060606060606BB
:1034B60006060606060606060606060606060606A6
:1034C600060606060607070707070707070707078B
:1034D6000707070707070707070707070707070776
:1034E6000707070707070707070707070707070766
:1034F6000707070707070707070707070707070756
:10350600070707070708080808080808080808083A
:103516000808080808080808080808080808080825
:103526000808080808080808080808080808080815
:103536000808080808080808080808080808080805
:1035460008080808080808080808080808080808F5
:1035560008080808080808080808080808080808E5
:1035660008080808080808080808080808080808D5
:1035760008080808080808080808080808080808C5
:0635860008080808080017
:00000001FF
