:100000000C9434000C9451000C9451000C94510049
:100010000C9451000C9451000C9451000C9451001C
:100020000C9451000C9451000C9451000C9451000C
:100030000C9451000C9451000C9451000C945100FC
:100040000C9451000C9451000C9451000C945100EC
:100050000C9451000C9451000C9451000C945100DC
:100060000C9451000C94510011241FBECFEFD8E026
:10007000DEBFCDBF13E0A0E0B1E0ECE4FBE202C0E4
:1000800005900D92A43EB107D9F714E0A4EEB3E0B9
:1000900001C01D92A631B107E1F70E94C40A0C9479
:1000A000A4150C94000087B1807F87B9599A58989D
:1000B00023E05E9A822F8A95F1F786B15E98922F9F
:1000C0009A95F1F75E9A922F9A95F1F75E98922F92
:1000D0009A95F1F783FDEDCF5998589A87B18F60C3
:1000E00087B908950F931F93082F162F0E9453006E
:1000F000112359F45898003811F0013061F481E06F
:10010000809306028093070206C0589A80910602E7
:100110008F5F80930602599898B1802F82958F70D7
:10012000892B88B95E9A93EA892F8A95F1F75E98B0
:1001300088B1807F88B988B10F70802B88B95E9AAA
:100140009A95F1F75E9888B1807F88B91F910F91D9
:10015000089561E00E947200089561E00E947200BB
:100160000895682F88EE93E025EF30E0F90131978C
:10017000F1F70197D9F787B18F6087B988B1807F90
:1001800088B9509A519A8AB183648AB95E9859980D
:10019000589888B1836088B95E9A93EA892F8A95C6
:1001A000F1F75E9888B1807F88B940E050E6FA01A7
:1001B0003197F1F788B1836088B95E9A892F8A9563
:1001C000F1F75E9888B1807F88B929E939E0F901B3
:1001D0003197F1F788B1836088B95E9A892F8A9543
:1001E000F1F75E9888B1807F88B9F9013197F1F70E
:1001F000419A5E9A892F8A95F1F75E9888B1807F3F
:1002000088B9F9013197F1F7419A5E9A892F8A9559
:10021000F1F75E9888B1807F88B9F9013197F1F7DD
:10022000439A5E9A892F8A95F1F75E9888B1807F0C
:1002300088B9F9013197F1F7409A5E9A892F8A952A
:10024000F1F75E9888B1807F88B9E0E0F0E33197FC
:10025000F1F788B1866088B95E9A892F8A95F1F79F
:100260005E9888B1807F88B9F9013197F1F788B13C
:100270008C6088B9F9013197F1F788B1807F88B92E
:100280005E9A892F8A95F1F75E98419A5E9A9A95BF
:10029000F1F75E9888B1807F88B9CA010197F1F7BC
:1002A000862F8C6060E00E94720081E060E00E9416
:1002B000720080E860E00E94720008950F931F931F
:1002C000182F062F0E945300812F81508E3F08F077
:1002D00011E01093060200930702023051F0023041
:1002E00030F0043051F0043030F00F3F39F4115049
:1002F00005C0115C03C01D5E01C01D5A812F8068BE
:1003000060E00E9472001F910F9108958091060293
:1003100061E00E945E0185EA61E00E9472008091C6
:100320000602815062E00E945E0185EA61E00E945F
:10033000720008950F931F93CF93DF93EC0111E0A8
:1003400001E023C01531E0F0013031F481E062E0DA
:100350000E945E0102E00FC0023031F481E063E0F0
:100360000E945E0103E007C0033029F481E064E0ED
:100370000E945E0104E08881803209F4219611E038
:10038000899161E00E9472001F5F88811816D4F283
:10039000DF91CF911F910F9108958F929F92AF920D
:1003A000BF92CF92DF92EF92FF920F931F93DF9352
:1003B000CF93CDB7DEB72C970FB6F894DEBF0FBE44
:1003C000CDBF4B015C01142F00E061157105810563
:1003D000910509F401E0C501B4010BC00F5F2AE0EB
:1003E00030E040E050E00E948812C901DA01BC010F
:1003F000CD01611571058105910581F7402FB7FC8D
:1004000004C075016401BB240AC0CC24DD2476013C
:10041000C818D908EA08FB080F5FBB24B394FE0193
:1004200031968AE0DF011D928A95E9F7141B412F6E
:1004300017FD40E0102F140F20C01A3088F4FE0181
:10044000E10FF11DFC87EB87C701B6012AE030E020
:1004500040E050E00E948812605DAB85BC856C93E3
:10046000C701B6012AE030E040E050E00E94881267
:10047000C901DA016C017D0111501123F1F6BB2095
:1004800011F08DE28983CE0101960E949A012C968B
:100490000FB6F894DEBF0FBECDBFCF91DF911F9195
:1004A0000F91FF90EF90DF90CF90BF90AF909F9013
:1004B0008F9008956F927F928F929F92AF92BF928A
:1004C000CF92DF92EF92FF920F931F937B018C01EB
:1004D000642E822E222319F48824839405C087E099
:1004E000821710F487E0882E982C0F2EF0E0AF2EA4
:1004F000F0E0BF2EF0E0CF2EFFE3DF2EF02DC6019F
:10050000B50120E030E040E251E40E94500E5B0172
:100510006C019A94A1F7C801B70120E030E040E0F7
:1005200050E00E942C0F87FD02C0772406C017FB05
:10053000109517F9109577247394C801B701A60197
:1005400095010E94290D7B018C010E94BA0F5B016D
:100550006C010E945C0F9B01AC01C801B7010E94B5
:10056000F80C7B018C01982CC801B70120E030E029
:1005700040E251E40E94560D7B018C019A94A1F750
:10058000772089F0D094C094B094A094A11CB11CA1
:10059000C11CD11CA114B104C104D10421F480E018
:1005A00091E00E949A01C601B501462D0E94CD013D
:1005B00082E091E00E949A01C801B7010E94BA0F3F
:1005C000482D0E94CD011F910F91FF90EF90DF9079
:1005D000CF90BF90AF909F908F907F906F90089535
:1005E0005E9A83EA8A95F1F75E980895BF92CF925A
:1005F000DF92EF92FF920F931F93CF93DF93B82E6A
:10060000FB01D901E7014115510531F4011511052F
:1006100019F490E080E054C084EA8093BC0080919B
:10062000BC0087FFFCCF9091B900987F983009F00B
:100630009FC08B2D8E7F8093BB0084E88093BC008D
:100640008091BC0087FFFCCF9091B900987F9831D2
:10065000B1F0903209F08CC088C080818093BB00DB
:100660002093BC008091BC0087FFFCCF9091B90023
:10067000987F415050409832C9F4319601C024E827
:100680004115510551F716C08C918093BB00209302
:10069000BC008091BC0087FFFCCF9091B900987F8F
:1006A00001501040983211F4119605C0903309F0B2
:1006B0005FC05BC024E80115110531F791E081E0CE
:1006C000C114D10409F44EC0882311F428E001C0FC
:1006D00020E184EA8093BC008091BC0087FFFCCFBE
:1006E0009091B900987F921709F042C081E0B82A32
:1006F000B092BB0084E88093BC008091BC0087FF6F
:10070000FCCF9091B900987F903419F0983481F51E
:100710002CC00894C108D10824EC11C02093BC005F
:100720008091BC0087FFFCCF9091B900987F08941E
:10073000C108D1089035E1F48091BB008993C114C0
:10074000D10461F784E88093BC008091BC0087FFEE
:10075000FCCF9091B900987F983551F48091BB00FF
:10076000888302C0992321F090E084E98093BC0043
:10077000892FDF91CF911F910F91FF90EF90DF9024
:10078000CF90BF9008951092B9008093B80008955B
:10079000CF92DF92EF92FF920F931F93DF93CF934D
:1007A0000F92CDB7DEB71982009711F481E003C034
:1007B000019711F482E0898380EE60E070E040E010
:1007C00050E09E012F5F3F4F01E010E0EE24FF2438
:1007D000CC24DD240E94F6020F90CF91DF911F916F
:1007E0000F91FF90EF90DF90CF9008952F923F925E
:1007F0004F925F926F927F928F929F92AF92BF9231
:10080000CF92DF92EF92FF920F931F93DF93CF93DC
:1008100000D00F92CDB7DEB71092B9008AE2809374
:10082000B800AA24BB2453E0452E512C4C0E5D1E6B
:100830004E010894811C911C42E0642E712C6C0EB8
:100840007D1E33E1232E21EA322EC5010E94C8030A
:1008500082EB898382E560E070E040E050E0940143
:1008600001E010E0720191E0C92ED12C0E94F60245
:100870008B818035C1F481E08A8380EA898382E5B7
:10088000B40141E050E09301EE24FF24CC24DD24A8
:100890000E94F6022A82398282E5B40141E050E0EA
:1008A00093010E94F6020894A11CB11C82E0A816D4
:1008B000B10459F60F900F900F90CF91DF911F91D7
:1008C0000F91FF90EF90DF90CF90BF90AF909F90EF
:1008D0008F907F906F905F904F903F902F900895F2
:1008E0006F927F928F929F92AF92BF92CF92DF9240
:1008F000EF92FF920F931F93DF93CF93CDB7DEB7A5
:1009000027970FB6F894DEBF0FBECDBF0E94C80375
:1009100083E08A8380EA898382E54E010894811C02
:10092000911CB40141E050E09E012E5F3F4F01E079
:1009300010E0EE24FF24CC24DD240E94F60283EB99
:10094000898323E0A22EB12CAC0EBD1E82E5B4013A
:1009500041E050E020E030E000E010E0750191E07F
:10096000C92ED12C0E94F602B3EB6B2E7A2CAB2C45
:1009700010C0698282E5B40141E050E020E030E03F
:1009800000E010E0E72CFA2CA1E0CA2ED12C0E9446
:10099000F6028B8180FFEDCF84EB898382E560E0F6
:1009A00070E040E050E0940101E010E0F4E0EF2E50
:1009B000F12CEC0EFD1EE4E0CE2ED12C0E94F602AE
:1009C0009D8180E0AC80BB24A82AB92A9F8180E069
:1009D0002E8130E0822B932BA81AB90A80EA8983F2
:1009E00081E08A8382E5B40141E050E09E012E5F00
:1009F0003F4FEE24FF24CC24DD240E94F602C501E3
:100A000027960FB6F894DEBF0FBECDBFCF91DF9112
:100A10001F910F91FF90EF90DF90CF90BF90AF901C
:100A20009F908F907F906F9008959B01281B390BAA
:100A300048EF203334071CF0215D374064F08617FF
:100A4000970718F421E030E008C06817790718F418
:100A50002FEF3FEF02C020E030E0C9010895529827
:100A600020980895882341F4529A5A9880E090EC97
:100A70000197F1F75A9A0895813039F4209A28980D
:100A800080E090EC0197F1F7289A0895882341F4CB
:100A900052984A99FECF4A9BFECF4A99FECF0895BD
:100AA000813039F420981899FECF189BFECF189901
:100AB000FECF08958823A9F48091E40320E032E674
:100AC0004A9BFECF932F9A95F1F74A9B03C0880F5C
:100AD000816001C0880F4A99FECF2F5F283081F7CF
:100AE00016C08130B1F48091E40320E032E6189B17
:100AF000FECF932F9A95F1F7189B03C0880F816062
:100B000001C0880F1899FECF2F5F283081F780939E
:100B1000E4038091E4030895EF92FF920F931F93F3
:100B2000CF93DF93182F0E943205812F0E94460534
:100B3000812F0E945A0580930F04812F0E945A052D
:100B400080930B04812F0E945A0580930E04812FFD
:100B50000E945A0580931304812F0E945A058093A6
:100B60000C0460910E0420911304C22FD0E0409138
:100B70000B0420910F0430E0240F311D260F311D8E
:100B80002C0F3D1F90E02817390751F081E061E0FC
:100B90000E945E0184E091E00E949A0180E029C0F9
:100BA00070E080E090E00E940E107B018C01BE019D
:100BB000882777FD8095982F0E945C0F2DEC3CECE8
:100BC0004CEC5DE30E94560D9B01AC01C801B701DE
:100BD0000E94290D26E636E646EE5FE30E94560D9A
:100BE00020E030E040E052E40E94290D0E94800B9A
:100BF000862FDF91CF911F910F91FF90EF90089575
:100C0000992787FD909535E0969587953A95E1F778
:100C100081700895282F22952F709AE0299F9001C6
:100C200011248F70820F0895482F6AE00E947C1271
:100C3000282F30E054E0220F331F5A95E1F7842F1C
:100C40000E947C12892F820F0895CF92DF92EF923B
:100C5000FF920F931F93DF93CF9300D000D0CDB7B7
:100C6000DEB78C8380EDBE016C5F7F4F41E050E0CA
:100C700020E030E000E010E0EE24FF24CC24DD246E
:100C80000E94F60281ED60E070E040E050E020E07C
:100C900030E07E010894E11CF11CE3E0CE2ED12C63
:100CA0000E94F60289818093EC038A818093EE038F
:100CB0008B81809307040F900F900F900F90CF912E
:100CC000DF911F910F91FF90EF90DF90CF900895EB
:100CD000CF92DF92EF92FF920F931F93DF93CF9308
:100CE00000D000D0CDB7DEB7082F162F842F198281
:100CF0000E9414068A83812F0E9414068B83802F02
:100D00000E9414068C8380EDBE016F5F7F4F44E02C
:100D100050E020E030E000E010E0EE24FF24CC249E
:100D2000DD240E94F6020F900F900F900F90CF914C
:100D3000DF911F910F91FF90EF90DF90CF9008957A
:100D4000279A2F9808952F9A80E593EC25EF30E0AD
:100D5000F9013197F1F70197D9F708952F9880E5B8
:100D600093EC25EF30E0F9013197F1F70197D9F7CE
:100D7000089529B130E0F4E036952795FA95E1F72A
:100D800021703070C90108955498089589B1881F61
:100D90008827881F089583B190E096958795817084
:100DA000089583B190E09695879596958795817083
:100DB00008951F93182F80911D0290911E020E948A
:100DC0009A0181E0612F0E945E011F910895FF92B8
:100DD0000F931F9381E060E00E94720082E090E038
:100DE000909322028093210281E00E948C05F82ECC
:100DF00082E061E00E945E0100D000D000D0EDB73B
:100E0000FEB7319603EF13E0ADB7BEB712961C9351
:100E10000E9311978AE091E093838283F482158286
:100E20000E9403138DB79EB706960FB6F8949EBF27
:100E30000FBE8DBFC8010E949A0100D000D000D023
:100E4000EDB7FEB73196ADB7BEB712961C930E93B1
:100E500011978CE191E093838283F48215820E9442
:100E600003138DB79EB706960FB6F8949EBF0FBEBC
:100E70008DBF82E062E00E945E01C8010E949A017B
:100E800082E063E00E945E018DE291E00E949A019F
:100E900081E0609121020E945E0185E391E00E9461
:100EA0009A01FFCF4F925F926F927F928F929F92A3
:100EB000AF92BF92CF92DF92EF92FF920F931F9368
:100EC000CF93DF9381E060E00E94720080E00E9497
:100ED000250610910704812F8F710E940A06D82ED3
:100EE000809310048091EE030E940A06982F80934D
:100EF0000D0416FF04C015FF02C080E501C081E4A7
:100F00008093ED03D092EF039093F0038091ED0373
:100F1000809308041092EB031092F1031092E903FE
:100F20001092EA032DB73EB72A5030400FB6F8941E
:100F30003EBF0FBE2DBFEDB7FEB7319603EF13E0F6
:100F4000ADB7BEB712961C930E93119757E3E52EDB
:100F500051E0F52EF382E282D482158296831782C5
:100F6000992787FD9095918780870E9403132DB75D
:100F70003EB7265F3F4F0FB6F8943EBF0FBE2DBF62
:100F800080E860E00E947200C8010E949A0181E03E
:100F900062E00E945E018DB79EB70A970FB6F89483
:100FA0009EBF0FBE8DBFEDB7FEB73196ADB7BEB7D2
:100FB00012961C930E93119781E591E0938382839F
:100FC0008091EF03848315828091F00386831782DA
:100FD00080910804992787FD9095918780870E94CA
:100FE00003132DB73EB7265F3F4F0FB6F8943EBFB1
:100FF0000FBE2DBFC8010E949A0181E063E00E94EC
:101000005E018BE691E00E949A01C02E012F7E2C9A
:101010006F2C45EFE42EF12C32E8832E31E0932E35
:1010200021E4A22E90E5B92E8CE0482E1BE3512E30
:10103000C2E0D0E080E00E94250610910704812FD5
:101040008F710E940A06D82E809310048091EE03BF
:101050000E940A0680930D0416FF04C015FF49C1C3
:10106000B092ED03ADB7BEB71A970FB6F894BEBFF6
:101070000FBEADBFEDB7FEB731961196CC9211976A
:1010800012960C9372826382D482158286831782B1
:101090008091ED03992787FD9095918780870E9425
:1010A00003132DB73EB7265F3F4F0FB6F8943EBFF0
:1010B0000FBE2DBF80E860E00E9472008C2D902F43
:1010C0000E949A01DC2E81E06C2F0E945E0185E374
:1010D00091E00E949A01C230D105D1F480E197E2FB
:1010E000F7013197F1F70197D9F71A9B09C081E011
:1010F00062E00E945E0180E891E00E949A011EC0B9
:10110000199BF1C081E08093EA038093EB03EBC06D
:1011100080E197E2F7013197F1F70197D9F74F9BFB
:101120000BC081E063E00E945E0180E891E00E94D4
:101130009A01C2E0D0E0D7C0199903C0C3E0D0E063
:10114000D2C081E06D2D0E945E0180E891E00E9496
:101150009A01DF91CF911F910F91FF90EF90DF9057
:10116000CF90BF90AF909F908F907F906F905F9047
:101170004F90089580E197E2F7013197F1F70197D9
:10118000D9F78DB79EB70A970FB6F8949EBF0FBEDA
:101190008DBFEDB7FEB73196ADB7BEB71196CC9205
:1011A000119712960C93938282828091EF0384832D
:1011B00015828091F0038683178280910804992715
:1011C00087FD9095918780870E9403132DB73EB7C6
:1011D000265F3F4F0FB6F8943EBF0FBE2DBF81E094
:1011E00062E00E945E018C2D902F0E949A0181E1A5
:1011F00062E00E945E014F9B1BC08091EB0388233D
:1012000049F08091F0038B3319F41092F0036BC016
:101210008F5F1CC08091F103882341F18091EF031F
:101220008C3011F481E001C08F5F8093EF035BC0CD
:101230001A9B2AC08091EB03882359F08091F00318
:10124000882319F45092F0034EC081508093F0032C
:101250004AC08091F103882349F08091EF038130E7
:1012600019F44092EF033FC08150DFCF8091E90332
:101270008823C9F180910804813419F4B0920804DC
:1012800032C0A09208042FC0199B2DC08091EB039F
:10129000882331F01092EB0381E08093F10323C0A7
:1012A0008091F103882351F08EE062E00E945E019C
:1012B0001092F10381E08093E90315C08091E90366
:1012C000882389F082E161E00E945E011092E903C7
:1012D0001092EA038DE062E00E945E0180E891E0F6
:1012E0000E949A01A5CE8091EA03882309F4A2CE38
:1012F00041CFA092ED03B6CE8F929F92AF92BF9254
:10130000CF92DF92EF92FF920F931F93DF93CF93D1
:10131000CDB7DEB760970FB6F894DEBF0FBECDBF76
:10132000DE011196EBECF2E080E101900D9281502C
:10133000E1F78091E703882309F013C18091E80366
:101340008093F203CB80DC80ED80FE808E010F5F06
:101350001F4F91EB892E91E0992E8BE9A82E81E009
:10136000B82E94C0683008F08CC06F5F641B81E0B9
:101370000E945E018091F203813089F40E948C0505
:1013800000D000D000D0EDB7FEB73196ADB7BEB7F4
:101390001296DC92CE921197B382A28213C0823051
:1013A000F1F480E00E948C0500D000D000D0EDB7B1
:1013B000FEB73196ADB7BEB71296FC92EE9211977A
:1013C00093828282848315820E9403138DB79EB715
:1013D00006960FB6F8949EBF0FBE8DBF47C08330F0
:1013E00009F044C080E090E00E94700490931504DE
:1013F0008093140481E090E00E947004BC019093FB
:1014000012048093110480911404909115040E9499
:10141000150590930A04809309048130910561F4C5
:10142000E091F203F0E0EE0FFF1FE00FF11F80816B
:10143000918167EC71E018C0E091F2038F5F9F4FDC
:1014400051F4F0E0EE0FFF1FE00FF11F808191815A
:101450006CED71E009C0F0E0EE0FFF1FE00FF11F2F
:101460008081918161EF71E00E94FC12E091F203B2
:10147000F0E0EE0FFF1FE00FF11F808191810E94CD
:101480009A018091F2038F5F8093F2036091F203DF
:101490004091E803262F30E0842F90E003968217D6
:1014A00093070CF05FCF1A9B17C08091E5039091D2
:1014B000E6038730910584F401969093E6038093C8
:1014C000E50380912102909122028430910514F469
:1014D000019618C04F5F1CC04F9B1DC08091E50353
:1014E0009091E60382309105B4F001979093E60362
:1014F0008093E50380912102909122028230910530
:1015000034F00197909322028093210221C0415030
:101510004093E8031DC0199B1BC08091E503909187
:10152000E6039093200280931F028130910581F0A1
:101530008230910569F08330910551F08430910536
:1015400019F40E94520704C0059711F40E94E7069F
:1015500081E0609121020E945E0185E391E00E949A
:101560009A0160960FB6F894DEBF0FBECDBFCF9143
:10157000DF911F910F91FF90EF90DF90CF90BF9080
:10158000AF909F908F900895CF93DF9352982098BB
:101590000E94F6031092B9008AE28093B8008BE0B3
:1015A00063E248E30E94680680E00E94B10081E0A7
:1015B00060E00E94720080E860E00E947200C5EF67
:1015C000D0E00E947C0980E197E2FE013197F1F7BB
:1015D0000197D9F7F6CF2F923F924F925F926F9279
:1015E0007F928F929F92AF92BF92CF92DF92EF92B3
:1015F000FF920F931F93CF93DF936C01DC010D904B
:101600000020E9F77D010894E108F108E81AF90AD9
:1016100081E060E00E94720084E161E00E945E016E
:101620008601882483949924939453E1752E44E190
:10163000442E512C4E0C5F1C35EF232E312C6E2C7A
:1016400041C0899161E00E9472009E01201B291512
:10165000C0F380ED97E0F1013197F1F70197D9F7E9
:1016600081E060E00E94720033E1381548F0AE146A
:10167000BF0430F4872D61E00E945E0193941FC087
:10168000882D90E0A5E1EA16F10438F00196E816FD
:10169000F90628F024E1922E03C044975CF09A9456
:1016A0008501035110400C0D1D1D81E061E00E9479
:1016B0005E0106C0962C872D61E00E945E018601C6
:1016C00083947A94A82CBB24A414B50410F4E801E4
:1016D000BCCF80E860E00E947200DF91CF911F9143
:1016E0000F91FF90EF90DF90CF90BF90AF909F90C1
:1016F0008F907F906F905F904F903F902F900895C4
:10170000EF92FF920F931F937B018C0120E030E05A
:1017100040E05FE40E94FC0E88238CF0C801B70112
:1017200020E030E040E05FE40E94F80C0E94BA0F35
:101730009B01AC01205030404040504806C0C801D9
:10174000B7010E94BA0F9B01AC01B901CA011F91F8
:101750000F91FF90EF900895A0E0B0E0E2EBFBE086
:101760000C94C512DC012B01FA019C91923008F413
:1017700039C1EB018881823008F433C1943069F4B7
:10178000843009F02FC111969C9111978981981787
:1017900009F428C1ABEDB2E025C1843009F421C1C0
:1017A0008230A9F4923009F01DC19A01AD0188E0A0
:1017B000EA010990AE01E90109929E018150C1F749
:1017C000E201898111969C918923818308C192301D
:1017D00009F407C112962D903C901397EB018A8172
:1017E0009B811496AD90BD90CD90DC901797EC80C6
:1017F000FD800E811F819101281B390BB90137FF34
:1018000004C066277727621B730B603271050CF0EA
:1018100061C0121613066CF537014801062E04C08C
:1018200096948794779467940A94D2F721E030E0F5
:1018300040E050E004C0220F331F441F551F6A953B
:10184000D2F721503040404050402E213F214023CC
:101850005123211531054105510521F021E030E0EA
:1018600040E050E079018A01E628F7280829192983
:101870003CC0232BD1F1260E371E35014601062E22
:1018800004C096948794779467940A94D2F721E0E1
:1018900030E040E050E004C0220F331F441F551FCA
:1018A0006A95D2F721503040404050402A213B21D8
:1018B0004C215D21211531054105510521F021E023
:1018C00030E040E050E059016A01A628B728C82856
:1018D000D9280BC0821593052CF01C01AA24BB2427
:1018E000650103C0EE24FF24870111969C91D2016B
:1018F00011968C91981709F445C0992339F0A801E5
:1019000097012A193B094C095D0906C0A6019501FA
:101910002E193F09400B510B57FD08C0118233822D
:10192000228224833583468357831DC081E08183CF
:101930003382228288279927DC01821B930BA40B18
:10194000B50B84839583A683B7830DC0220F331F05
:10195000441F551F24833583468357838281938197
:101960000197938382832481358146815781DA01EF
:10197000C9010197A109B1098F5F9F4FAF4FBF43C5
:1019800028F30BC0918333822282EA0CFB1C0C1DCE
:101990001D1DE482F5820683178383E08083248102
:1019A00035814681578157FF1AC0C901AA2797FD83
:1019B000A095BA2F81709070A070B0705695479521
:1019C00037952795822B932BA42BB52B8483958356
:1019D000A683B78382819381019693838283DF01FB
:1019E00001C0D201CD01CDB7DEB7E2E10C94E11226
:1019F000A0E2B0E0EEEFFCE00C94D11269837A83B0
:101A00008B839C832D833E834F835887E9E0EE2EA2
:101A1000F12CEC0EFD1ECE010196B7010E94AB1118
:101A20008E010F5E1F4FCE010596B8010E94AB11CB
:101A30008A8991E089278A8BC701B801AE01475E88
:101A40005F4F0E94AC0B0E94D610A096E6E00C946B
:101A5000ED12A0E2B0E0EFE2FDE00C94D112698358
:101A60007A838B839C832D833E834F835887F9E051
:101A7000EF2EF12CEC0EFD1ECE010196B7010E9457
:101A8000AB118E010F5E1F4FCE010596B8010E946B
:101A9000AB11C701B801AE01475E5F4F0E94AC0BAE
:101AA0000E94D610A096E6E00C94ED12A0E2B0E001
:101AB000ECE5FDE00C94C51269837A838B839C83EB
:101AC0002D833E834F835887CE010196BE01675F09
:101AD0007F4F0E94AB11CE010596BE016F5E7F4F16
:101AE0000E94AB119985923088F089898230C8F0C4
:101AF000943019F4823051F404C0843029F49230C7
:101B000081F48BED92E0C6C0923049F420E09A85D2
:101B10008A89981321E02A87CE010996BBC08230BA
:101B200049F420E09A858A89981321E02A8BCE0116
:101B30004196B0C02D843E844F8458886D887E883D
:101B40008F88988CEE24FF248701AA24BB2465018A
:101B500040E050E060E070E0E0E0F0E0C101817062
:101B60009070892BE9F0E60CF71C081D191D9A01ED
:101B7000AB012A0D3B1D4C1D5D1D80E090E0A0E0F7
:101B8000B0E0E614F7040805190520F481E090E0C0
:101B9000A0E0B0E0BA01A901480F591F6A1F7B1FDE
:101BA000AA0CBB1CCC1CDD1C97FE08C081E090E099
:101BB000A0E0B0E0A82AB92ACA2ADB2A3196E0328E
:101BC000F10549F0660C771C881C991C56944794C3
:101BD00037942794C3CFFA85EA892B893C898B8572
:101BE0009C85280F391F2E5F3F4F17C0CA01817097
:101BF0009070892B61F016950795F794E79480E033
:101C000090E0A0E0B0E8E82AF92A0A2B1B2B769591
:101C10006795579547952F5F3F4F77FDE7CF0CC0EE
:101C2000440F551F661F771F17FD4160EE0CFF1C08
:101C3000001F111F21503040403090E0590790E0C4
:101C4000690790E4790760F32B8F3C8FDB01CA01B1
:101C50008F779070A070B07080349105A105B105A8
:101C600061F447FD0AC0E114F1040105110529F0F2
:101C7000405C5F4F6F4F7F4F40781A8EFE1711F018
:101C800081E08A8F4D8F5E8F6F8F78A383E0898F7D
:101C9000CE0149960E94D610A096E2E10C94E11282
:101CA000A8E1B0E0E6E5FEE00C94CD1269837A830A
:101CB0008B839C832D833E834F835887B9E0EB2E23
:101CC000F12CEC0EFD1ECE010196B7010E94AB1166
:101CD0008E010F5E1F4FCE010596B8010E94AB1119
:101CE0002985223008F47EC03989323010F4B801D9
:101CF0007CC08A859A8989278A87243011F022300E
:101D000031F4231709F06EC06BED72E06EC0343011
:101D100039F41D861E861F86188A1C861B8604C001
:101D2000323021F484E08987B7015FC02B853C8580
:101D30008B899C89281B390B3C872B87ED84FE847B
:101D40000F851889AD88BE88CF88D88CEA14FB042B
:101D50000C051D0540F4EE0CFF1C001F111F215047
:101D600030403C872B8720E030E040E050E080E0CE
:101D700090E0A0E0B0E460E070E0EA14FB040C0541
:101D80001D0540F0282B392B4A2B5B2BEA18FB084A
:101D90000C091D09B695A79597958795EE0CFF1C24
:101DA000001F111F6F5F7F4F6F31710531F7DA012F
:101DB000C9018F779070A070B07080349105A10533
:101DC000B10561F427FD0AC0E114F1040105110514
:101DD00029F0205C3F4F4F4F5F4F20782D873E8783
:101DE0004F87588BBE01675F7F4FCB010E94D61093
:101DF0006896EAE00C94E912A8E1B0E0E2E0FFE0C6
:101E00000C94D11269837A838B839C832D833E83C8
:101E10004F83588789E0E82EF12CEC0EFD1ECE0191
:101E20000196B7010E94AB118E010F5E1F4FCE01CC
:101E30000596B8010E94AB118985823040F08989EE
:101E4000823028F0C701B8010E94231201C08FEF31
:101E50006896E6E00C94ED12A8E1B0E0E2E3FFE062
:101E60000C94D11269837A838B839C832D833E8368
:101E70004F83588789E0E82EF12CEC0EFD1ECE0131
:101E80000196B7010E94AB118E010F5E1F4FCE016C
:101E90000596B8010E94AB118985823040F089898E
:101EA000823028F0C701B8010E94231201C081E0EE
:101EB0006896E6E00C94ED12A8E0B0E0E2E6FFE000
:101EC0000C94CE129B01AC0183E08983DA01C90135
:101ED0008827B7FD83959927AA27BB27B82E2115F8
:101EE00031054105510519F482E089833AC0882300
:101EF000A9F0203080E0380780E0480780E85807E4
:101F000029F460E070E080E09FEC30C0EE24FF2414
:101F10008701E21AF30A040B150B02C079018A014A
:101F20008EE1C82ED12CDC82CB82ED82FE820F8323
:101F30001887C801B7010E94871001971816190663
:101F400084F4082E04C0EE0CFF1C001F111F0A941D
:101F5000D2F7ED82FE820F831887C81AD90ADC8275
:101F6000CB82BA82CE0101960E94D6102896E9E073
:101F70000C94EA12ACE0B0E0E0ECFFE00C94D51277
:101F800069837A838B839C83CE010196BE016B5F4C
:101F90007F4F0E94AB118D81823061F1823050F110
:101FA000843021F48E81882351F12EC02F81388511
:101FB00037FD20C06E812F3131051CF06623F9F00A
:101FC00023C08EE190E0821B930B29853A854B85D7
:101FD0005C8504C056954795379527958A95D2F725
:101FE0006623B1F050954095309521953F4F4F4F66
:101FF0005F4F0EC020E030E040E050E009C02FEF1E
:102000003FEF4FEF5FE704C020E030E040E050E8F2
:10201000B901CA012C96E2E00C94F112A8E0B0E0FC
:10202000E4E1F0E10C94CD127B018C0161157105A6
:102030008105910519F482E0898360C083E089837A
:102040008EE1C82ED12CDC82CB82ED82FE820F8302
:102050001887C801B7010E948710FC013197F7FF6C
:102060003BC0222733272E1B3F0B57016801022E4E
:1020700004C0D694C794B794A7940A94D2F740E0CA
:1020800050E060E070E081E090E0A0E0B0E004C0EB
:10209000880F991FAA1FBB1F2A95D2F70197A10984
:1020A000B1098E219F21A023B1230097A105B1057D
:1020B00021F041E050E060E070E04A295B296C29A2
:1020C0007D294D835E836F8378878EE190E08E1B40
:1020D0009F0B9C838B8312C0309781F00E2E04C01F
:1020E000EE0CFF1C001F111F0A94D2F7ED82FE8236
:1020F0000F831887CE1ADF0ADC82CB821A82CE01C8
:1021000001960E94D6102896EAE00C94E912EF920C
:10211000FF920F931F937B018C0180E0E81680E013
:10212000F80681E0080780E0180788F48FEFE816CA
:10213000F1040105110531F028F088E090E0A0E0FD
:10214000B0E017C080E090E0A0E0B0E012C080E016
:10215000E81680E0F80680E0080781E0180728F01C
:1021600088E190E0A0E0B0E004C080E190E0A0E071
:10217000B0E020E230E040E050E0281B390B4A0B91
:102180005B0B04C016950795F794E7948A95D2F7F0
:10219000F701ED51FD4F8081281B3109410951099B
:1021A000C9011F910F91FF90EF900895DF92EF9278
:1021B000FF920F931F93FC01E480F5800681178145
:1021C000D1808081823048F480E090E0A0E1B0E0EE
:1021D000E82AF92A0A2B1B2BA5C0843009F49FC0DA
:1021E000823021F4EE24FF24870105C0E114F104BC
:1021F0000105110519F4E0E0F0E096C062817381F9
:102200009FEF623879070CF05BC022E83FEF261B96
:10221000370B2A3131052CF020E030E040E050E06F
:102220002AC0B801A701022E04C07695679557957C
:1022300047950A94D2F781E090E0A0E0B0E004C0B6
:10224000880F991FAA1FBB1F2A95D2F70197A109D2
:10225000B1098E219F21A023B1230097A105B105CB
:1022600021F081E090E0A0E0B0E09A01AB01282BE2
:10227000392B4A2B5B2BDA01C9018F779070A07044
:10228000B07080349105A105B10539F427FF09C06C
:10229000205C3F4F4F4F5F4F04C0215C3F4F4F4F7B
:1022A0005F4FE0E0F0E02030A0E03A07A0E04A070E
:1022B000A0E45A0710F0E1E0F0E079018A0127C0BC
:1022C0006038710564F5FB01E158FF4FD801C70183
:1022D0008F779070A070B07080349105A105B10522
:1022E00039F4E7FE0DC080E490E0A0E0B0E004C067
:1022F0008FE390E0A0E0B0E0E80EF91E0A1F1B1F7C
:1023000017FF05C016950795F794E794319687E077
:1023100016950795F794E7948A95D1F705C0EE24B2
:10232000FF248701EFEFF0E06E2F67956627679532
:10233000902F9F77D794DD24D7948E2F8695492FA1
:10234000462B582F5D29B701CA011F910F91FF90AD
:10235000EF90DF900895FC01DB01408151812281E3
:10236000622F6F7770E0221F2227221F9381892F0F
:10237000880F822B282F30E0991F9927991F1196DB
:102380009C93119721153105A9F54115510561055A
:10239000710511F482E037C082E89FEF13969C9399
:1023A0008E9312979A01AB0167E0220F331F441FEF
:1023B000551F6A95D1F783E08C930DC0220F331F10
:1023C000441F551F12968D919C9113970197139658
:1023D0009C938E931297203080E0380780E0480766
:1023E00080E4580758F314962D933D934D935C93D6
:1023F000179708952F3F310579F44115510561056F
:10240000710519F484E08C93089564FF03C081E0A2
:102410008C9312C01C9210C02F57304013963C93DF
:102420002E93129783E08C9387E0440F551F661F0D
:10243000771F8A95D1F7706414964D935D936D93D1
:102440007C93179708951F93DC01FB019C919230B8
:1024500008F447C08081823008F443C0943051F4BE
:1024600011961C91843099F58181682F70E0611B71
:1024700071093FC0843021F0923031F48230B9F1DB
:102480008181882389F12DC011961C91119782308A
:10249000F1F081811817D9F412962D913C91139780
:1024A000828193818217930794F028173907BCF033
:1024B00014968D919D910D90BC91A02D2481358114
:1024C00046815781281739074A075B0718F41123FB
:1024D00041F00AC082179307A407B50740F41123FF
:1024E00019F061E070E005C06FEF7FEF02C060E0BF
:1024F00070E0CB011F910895991B79E004C0991FEA
:10250000961708F0961B881F7A95C9F7809508954D
:1025100097FB092E05260ED057FD04D014D00AD003
:10252000001C38F450954095309521953F4F4F4F02
:102530005F4F0895F6F790958095709561957F4F60
:102540008F4F9F4F0895A1E21A2EAA1BBB1BFD01BE
:102550000DC0AA1FBB1FEE1FFF1FA217B307E40782
:10256000F50720F0A21BB30BE40BF50B661F771FDA
:10257000881F991F1A9469F76095709580959095BA
:102580009B01AC01BD01CF0108952F923F924F9264
:102590005F926F927F928F929F92AF92BF92CF92F3
:1025A000DF92EF92FF920F931F93CF93DF93CDB7FC
:1025B000DEB7CA1BDB0B0FB6F894DEBF0FBECDBF74
:1025C00009942A88398848885F846E847D848C8445
:1025D0009B84AA84B984C884DF80EE80FD800C814E
:1025E0001B81AA81B981CE0FD11D0FB6F894DEBF31
:1025F0000FBECDBFED010895FB01DC0101900D92EE
:102600000020E1F70895AEE0B0E0E9E0F3E10C94DA
:10261000D3120D891E8986E08C831A8309838FEF7C
:102620009FE79E838D839E01275E3F4FCE010196DB
:102630006F89788DA9010E9427132F813885020F99
:10264000131FF80110822E96E4E00C94EF12ABE019
:10265000B0E0EDE2F3E10C94C5123C012B015A010C
:10266000FC0117821682838181FD03C06FEF7FEF2B
:10267000C6C19AE0892E1E010894211C311CF30169
:102680002381F20123FD859123FF81912F0188236E
:1026900009F4B2C1853239F423FD859123FF81917C
:1026A0002F01853229F490E0B3010E941A15E7CF7B
:1026B000982FFF24EE249924FFE1FF15D0F09B32E0
:1026C00069F09C3228F4903259F0933291F40EC0A4
:1026D0009D3249F0903369F441E024C052E0F52A7C
:1026E00084E0F82A28C098E0F92A25C0E0E1FE2A13
:1026F00022C0F7FC29C0892F80538A3070F4F6FE7F
:1027000005C0989C902C1124980E15C0E89CE02CD4
:102710001124E80EF0E2FF2A0EC09E3229F4F6FCE6
:102720006BC140E4F42A07C09C3619F450E8F52A3E
:1027300002C0983649F4F20123FD959123FF91914F
:102740002F01992309F0B8CF892F8554833018F0D1
:102750008052833038F444E050E0A40EB51E5FE3AD
:1027600059830FC0933631F0933779F0933509F0E0
:1027700056C020C0F5018081898342E050E0A40E5C
:10278000B51E610101E010E012C0F501C080D180EA
:10279000F6FC03C06FEF7FEF02C0692D70E042E0EE
:1027A00050E0A40EB51EC6010E940F158C015FE714
:1027B000F52214C0F501C080D180F6FC03C06FEF94
:1027C0007FEF02C0692D70E042E050E0A40EB51E1C
:1027D000C6010E9404158C0150E8F52AF3FE07C0DB
:1027E0001AC080E290E0B3010E941A15EA948E2D7F
:1027F00090E008171907A8F30EC0F601F7FC8591C1
:10280000F7FE81916F0190E0B3010E941A15E1106B
:10281000EA94015010400115110579F7EAC0943689
:1028200011F0993669F5F7FE08C0F5012081318174
:102830004281538184E090E00AC0F501808191815A
:102840009C01442737FD4095542F82E090E0A80E6C
:10285000B91E9FE6F92257FF09C050954095309563
:1028600021953F4F4F4F5F4FE0E8FE2ACA01B90163
:10287000A1012AE030E00E944615D82ED21840C0AF
:10288000953729F41F2D1F7E2AE030E01DC01F2D33
:10289000197F9F3661F0903720F4983509F0ACC06D
:1028A0000FC0903739F0983709F0A6C004C028E06F
:1028B00030E00AC0106114FD146020E130E004C073
:1028C00014FD166020E132E017FF08C0F5016081B9
:1028D00071818281938144E050E008C0F5018081DC
:1028E0009181BC0180E090E042E050E0A40EB51E72
:1028F000A1010E944615D82ED2188FE7F82EF1229A
:10290000F6FE0BC05EEFF522D91438F4F4FE07C0D2
:10291000F2FC05C08FEEF82202C01D2D01C0192D5A
:10292000F4FE0DC0FE01ED0DF11D8081803319F420
:1029300099EEF92208C01F5FF2FE05C003C08F2D7B
:10294000867809F01F5F0F2DF3FC14C0F0FE0FC056
:102950001E1510F09D2C0BC09D2C9E0C911A1E2D47
:1029600006C080E290E0B3010E941A151F5F1E1599
:10297000C0F304C01E1510F4E11A01C0EE2404FFD8
:102980000FC080E390E0B3010E941A1502FF1DC042
:1029900001FD03C088E790E00EC088E590E00BC021
:1029A000802F867891F001FF02C08BE201C080E2A7
:1029B000F7FC8DE290E0B3010E941A1506C080E397
:1029C00090E0B3010E941A159A94D914C0F3DA94D6
:1029D000F101ED0DF11D808190E0B3010E941A1507
:1029E000DD20A9F706C080E290E0B3010E941A152D
:1029F000EA94EE20C1F743CEF30166817781CB01E3
:102A00002B96E2E10C94E112FC01059061507040BC
:102A10000110D8F7809590958E0F9F1F0895FC01A7
:102A20006150704001900110D8F7809590958E0FFD
:102A30009F1F08950F931F93CF93DF938C01EB019A
:102A40008B8181FF1BC082FF0DC02E813F818C8155
:102A50009D812817390764F4E881F9810193F9838E
:102A6000E88306C0E885F985802F0995892B31F424
:102A70008E819F8101969F838E8302C00FEF1FEF8F
:102A8000C801DF91CF911F910F910895FA01AA27F4
:102A9000283051F1203181F1E8946F936E7F6E5FA1
:102AA0007F4F8F4F9F4FAF4FB1E03ED0B4E03CD04F
:102AB000670F781F891F9A1FA11D680F791F8A1F32
:102AC000911DA11D6A0F711D811D911DA11D20D099
:102AD00009F468943F912AE0269F11243019305D53
:102AE0003193DEF6CF010895462F4770405D419344
:102AF000B3E00FD0C9F7F6CF462F4F70405D4A3391
:102B000018F0495D31FD4052419302D0A9F7EACF58
:102B1000B4E0A6959795879577956795BA95C9F787
:102B200000976105710508959B01AC010A2E06947A
:102B30005795479537952795BA95C9F7620F731F33
:0C2B4000841F951FA01D0895F894FFCF7E
:102B4C002D002E004572726F720043757272656EA5
:102B5C00742074656D703A202532640053657420BE
:102B6C007461726765743A202025326400476F20C7
:102B7C006261636B003E00202043757272207469A1
:102B8C006D653A20253032643A2530326425634D28
:102B9C000020205365742074696D653A202025301F
:102BAC0032643A2530326425634D002020476F2073
:102BBC006261636B20202020202020202020200018
:102BCC00200020205365742074696D653A202530EF
:102BDC0032643A2530326425634D0020202532645E
:102BEC0020646567204620494E202020202020208C
:102BFC00002020253264206465672046204F555400
:102C0C0020202020202000202042726967687465F3
:102C1C00723A20494E202020202020002020427291
:102C2C006967687465723A204F5554202020202023
:102C3C000020204272696768746E6573733A205382
:102C4C00414D452020000101202020202020202063
:102C5C00202020202020202020202020000802FFDF
:102C6C00FF0100202D427269676874427265657AB3
:102C7C0065206D656E752D0020205F5F2064656793
:102C8C00204620494E202020202020200020205F9C
:102C9C005F206465672046204F555420202020205B
:102CAC002000202042726967687465723A205B6963
:102CBC006E2F6F75745D0020205365742074696DE0
:102CCC00652020202020202020202000202053655B
:102CDC0074207461726765742074656D7020202097
:102CEC000020205365742077616B657570207469C2
:102CFC006D6520202000202053657420626564746B
:102D0C00696D652020202020202000230238024DF0
:102D1C0002620277028C02A102B6020000000000DF
:102D2C000000000001020203030303040404040472
:102D3C00040404050505050505050505050505053A
:102D4C00050505060606060606060606060606061A
:102D5C000606060606060606060606060606060607
:102D6C0006060607070707070707070707070707EA
:102D7C0007070707070707070707070707070707D7
:102D8C0007070707070707070707070707070707C7
:102D9C0007070707070707070707070707070707B7
:102DAC00070707080808080808080808080808089A
:102DBC000808080808080808080808080808080887
:102DCC000808080808080808080808080808080877
:102DDC000808080808080808080808080808080867
:102DEC000808080808080808080808080808080857
:102DFC000808080808080808080808080808080847
:102E0C000808080808080808080808080808080836
:102E1C000808080808080808080808080808080826
:042E2C00080808008A
:00000001FF
