:100000000C9434000C943E000C943E000C943E0082
:100010000C943E000C943E000C943E000C943E0068
:100020000C943E000C943E000C943E000C943E0058
:100030000C943E000C943E000C943E000C943E0048
:100040000C943E000C943E000C943E000C943E0038
:100050000C943E000C943E000C943E000C943E0028
:100060000C943E000C943E0011241FBECFEFD8E04C
:10007000DEBFCDBF0E945F000C94A9000C9400006D
:10008000409888EE93E025EF30E0F9013197F1F7E1
:100090000197D9F7409A80E197E225EF30E0F90126
:1000A0003197F1F70197D9F7409888EE93E025EF63
:1000B00030E0F9013197F1F70197D9F708950F93DF
:1000C0001F93CF93DF93559A389A82EA80938000EA
:1000D0008BE18093810080E49CE99093870080937A
:1000E00086008CED95E0909389008093880020E055
:1000F00030E000E010EC14C0C901880F991F880F90
:10010000991F820F931F82519D4F959587959093CC
:10011000890080938800C8010197F1F72F5F3F4F56
:10012000243B31054CF3C2E7D6E0CE019595879587
:100130009093890080938800C8010197F1F70E948D
:100140004000259782E0C93ED80779F720E030E0EB
:06015000E7CFF894FFCF99
:00000001FF
