:100000000C9434000C9451000C9451000C94510049
:100010000C9451000C9451000C9451000C9451001C
:100020000C9451000C9451000C9451000C9451000C
:100030000C9451000C9451000C9451000C945100FC
:100040000C9451000C9451000C9451000C945100EC
:100050000C9451000C9451000C9451000C945100DC
:100060000C9451000C94510011241FBECFEFD8E026
:10007000DEBFCDBF14E0A0E0B1E0E0E7F3E302C0F3
:1000800005900D92A03BB107D9F714E0A0EBB4E0C6
:1000900001C01D92AD3EB107E1F70E94F40D0C9432
:1000A000B6190C94000087B1807F87B9599A589887
:1000B00023E05E9A822F8A95F1F786B15E98922F9F
:1000C0009A95F1F75E9A922F9A95F1F75E98922F92
:1000D0009A95F1F783FDEDCF5998589A87B18F60C3
:1000E00087B908950F931F93082F162F0E9453006E
:1000F000112359F45898003811F0013061F481E06F
:100100008093CA028093CB0206C0589A8091CA029B
:100110008F5F8093CA02599898B1802F82958F7013
:10012000892B88B95E9A93EA892F8A95F1F75E98B0
:1001300088B1807F88B988B10F70802B88B95E9AAA
:100140009A95F1F75E9888B1807F88B91F910F91D9
:10015000089561E00E947200089561E00E947200BB
:100160000895682F88EE93E025EF30E0F90131978C
:10017000F1F70197D9F787B18F6087B988B1807F90
:1001800088B9509A519A8AB183648AB95E9859980D
:10019000589888B1836088B95E9A93EA892F8A95C6
:1001A000F1F75E9888B1807F88B940E050E6FA01A7
:1001B0003197F1F788B1836088B95E9A892F8A9563
:1001C000F1F75E9888B1807F88B929E939E0F901B3
:1001D0003197F1F788B1836088B95E9A892F8A9543
:1001E000F1F75E9888B1807F88B9F9013197F1F70E
:1001F000419A5E9A892F8A95F1F75E9888B1807F3F
:1002000088B9F9013197F1F7419A5E9A892F8A9559
:10021000F1F75E9888B1807F88B9F9013197F1F7DD
:10022000439A5E9A892F8A95F1F75E9888B1807F0C
:1002300088B9F9013197F1F7409A5E9A892F8A952A
:10024000F1F75E9888B1807F88B9E0E0F0E33197FC
:10025000F1F788B1866088B95E9A892F8A95F1F79F
:100260005E9888B1807F88B9F9013197F1F788B13C
:100270008C6088B9F9013197F1F788B1807F88B92E
:100280005E9A892F8A95F1F75E98419A5E9A9A95BF
:10029000F1F75E9888B1807F88B9CA010197F1F7BC
:1002A000862F8C6060E00E94720081E060E00E9416
:1002B000720080E860E00E94720008950F931F931F
:1002C000182F062F0E945300812F81508E3F08F077
:1002D00011E01093CA020093CB02023051F00230B9
:1002E00030F0043051F0043030F00F3F39F4115049
:1002F00005C0115C03C01D5E01C01D5A812F8068BE
:1003000060E00E9472001F910F9108958091CA02CF
:1003100061E00E945E0185EA61E00E9472008091C6
:10032000CA02815062E00E945E0185EA61E00E949B
:10033000720008950F931F93CF93DF93EC0111E0A8
:1003400001E023C01531E0F0013031F481E062E0DA
:100350000E945E0102E00FC0023031F481E063E0F0
:100360000E945E0103E007C0033029F481E064E0ED
:100370000E945E0104E08881803209F4219611E038
:10038000899161E00E9472001F5F88811816D4F283
:10039000DF91CF911F910F9108958F929F92AF920D
:1003A000BF92CF92DF92EF92FF920F931F93DF9352
:1003B000CF93CDB7DEB72C970FB6F894DEBF0FBE44
:1003C000CDBF4B015C01142F00E061157105810563
:1003D000910509F401E0C501B4010BC00F5F2AE0EB
:1003E00030E040E050E00E949A16C901DA01BC01F9
:1003F000CD01611571058105910581F7402FB7FC8D
:1004000004C075016401BB240AC0CC24DD2476013C
:10041000C818D908EA08FB080F5FBB24B394FE0193
:1004200031968AE0DF011D928A95E9F7141B412F6E
:1004300017FD40E0102F140F20C01A3088F4FE0181
:10044000E10FF11DFC87EB87C701B6012AE030E020
:1004500040E050E00E949A16605DAB85BC856C93CD
:10046000C701B6012AE030E040E050E00E949A1651
:10047000C901DA016C017D0111501123F1F6BB2095
:1004800011F08DE28983CE0101960E949A012C968B
:100490000FB6F894DEBF0FBECDBFCF91DF911F9195
:1004A0000F91FF90EF90DF90CF90BF90AF909F9013
:1004B0008F9008956F927F928F929F92AF92BF928A
:1004C000CF92DF92EF92FF920F931F937B018C01EB
:1004D000642E822E222319F48824839405C087E099
:1004E000821710F487E0882E982C0F2EF0E0AF2EA4
:1004F000F0E0BF2EF0E0CF2EFFE3DF2EF02DC6019F
:10050000B50120E030E040E251E40E9462125B015C
:100510006C019A94A1F7C801B70120E030E040E0F7
:1005200050E00E943E1387FD02C0772406C017FBEF
:10053000109517F9109577247394C801B701A60197
:1005400095010E943B117B018C010E94CC135B0141
:100550006C010E946E139B01AC01C801B7010E949F
:100560000A117B018C01982CC801B70120E030E012
:1005700040E251E40E9468117B018C019A94A1F73A
:10058000772089F0D094C094B094A094A11CB11CA1
:10059000C11CD11CA114B104C104D10421F480E018
:1005A00091E00E949A01C601B501462D0E94CD013D
:1005B00082E091E00E949A01C801B7010E94CC1329
:1005C000482D0E94CD011F910F91FF90EF90DF9079
:1005D000CF90BF90AF909F908F907F906F90089535
:1005E0005E9A83EA8A95F1F75E980895BF92CF925A
:1005F000DF92EF92FF920F931F93CF93DF93B82E6A
:10060000FB01D901E7014115510531F4011511052F
:1006100019F490E080E054C084EA8093BC0080919B
:10062000BC0087FFFCCF9091B900987F983009F00B
:100630009FC08B2D8E7F8093BB0084E88093BC008D
:100640008091BC0087FFFCCF9091B900987F9831D2
:10065000B1F0903209F08CC088C080818093BB00DB
:100660002093BC008091BC0087FFFCCF9091B90023
:10067000987F415050409832C9F4319601C024E827
:100680004115510551F716C08C918093BB00209302
:10069000BC008091BC0087FFFCCF9091B900987F8F
:1006A00001501040983211F4119605C0903309F0B2
:1006B0005FC05BC024E80115110531F791E081E0CE
:1006C000C114D10409F44EC0882311F428E001C0FC
:1006D00020E184EA8093BC008091BC0087FFFCCFBE
:1006E0009091B900987F921709F042C081E0B82A32
:1006F000B092BB0084E88093BC008091BC0087FF6F
:10070000FCCF9091B900987F903419F0983481F51E
:100710002CC00894C108D10824EC11C02093BC005F
:100720008091BC0087FFFCCF9091B900987F08941E
:10073000C108D1089035E1F48091BB008993C114C0
:10074000D10461F784E88093BC008091BC0087FFEE
:10075000FCCF9091B900987F983551F48091BB00FF
:10076000888302C0992321F090E084E98093BC0043
:10077000892FDF91CF911F910F91FF90EF90DF9024
:10078000CF90BF9008951092B9008093B80008955B
:10079000CF92DF92EF92FF920F931F93DF93CF934D
:1007A0000F92CDB7DEB71982009711F481E003C034
:1007B000019711F482E0898380EE60E070E040E010
:1007C00050E09E012F5F3F4F01E010E0EE24FF2438
:1007D000CC24DD240E94F6020F90CF91DF911F916F
:1007E0000F91FF90EF90DF90CF9008952F923F925E
:1007F0004F925F926F927F928F929F92AF92BF9231
:10080000CF92DF92EF92FF920F931F93DF93CF93DC
:1008100000D00F92CDB7DEB7AA24BB2453E0452EFB
:10082000512C4C0E5D1E4E010894811C911C42E01F
:10083000642E712C6C0E7D1E33E1232E21EA322EA4
:10084000C5010E94C80382EB898382E560E070E005
:1008500040E050E0940101E010E0720191E0C92E07
:10086000D12C0E94F6028B818035C1F481E08A830D
:1008700080EA898382E5B40141E050E09301EE24EF
:10088000FF24CC24DD240E94F6022A82398282E5EC
:10089000B40141E050E093010E94F6020894A11CCB
:1008A000B11C82E0A816B10459F60F900F900F907A
:1008B000CF91DF911F910F91FF90EF90DF90CF903C
:1008C000BF90AF909F908F907F906F905F904F9070
:1008D0003F902F9008956F927F928F929F92AF9248
:1008E000BF92CF92DF92EF92FF920F931F93DF930D
:1008F000CF93CDB7DEB727970FB6F894DEBF0FBE04
:10090000CDBF0E94C80383E08A8380EA898382E5A1
:100910004E010894811C911CB40141E050E09E01FD
:100920002E5F3F4F01E010E0EE24FF24CC24DD24B5
:100930000E94F60283EB898323E0A22EB12CAC0E39
:10094000BD1E82E5B40141E050E020E030E000E06F
:1009500010E0750191E0C92ED12C0E94F602B3EB94
:100960006B2E7A2CAB2C10C0698282E5B40141E079
:1009700050E020E030E000E010E0E72CFA2CA1E0AD
:10098000CA2ED12C0E94F6028B8180FFEDCF84EB22
:10099000898382E560E070E040E050E0940101E08E
:1009A00010E0F4E0EF2EF12CEC0EFD1EE4E0CE2E74
:1009B000D12C0E94F6029D8180E0AC80BB24A82A45
:1009C000B92A9F8180E02E8130E0822B932BA81AD8
:1009D000B90A80EA898381E08A8382E5B40141E033
:1009E00050E09E012E5F3F4FEE24FF24CC24DD24F7
:1009F0000E94F602C50127960FB6F894DEBF0FBE1F
:100A0000CDBFCF91DF911F910F91FF90EF90DF90BD
:100A1000CF90BF90AF909F908F907F906F900895F0
:100A20009B01281B390B48EF203334071CF0215D54
:100A3000374064F08617970718F421E030E008C0CB
:100A40006817790718F42FEF3FEF02C020E030E07D
:100A5000C9010895529820980895882341F4529A24
:100A60005A9880E090EC0197F1F75A9A08958130F6
:100A700039F4209A289880E090EC0197F1F7289AB1
:100A80000895882341F452984A99FECF4A9BFECF9D
:100A90004A99FECF0895813039F420981899FECFF5
:100AA000189BFECF1899FECF08958823A9F4809152
:100AB000B00420E032E64A9BFECF932F9A95F1F7DF
:100AC0004A9B03C0880F816001C0880F4A99FECFFE
:100AD0002F5F283081F716C08130B1F48091B004C7
:100AE00020E032E6189BFECF932F9A95F1F7189BE2
:100AF00003C0880F816001C0880F1899FECF2F5F57
:100B0000283081F78093B0048091B0040895EF926B
:100B1000FF920F931F93CF93DF93182F0E942D0501
:100B2000812F0E944105812F0E9455058093E30487
:100B3000812F0E9455058093DF04812F0E94550567
:100B40008093E204812F0E9455058093E704812F52
:100B50000E9455058093E0046091E2042091E7042F
:100B6000C22FD0E04091DF042091E30430E0240F55
:100B7000311D260F311D2C0F3D1F90E0281739071E
:100B800051F081E061E00E945E0184E091E00E940A
:100B90009A0180E029C070E080E090E00E9420147B
:100BA0007B018C01BE01882777FD8095982F0E94DC
:100BB0006E132DEC3CEC4CEC5DE30E9468119B0144
:100BC000AC01C801B7010E943B1126E636E646EEAD
:100BD0005FE30E94681120E030E040E052E40E94B0
:100BE0003B110E94920F862FDF91CF911F910F91A1
:100BF000FF90EF900895992787FD909535E09695A1
:100C000087953A95E1F781700895282F22952F70E6
:100C10009AE0299F900111248F70820F0895482F28
:100C20006AE00E948E16282F30E054E0220F331F16
:100C30005A95E1F7842F0E948E16892F820F08950E
:100C4000AF92BF92CF92DF92EF92FF920F931F93DA
:100C5000DF93CF9300D000D0CDB7DEB78C835B019C
:100C600080EDBE016C5F7F4F41E050E020E030E05E
:100C700000E010E0EE24FF24CC24DD240E94F602E4
:100C800081ED60E070E040E050E020E030E07E0187
:100C90000894E11CF11CE3E0CE2ED12C0E94F60258
:100CA00089818093C0048A818093C3048B8180935F
:100CB000DD048C3049F4F5018081803511F481E444
:100CC00002C080E5F50180830F900F900F900F9088
:100CD000CF91DF911F910F91FF90EF90DF90CF9018
:100CE000BF90AF900895CF92DF92EF92FF920F9353
:100CF0001F93DF93CF9300D000D0CDB7DEB7082F7E
:100D0000162F842F19820E940F068A83812F0E943A
:100D10000F068B83802F0E940F068C8380EDBE010F
:100D20006F5F7F4F44E050E020E030E000E010E0F3
:100D3000EE24FF24CC24DD240E94F6020F900F90B5
:100D40000F900F90CF91DF911F910F91FF90EF9037
:100D5000DF90CF900895279A2F9808952F9A08959D
:100D60002F9808955498089529B130E0F4E036950D
:100D70002795FA95E1F721703070C9010895559AC9
:100D800084B5836284BD84B58F7E84BD85B588605B
:100D900085BD85B5846085BD85B58D7F85BD85B5EF
:100DA0008E7F85BD89EF87BD80E888BD0895539A01
:100DB000E0EBF0E0808183608083808180628083CB
:100DC00089EF8093B30080E88093B400E1EBF0E01A
:100DD00080818460808380818260808380818E7F37
:100DE00080830895DB018130A1F48C91882329F55B
:100DF00029E145EF50E028BD88EE93E0FA013197F4
:100E0000F1F70197D9F72F5F2E37A9F781E08C937F
:100E10000895882391F48C91882379F02DE745EF8C
:100E200050E028BD88EE93E0FA013197F1F7019781
:100E3000D9F721502831A9F71C920895DB018130A0
:100E4000A9F48C91882339F529E145EF50E02093EE
:100E5000B40088EE93E0FA013197F1F70197D9F7E2
:100E60002F5F2E37A1F781E08C930895882399F4A2
:100E70008C91882381F02DE745EF50E02093B4005A
:100E800088EE93E0FA013197F1F70197D9F72150F5
:100E90002831A1F71C920895249A2C9808952C9A31
:100EA00008952C98089589B1881F8827881F089570
:100EB00083B190E0969587958170089583B190E015
:100EC00096958795969587958170089580E090E333
:100ED0000197F1F74F9904C0199902C01A9B04C0F9
:100EE00080E090E30197F1F708951F93182F81E0B8
:100EF000612F0E945E018091E1029091E2020E94C6
:100F00009A0181E0612F0E945E011F91089581E0A6
:100F100061E00E945E018AE091E00E949A0181E016
:100F200062E00E945E018FE191E00E949A0181E0FF
:100F300063E00E945E0184E391E00E949A0181E0F7
:100F400064E00E945E0189E491E00E949A010895A4
:100F50001A9904C04F9902C0199B13C08091BE0416
:100F60002CE3829FC00111242091C604820F911DA1
:100F70009093E6048093E5041092B6041092B504B1
:100F800008958091C60490E02091E5043091E60434
:100F9000821B930B2091BE044CE3249F90011124EB
:100FA000820F931F9093B6048093B50408959CE339
:100FB000899F90011124260F311DC9010895EF92D8
:100FC0000F933E2D9CE3899FF0011124E60FF11D44
:100FD000299FC0011124800F911D403511F4E05369
:100FE000FD4F303511F480539D4F8E179F0718F435
:100FF00021E030E008C0E817F90718F020E030E001
:1010000002C02FEF3FEFC9010F91EF9008956F924B
:101010007F928F929F92AF92BF92DF92EF92FF9258
:101020000F931F93CF93DF933C014B015A0180E054
:1010300062EC74E00E9420068091DD048F710E94B2
:101040000506182F8093BE048091C3040E940506F4
:10105000D82E8093C604F090BD048091E404609182
:10106000E1044F2D27E000E050E5E52E0E94DF0768
:10107000019719F0C0E0D0E00CC020E08091B904E5
:101080009091BA04039708F021E081E02827C22F4D
:10109000D0E0812F6D2D4F2D2091EA040091BB04EB
:1010A000E090C5040E94DF07019761F4812F6D2D48
:1010B0004F2D2BE00BE330E5E32E0E94DF078F5F1F
:1010C0009F4FF1F0812F6D2D4F2D20E000E091E436
:1010D000E92E0E94DF07019719F020E030E012C0EE
:1010E000812F6D2D4F2D2091B7040091C404E09005
:1010F000E8040E94DF0720E030E08F5F9F4F11F48B
:1011000021E030E0E9B1D4016C91603550F0D501B7
:101110008C91803530F08091B9049091BA04039796
:1011200030F040E050E08091C104861710F441E0B7
:1011300050E0232B89F02F9880E069EE74E00E9444
:101140001E0780E06EED74E00E94F2062C9810926B
:10115000BA041092B90453C06D2D70E0E4FF0FC0C3
:101160008CE3189FC0011124860F971F9093EC0405
:101170008093EB041092BA041092B90410C08091CD
:10118000EB049091EC04681B790B8CE3189FC00171
:101190001124680F791F7093BA046093B904452B2A
:1011A00019F02F9A80E010C02F98F5014081D401EA
:1011B0008C91481768F48091B9049091BA04039710
:1011C00038F4413428F081E069EE74E00E941E0793
:1011D000CD2B19F02C9A80E00EC02C98F301808161
:1011E00091818F5F9F4F59F48091B9049091BA0417
:1011F000039728F481E06EED74E00E94F206DF911F
:10120000CF911F910F91FF90EF90DF90BF90AF9023
:101210009F908F907F906F9008950F931F93CF931F
:10122000DF9385E08093B7041092C40481E4809337
:10123000E8048AE08093EA041092BB0490E590935E
:10124000C50483E08093E4041092E1049093C20407
:1012500080E090E00E946B048C0181E090E00E94AD
:101260006B04BC01C8010E941005EC0181E061E043
:101270000E945E01C130D10531F48EE591E00E94FB
:101280009A012F9A0BC0CF5FDF4F19F483E791E0EB
:1012900002C088E891E00E949A012F9881E062E004
:1012A0000E945E0181E00E94870500D000D000D03E
:1012B000EDB7FEB7319609EC14E0ADB7BEB71296A4
:1012C0001C930E9311972DE931E03383228384839D
:1012D00015820E9415178DB79EB706960FB6F89423
:1012E0009EBF0FBE8DBFC8010E949A0181E063E0DE
:1012F0000E945E0180E00E94870500D000D000D0EF
:10130000EDB7FEB73196ADB7BEB712961C930E93EC
:10131000119724EB31E033832283848315820E946A
:1013200015178DB79EB706960FB6F8949EBF0FBEE1
:101330008DBFC8010E949A0181E064E00E945E01B5
:101340004C9B03C08BEC91E002C080EE91E00E94C8
:101350009A01DF91CF911F910F910895AF92BF92A3
:10136000DF92EF92FF920F931F93CF93DF9381E071
:1013700062E00E945E0100D000D000D0EDB7FEB761
:10138000319609EC14E0ADB7BEB712961C930E93DC
:10139000119785EF91E0938382838091C1048483C8
:1013A00015820E9415178DB79EB706960FB6F89452
:1013B0009EBF0FBE8DBFC8010E949A0181E063E00D
:1013C0000E945E0189E092E00E949A0175EFE72E8B
:1013D000F12CD02E012F62E2A62E62E0B62EC2E0E2
:1013E000D0E01C2F81E06C2F0E945E018EE192E024
:1013F0000E949A01C230D105A9F484EF91E0F7016F
:101400003197F1F70197D9F71A9B09C081E0612F55
:101410000E945E0180E292E00E949A0117C0199931
:1014200068C0DFCF84EF91E0F7013197F1F70197C2
:10143000D9F74F9B09C081E063E00E945E0180E222
:1014400092E00E949A01CBCF199903C0C3E0D0E08B
:10145000C8CF81E0612F0E945E0180E292E00E948D
:101460009A01DF91CF911F910F91FF90EF90DF9044
:10147000BF90AF900895F7013197F1F70197D9F731
:1014800000D000D000D0EDB7FEB73196ADB7BEB7F3
:101490001196DC92119712960C93B382A2828091DE
:1014A000C104848315820E9415178DB79EB70696D6
:1014B0000FB6F8949EBF0FBE8DBF81E062E00E9420
:1014C0005E018D2D902F0E949A0180E162E00E94C2
:1014D0005E014F9B04C08091C1048F5F05C01A9BC1
:1014E00006C08091C10481508093C10402C0199943
:1014F00076CF84EF91E0BFCF2F923F924F925F92D1
:101500006F927F928F929F92AF92BF92CF92DF9213
:10151000EF92FF920F931F93DF93CF9300D000D0F1
:101520000F92CDB7DEB71C012B013A0181E060E0DC
:101530000E947200D101AC90F201B080D3019C9066
:101540001092BF041092C7041092B8041092BC0409
:10155000EDB7FEB73A970FB6F894FEBF0FBEEDBFDA
:10156000319609EC14E0ADB7BEB712961C930E93FA
:10157000119799E3C92E92E0D92ED382C282D1016C
:101580008C9184831582D2018C9186831782D3013A
:101590008C91992787FD9095918780870E941517D8
:1015A000EDB7FEB73A960FB6F894FEBF0FBEEDBF8B
:1015B00080E860E00E947200C8010E949A0181E008
:1015C00062E00E945E018DB79EB70A970FB6F8944D
:1015D0009EBF0FBE8DBFEDB7FEB73196ADB7BEB79C
:1015E00012961C930E93119783E5E82E82E0F82E55
:1015F000F382E282A4821582B6821782892D99270E
:1016000087FD9095918780870E941517EDB7FEB7EB
:101610003A960FB6F894FEBF0FBEEDBFC8010E9408
:101620009A0181E063E00E945E0189E092E00E94FD
:101630009A0182E090E09D838C83802E012FC982E5
:10164000DA8215EFC12ED12CEB82EF2CADB7BEB7ED
:101650001A970FB6F894BEBF0FBEADBFEDB7FEB779
:10166000319611968C92119712960C93B981B28390
:101670008A818383D1018C9184831582D2018C91DC
:1016800086831782D3018C91992787FD9095918746
:1016900080870E941517EDB7FEB73A960FB6F894FB
:1016A000FEBF0FBEEDBF80E860E00E947200882D93
:1016B000902F0E949A011C8181E0612F0E945E019F
:1016C0008EE192E00E949A018C819D810297F1F453
:1016D00084EF91E0F6013197F1F70197D9F71A9B62
:1016E0000DC081E062E00E945E0180E292E00E9413
:1016F0009A01A3E0B0E0BD83AC83E5C0199BE3C0D1
:1017000081E08093BC048093BF04DDC084EF91E04E
:10171000F6013197F1F70197D9F74F9B0DC081E0A2
:1017200063E00E945E0180E292E00E949A01E2E0A2
:10173000F0E0FD83EC83C7C0199905C083E090E019
:101740009D838C83C0C081E0612F0E945E0180E296
:1017500092E00E949A0180ED97E025EF30E0F901D8
:101760003197F1F70197D9F7BAC088EE93E0F60107
:101770003197F1F70197D9F7ADB7BEB71A970FB602
:10178000F894BEBF0FBEADBFEDB7FEB73196119650
:101790008C92119712960C93BB81B283E382A48240
:1017A0001582B6821782892D992787FD909591879A
:1017B00080870E941517EDB7FEB73A960FB6F894DA
:1017C000FEBF0FBEEDBF81E062E00E945E01882D8A
:1017D000902F0E949A0181E162E00E945E014F9B7E
:1017E00021C08091BF04882339F0FBE3BF1611F4B8
:1017F000BB2469C0B39467C08091C704882341F0BB
:101800008CE0A81619F4AA24A3945DC0A3945BC02D
:101810008091B804882309F456C091E4991609F020
:1018200050C04CC01A9B1FC08091BF04882339F060
:10183000BB2019F4BBE3BB2E46C0BA9444C08091D0
:10184000C704882341F0A1E0AA1619F4ACE0AA2E3F
:101850003AC0AA9438C08091B8048823A1F1B1E4B9
:101860009B1679F52BC0199B2EC08091BF0488234D
:1018700031F01092BF0481E08093C70424C08091AE
:10188000C704882351F08EE062E00E945E0110924E
:10189000C70481E08093B80416C08091B8048823FF
:1018A00091F082E161E00E945E011092B804109212
:1018B000BC04E2E0F0E0FD83EC830AC0F0E59F2E7B
:1018C00002C0E1E49E2E8091BC04882309F04DCF34
:1018D000D101AC92F201B082D3019C92B7CE0F90AD
:1018E0000F900F900F900F90CF91DF911F910F915C
:1018F000FF90EF90DF90CF90BF90AF909F908F9030
:101900007F906F905F904F903F902F9008958F92AF
:101910009F92AF92BF92CF92DF92EF92FF920F937E
:101920001F93CF93DF936C01EB017A018091B40494
:101930008093C804E3E88E2EE2E09E2E7DE6A72E7B
:1019400072E0B72E7EC08091A203081708F074C021
:101950000130B1F400D000D000D0EDB7FEB7319621
:10196000AA0FBB1FAE56BC4F8D919C91ADB7BEB7B1
:1019700012969C938E931197B382A282888118C08D
:10198000023019F500D000D000D0EDB7FEB7319687
:10199000AA0FBB1FAE56BC4F8D919C91ADB7BEB781
:1019A00012969C938E93119793828282D7018C9189
:1019B000848315820E941517EDB7FEB736960FB6D1
:1019C000F894FEBF0FBEEDBF26C0033021F5F6012F
:1019D000808191818130910549F4AA0FBB1FAE56D9
:1019E000BC4F8D919C916EE571E013C0FD01EE0F2F
:1019F000FF1F8F5F9F4F39F4EE56FC4F808191811E
:101A000063E771E006C0EE56FC4F8081918169E981
:101A100072E00E940E170F5F011B81E0602F0E9491
:101A20005E01E091C804F0E0EE0FFF1FEE56FC4FA0
:101A3000808191810E949A018091C8048F5F809378
:101A4000C8040091C804A02FB0E01091B404812F05
:101A500090E003968A179B070CF075CF1A9B1CC069
:101A60002091B1043091B2048091A20390E00197DB
:101A7000281739078CF42F5F3F4F3093B20420931F
:101A8000B1048091A5039091A6038430910514F4CC
:101A9000019618C01F5F1CC04F9B1DC08091B104F0
:101AA0009091B20482309105B4F001979093B20402
:101AB0008093B1048091A5039091A6038230910593
:101AC00034F001979093A6038093A50377C011503B
:101AD0001093B40473C0199B71C08091B1049091AC
:101AE000B2049093A4038093A3038430910511F56D
:101AF00080E062EC74E00E9420068091DD048F712A
:101B00000E9405068093E4048091C3040E940506A8
:101B10008093E10484EE94E061EE74E042EC54E0E2
:101B20000E947C0A8091E4046091E10440E00E94FC
:101B3000730644C08530910569F581E060E00E943C
:101B4000720000D000D000D0EDB7FEB7319609EC9E
:101B500014E0ADB7BEB712961C930E9311978EEAA0
:101B600092E0938382838881848315820E94151773
:101B7000EDB7FEB736960FB6F894FEBF0FBEEDBFB9
:101B800080E860E00E947200C8010E949A010E94F1
:101B9000AE0914C08630910539F487EB94E064EC0B
:101BA00074E048EE54E008C0079741F48AEE94E0F0
:101BB0006BEB74E045EC54E00E947C0A81E060919C
:101BC000A5030E945E018EE192E00E949A01DF91DE
:101BD000CF911F910F91FF90EF90DF90CF90BF902A
:101BE000AF909F908F9008957F928F929F92AF9227
:101BF000BF92CF92DF92EF92FF920F931F93DF93EA
:101C0000CF9300D000D0CDB7DEB780E00E94B10006
:101C100081E060E00E94720080E860E00E94720053
:101C20000E94870780E197E225EF30E0F9013197C4
:101C3000F1F70197D9F71092B9008AE28093B800C2
:101C40008CE060E040E00E9473060E94F603549826
:101C50001092BA041092B9041092EC041092EB04A2
:101C6000529820981092E9041092DE040E94BF0658
:101C700080E06EED74E00E94F2060E94D70680E0DC
:101C800069EE74E00E941E07279A2F98249A2C98D8
:101C900080E062EC74E00E9420068091DD048F7188
:101CA0000E9405068093E4048091C3040E94050607
:101CB0008093E10490E59093C2048AE08093EA0463
:101CC0001092BB049093C50485E08093B7041092F2
:101CD000C40481E48093E8048FE48093C1041092EB
:101CE000E6041092E5041CE3712EB3E0AB2EB12C98
:101CF000AC0EBD1EA2E0CA2ED12CCC0EDD1E7E0184
:101D00000894E11CF11CF5EF8F2E912C80E090E0FF
:101D10000E946B048C0181E090E00E946B04BC0186
:101D2000C8010E9410059C838B8381E00E94870577
:101D3000898380E00E9487058A834F9904C01A999D
:101D400002C0199B15C081E08093B3048091E40424
:101D5000879DC00111242091E104820F911D909371
:101D6000E6048093E5041092B6041092B50414C002
:101D70008091E10490E02091E5043091E604821B1B
:101D8000930B2091E404279D90011124820F931F4F
:101D90009093B6048093B5048091B5049091B604F5
:101DA000039710F01092B3048091B304882331F0AC
:101DB000C501B701A6010E94870C12C081E060E056
:101DC0000E94720080E860E00E94720089EC94E05A
:101DD00060EC72E00E940E1789EC94E00E949A0178
:101DE000C501B701A6010E94070888E893E1F40144
:101DF0003197F1F70197D9F789CF2F923F924F9200
:101E00005F926F927F928F929F92AF92BF92CF928A
:101E1000DF92EF92FF920F931F93CF93DF936C01AA
:101E2000DC010D900020E9F77D010894E108F1083C
:101E3000E81AF90A81E060E00E94720084E161E042
:101E40000E945E018601882483949924939423E15F
:101E5000722E94E1492E512C4E0C5F1C85EF282EDA
:101E6000312C6E2C41C0899161E00E9472009E016C
:101E7000201B2915C0F380ED97E0F1013197F1F7B0
:101E80000197D9F781E060E00E94720033E13815D4
:101E900048F0AE14BF0430F4872D61E00E945E016B
:101EA00093941FC0882D90E0A5E1EA16F10438F064
:101EB0000196E816F90628F004E1902E03C0449735
:101EC0005CF09A948501035110400C0D1D1D81E0BA
:101ED00061E00E945E0106C0962C872D61E00E94A1
:101EE0005E01860183947A94A82CBB24A414B504C3
:101EF00010F4E801BCCF80E860E00E947200DF913E
:101F0000CF911F910F91FF90EF90DF90CF90BF90F6
:101F1000AF909F908F907F906F905F904F903F9089
:101F20002F900895EF92FF920F931F937B018C01E6
:101F300020E030E040E05FE40E940E1388238CF044
:101F4000C801B70120E030E040E05FE40E940A11E0
:101F50000E94CC139B01AC012050304040405048BF
:101F600006C0C801B7010E94CC139B01AC01B901A6
:101F7000CA011F910F91FF90EF900895A0E0B0E08B
:101F8000E4ECFFE00C94D716DC012B01FA019C91E4
:101F9000923008F439C1EB018881823008F433C1F2
:101FA000943069F4843009F02FC111969C911197F7
:101FB0008981981709F428C1A7EAB3E025C18430C4
:101FC00009F421C18230A9F4923009F01DC19A01AF
:101FD000AD0188E0EA010990AE01E90109929E0194
:101FE0008150C1F7E201898111969C9189238183F7
:101FF00008C1923009F407C112962D903C901397B6
:10200000EB018A819B811496AD90BD90CD90DC90C0
:102010001797EC80FD800E811F819101281B390BE1
:10202000B90137FF04C066277727621B730B603244
:1020300071050CF061C0121613066CF537014801EA
:10204000062E04C096948794779467940A94D2F7E6
:1020500021E030E040E050E004C0220F331F441F75
:10206000551F6A95D2F721503040404050402E21F4
:102070003F2140235123211531054105510521F010
:1020800021E030E040E050E079018A01E628F728BD
:10209000082919293CC0232BD1F1260E371E350102
:1020A0004601062E04C096948794779467940A9408
:1020B000D2F721E030E040E050E004C0220F331FAF
:1020C000441F551F6A95D2F7215030404040504080
:1020D0002A213B214C215D21211531054105510566
:1020E00021F021E030E040E050E059016A01A628EB
:1020F000B728C828D9280BC0821593052CF01C01DD
:10210000AA24BB24650103C0EE24FF248701119695
:102110009C91D20111968C91981709F445C099238E
:1021200039F0A80197012A193B094C095D0906C03D
:10213000A60195012E193F09400B510B57FD08C010
:1021400011823382228224833583468357831DC0C4
:1021500081E081833382228288279927DC01821BD8
:10216000930BA40BB50B84839583A683B7830DC013
:10217000220F331F441F551F248335834683578303
:102180008281938101979383828324813581468163
:102190005781DA01C9010197A109B1098F5F9F4FEA
:1021A000AF4FBF4328F30BC0918333822282EA0CE6
:1021B000FB1C0C1D1D1DE482F5820683178383E042
:1021C0008083248135814681578157FF1AC0C90118
:1021D000AA2797FDA095BA2F81709070A070B0705B
:1021E0005695479537952795822B932BA42BB52B86
:1021F00084839583A683B783828193810196938399
:102200008283DF0101C0D201CD01CDB7DEB7E2E1AB
:102210000C94F316A0E2B0E0E0E1F1E10C94E316D7
:1022200069837A838B839C832D833E834F83588776
:10223000E9E0EE2EF12CEC0EFD1ECE010196B70169
:102240000E94BD158E010F5E1F4FCE010596B8018D
:102250000E94BD158A8991E089278A8BC701B80140
:10226000AE01475E5F4F0E94BE0F0E94E814A09629
:10227000E6E00C94FF16A0E2B0E0E1E4F1E10C949A
:10228000E31669837A838B839C832D833E834F83FC
:102290005887F9E0EF2EF12CEC0EFD1ECE010196D1
:1022A000B7010E94BD158E010F5E1F4FCE0105962E
:1022B000B8010E94BD15C701B801AE01475E5F4F6E
:1022C0000E94BE0F0E94E814A096E6E00C94FF1650
:1022D000A0E2B0E0EEE6F1E10C94D71669837A83D0
:1022E0008B839C832D833E834F835887CE01019639
:1022F000BE01675F7F4F0E94BD15CE010596BE01EE
:102300006F5E7F4F0E94BD159985923088F0898954
:102310008230C8F0943019F4823051F404C0843013
:1023200029F4923081F487EA93E0C6C0923049F4F0
:1023300020E09A858A89981321E02A87CE010996A0
:10234000BBC0823049F420E09A858A89981321E045
:102350002A8BCE014196B0C02D843E844F8458888C
:102360006D887E888F88988CEE24FF248701AA24AC
:10237000BB24650140E050E060E070E0E0E0F0E0A8
:10238000C10181709070892BE9F0E60CF71C081DE3
:10239000191D9A01AB012A0D3B1D4C1D5D1D80E0EE
:1023A00090E0A0E0B0E0E614F7040805190520F479
:1023B00081E090E0A0E0B0E0BA01A901480F591F08
:1023C0006A1F7B1FAA0CBB1CCC1CDD1C97FE08C01F
:1023D00081E090E0A0E0B0E0A82AB92ACA2ADB2A6E
:1023E0003196E032F10549F0660C771C881C991C87
:1023F0005694479437942794C3CFFA85EA892B895A
:102400003C898B859C85280F391F2E5F3F4F17C055
:10241000CA0181709070892B61F016950795F79429
:10242000E79480E090E0A0E0B0E8E82AF92A0A2BDF
:102430001B2B76956795579547952F5F3F4F77FDF7
:10244000E7CF0CC0440F551F661F771F17FD416073
:10245000EE0CFF1C001F111F21503040403090E057
:10246000590790E0690790E4790760F32B8F3C8F60
:10247000DB01CA018F779070A070B0708034910535
:10248000A105B10561F447FD0AC0E114F10401059D
:10249000110529F0405C5F4F6F4F7F4F40781A8ED7
:1024A000FE1711F081E08A8F4D8F5E8F6F8F78A3BA
:1024B00083E0898FCE0149960E94E814A096E2E15C
:1024C0000C94F316A8E1B0E0E8E6F2E10C94DF1614
:1024D00069837A838B839C832D833E834F835887C4
:1024E000B9E0EB2EF12CEC0EFD1ECE010196B701EA
:1024F0000E94BD158E010F5E1F4FCE010596B801DB
:102500000E94BD152985223008F47EC039893230F9
:1025100010F4B8017CC08A859A8989278A8724307B
:1025200011F0223031F4231709F06EC067EA73E02E
:102530006EC0343039F41D861E861F86188A1C86AC
:102540001B8604C0323021F484E08987B7015FC064
:102550002B853C858B899C89281B390B3C872B87D5
:10256000ED84FE840F851889AD88BE88CF88D88C0D
:10257000EA14FB040C051D0540F4EE0CFF1C001FC3
:10258000111F215030403C872B8720E030E040E095
:1025900050E080E090E0A0E0B0E460E070E0EA1499
:1025A000FB040C051D0540F0282B392B4A2B5B2B17
:1025B000EA18FB080C091D09B695A795979587950C
:1025C000EE0CFF1C001F111F6F5F7F4F6F317105F5
:1025D00031F7DA01C9018F779070A070B070803444
:1025E0009105A105B10561F427FD0AC0E114F104CC
:1025F0000105110529F0205C3F4F4F4F5F4F2078B8
:102600002D873E874F87588BBE01675F7F4FCB0179
:102610000E94E8146896EAE00C94FB16A8E1B0E08A
:10262000E4E1F3E10C94E31669837A838B839C8362
:102630002D833E834F83588789E0E82EF12CEC0EE2
:10264000FD1ECE010196B7010E94BD158E010F5EE1
:102650001F4FCE010596B8010E94BD1589858230B5
:1026600040F08989823028F0C701B8010E943516F0
:1026700001C08FEF6896E6E00C94FF16A8E1B0E089
:10268000E4E4F3E10C94E31669837A838B839C83FF
:102690002D833E834F83588789E0E82EF12CEC0E82
:1026A000FD1ECE010196B7010E94BD158E010F5E81
:1026B0001F4FCE010596B8010E94BD158985823055
:1026C00040F08989823028F0C701B8010E94351690
:1026D00001C081E06896E6E00C94FF16A8E0B0E047
:1026E000E4E7F3E10C94E0169B01AC0183E08983FD
:1026F000DA01C9018827B7FD83959927AA27BB2747
:10270000B82E211531054105510519F482E0898360
:102710003AC08823A9F0203080E0380780E04807DD
:1027200080E8580729F460E070E080E09FEC30C05A
:10273000EE24FF248701E21AF30A040B150B02C0F2
:1027400079018A018EE1C82ED12CDC82CB82ED8208
:10275000FE820F831887C801B7010E949914019760
:102760001816190684F4082E04C0EE0CFF1C001F76
:10277000111F0A94D2F7ED82FE820F831887C81AC0
:10278000D90ADC82CB82BA82CE0101960E94E8147B
:102790002896E9E00C94FC16ACE0B0E0E2EDF3E141
:1027A0000C94E71669837A838B839C83CE01019610
:1027B000BE016B5F7F4F0E94BD158D81823061F13C
:1027C000823050F1843021F48E81882351F12EC063
:1027D0002F81388537FD20C06E812F3131051CF0E7
:1027E0006623F9F023C08EE190E0821B930B2985CC
:1027F0003A854B855C8504C0569547953795279556
:102800008A95D2F76623B1F0509540953095219581
:102810003F4F4F4F5F4F0EC020E030E040E050E0B0
:1028200009C02FEF3FEF4FEF5FE704C020E030E03B
:1028300040E050E8B901CA012C96E2E00C9403177D
:10284000A8E0B0E0E6E2F4E10C94DF167B018C0135
:10285000611571058105910519F482E0898360C0D5
:1028600083E089838EE1C82ED12CDC82CB82ED827D
:10287000FE820F831887C801B7010E949914FC01DA
:102880003197F7FF3BC0222733272E1B3F0B570101
:102890006801022E04C0D694C794B794A7940A94F2
:1028A000D2F740E050E060E070E081E090E0A0E02E
:1028B000B0E004C0880F991FAA1FBB1F2A95D2F74A
:1028C0000197A109B1098E219F21A023B12300976F
:1028D000A105B10521F041E050E060E070E04A2937
:1028E0005B296C297D294D835E836F8378878EE118
:1028F00090E08E1B9F0B9C838B8312C0309781F0DE
:102900000E2E04C0EE0CFF1C001F111F0A94D2F7FC
:10291000ED82FE820F831887CE1ADF0ADC82CB821B
:102920001A82CE0101960E94E8142896EAE00C94DF
:10293000FB16EF92FF920F931F937B018C0180E0B7
:10294000E81680E0F80681E0080780E0180788F4C0
:102950008FEFE816F1040105110531F028F088E049
:1029600090E0A0E0B0E017C080E090E0A0E0B0E030
:1029700012C080E0E81680E0F80680E0080781E0F9
:10298000180728F088E190E0A0E0B0E004C080E102
:1029900090E0A0E0B0E020E230E040E050E0281B12
:1029A000390B4A0B5B0B04C016950795F794E79417
:1029B0008A95D2F7F701E155FC4F8081281B310938
:1029C00041095109C9011F910F91FF90EF9008959E
:1029D000DF92EF92FF920F931F93FC01E480F5804A
:1029E00006811781D1808081823048F480E090E0B8
:1029F000A0E1B0E0E82AF92A0A2B1B2BA5C08430FD
:102A000009F49FC0823021F4EE24FF24870105C021
:102A1000E114F1040105110519F4E0E0F0E096C0BD
:102A2000628173819FEF623879070CF05BC022E806
:102A30003FEF261B370B2A3131052CF020E030E028
:102A400040E050E02AC0B801A701022E04C07695EC
:102A50006795579547950A94D2F781E090E0A0E0FA
:102A6000B0E004C0880F991FAA1FBB1F2A95D2F798
:102A70000197A109B1098E219F21A023B1230097BD
:102A8000A105B10521F081E090E0A0E0B0E09A015D
:102A9000AB01282B392B4A2B5B2BDA01C9018F772D
:102AA0009070A070B07080349105A105B10539F423
:102AB00027FF09C0205C3F4F4F4F5F4F04C0215C90
:102AC0003F4F4F4F5F4FE0E0F0E02030A0E03A078B
:102AD000A0E04A07A0E45A0710F0E1E0F0E0790135
:102AE0008A0127C06038710564F5FB01E158FF4F8A
:102AF000D801C7018F779070A070B07080349105B5
:102B0000A105B10539F4E7FE0DC080E490E0A0E036
:102B1000B0E004C08FE390E0A0E0B0E0E80EF91E62
:102B20000A1F1B1F17FF05C016950795F794E7941A
:102B3000319687E016950795F794E7948A95D1F733
:102B400005C0EE24FF248701EFEFF0E06E2F6795BC
:102B500066276795902F9F77D794DD24D7948E2F83
:102B60008695492F462B582F5D29B701CA011F9121
:102B70000F91FF90EF90DF900895FC01DB01408101
:102B800051812281622F6F7770E0221F2227221F3E
:102B90009381892F880F822B282F30E0991F992746
:102BA000991F11969C93119721153105A9F541158F
:102BB00051056105710511F482E037C082E89FEF8D
:102BC00013969C938E9312979A01AB0167E0220FA4
:102BD000331F441F551F6A95D1F783E08C930DC0B6
:102BE000220F331F441F551F12968D919C911397EE
:102BF000019713969C938E931297203080E03807AC
:102C000080E0480780E4580758F314962D933D93CD
:102C10004D935C93179708952F3F310579F4411533
:102C200051056105710519F484E08C93089564FFE2
:102C300003C081E08C9312C01C9210C02F5730400B
:102C400013963C932E93129783E08C9387E0440F66
:102C5000551F661F771F8A95D1F7706414964D93A0
:102C60005D936D937C93179708951F93DC01FB018F
:102C70009C91923008F447C08081823008F443C0B0
:102C8000943051F411961C91843099F58181682F0C
:102C900070E0611B71093FC0843021F0923031F443
:102CA0008230B9F18181882389F12DC011961C9160
:102CB00011978230F1F081811817D9F412962D9175
:102CC0003C911397828193818217930794F0281780
:102CD0003907BCF014968D919D910D90BC91A02D5B
:102CE0002481358146815781281739074A075B07B8
:102CF00018F4112341F00AC082179307A407B507FF
:102D000040F4112319F061E070E005C06FEF7FEF30
:102D100002C060E070E0CB011F910895991B79E03B
:102D200004C0991F961708F0961B881F7A95C9F75B
:102D30008095089597FB092E05260ED057FD04D0E7
:102D400014D00AD0001C38F4509540953095219548
:102D50003F4F4F4F5F4F0895F6F7909580957095D0
:102D600061957F4F8F4F9F4F0895A1E21A2EAA1BA6
:102D7000BB1BFD010DC0AA1FBB1FEE1FFF1FA2172B
:102D8000B307E407F50720F0A21BB30BE40BF50B28
:102D9000661F771F881F991F1A9469F760957095B1
:102DA000809590959B01AC01BD01CF0108952F92B4
:102DB0003F924F925F926F927F928F929F92AF92CB
:102DC000BF92CF92DF92EF92FF920F931F93CF9318
:102DD000DF93CDB7DEB7CA1BDB0B0FB6F894DEBFAF
:102DE0000FBECDBF09942A88398848885F846E84D5
:102DF0007D848C849B84AA84B984C884DF80EE801F
:102E0000FD800C811B81AA81B981CE0FD11D0FB627
:102E1000F894DEBF0FBECDBFED010895FB01DC01CC
:102E200001900D920020E1F70895AEE0B0E0EBE1F3
:102E3000F7E10C94E5160D891E8986E08C831A83D0
:102E400009838FEF9FE79E838D839E01275E3F4F0F
:102E5000CE0101966F89788DA9010E9439172F81C3
:102E60003885020F131FF80110822E96E4E00C94AF
:102E70000117ABE0B0E0EFE3F7E10C94D7163C01AB
:102E80002B015A01FC0117821682838181FD03C048
:102E90006FEF7FEFC6C19AE0892E1E010894211CB6
:102EA000311CF3012381F20123FD859123FF8191E0
:102EB0002F01882309F4B2C1853239F423FD8591AD
:102EC00023FF81912F01853229F490E0B3010E9404
:102ED0002C19E7CF982FFF24EE249924FFE1FF154A
:102EE000D0F09B3269F09C3228F4903259F0933242
:102EF00091F40EC09D3249F0903369F441E024C052
:102F000052E0F52A84E0F82A28C098E0F92A25C082
:102F1000E0E1FE2A22C0F7FC29C0892F80538A30C5
:102F200070F4F6FE05C0989C902C1124980E15C0E4
:102F3000E89CE02C1124E80EF0E2FF2A0EC09E323D
:102F400029F4F6FC6BC140E4F42A07C09C3619F45E
:102F500050E8F52A02C0983649F4F20123FD959114
:102F600023FF91912F01992309F0B8CF892F855420
:102F7000833018F08052833038F444E050E0A40EDF
:102F8000B51E5FE359830FC0933631F0933779F064
:102F9000933509F056C020C0F5018081898342E055
:102FA00050E0A40EB51E610101E010E012C0F50171
:102FB000C080D180F6FC03C06FEF7FEF02C0692DA7
:102FC00070E042E050E0A40EB51EC6010E94211937
:102FD0008C015FE7F52214C0F501C080D180F6FCBA
:102FE00003C06FEF7FEF02C0692D70E042E050E058
:102FF000A40EB51EC6010E9416198C0150E8F52AD0
:10300000F3FE07C01AC080E290E0B3010E942C19C1
:10301000EA948E2D90E008171907A8F30EC0F60168
:10302000F7FC8591F7FE81916F0190E0B3010E945A
:103030002C19E110EA94015010400115110579F79F
:10304000EAC0943611F0993669F5F7FE08C0F5012B
:10305000208131814281538184E090E00AC0F501F2
:10306000808191819C01442737FD4095542F82E057
:1030700090E0A80EB91E9FE6F92257FF09C05095AF
:103080004095309521953F4F4F4F5F4FE0E8FE2A26
:10309000CA01B901A1012AE030E00E945819D82ED6
:1030A000D21840C0953729F41F2D1F7E2AE030E04A
:1030B0001DC01F2D197F9F3661F0903720F4983581
:1030C00009F0ACC00FC0903739F0983709F0A6C0AE
:1030D00004C028E030E00AC0106114FD146020E153
:1030E00030E004C014FD166020E132E017FF08C094
:1030F000F501608171818281938144E050E008C0D4
:10310000F50180819181BC0180E090E042E050E0D7
:10311000A40EB51EA1010E945819D82ED2188FE70F
:10312000F82EF122F6FE0BC05EEFF522D91438F42A
:10313000F4FE07C0F2FC05C08FEEF82202C01D2D80
:1031400001C0192DF4FE0DC0FE01ED0DF11D8081B1
:10315000803319F499EEF92208C01F5FF2FE05C012
:1031600003C08F2D867809F01F5F0F2DF3FC14C06C
:10317000F0FE0FC01E1510F09D2C0BC09D2C9E0C58
:10318000911A1E2D06C080E290E0B3010E942C1916
:103190001F5F1E15C0F304C01E1510F4E11A01C014
:1031A000EE2404FF0FC080E390E0B3010E942C19CD
:1031B00002FF1DC001FD03C088E790E00EC088E556
:1031C00090E00BC0802F867891F001FF02C08BE267
:1031D00001C080E2F7FC8DE290E0B3010E942C195F
:1031E00006C080E390E0B3010E942C199A94D91490
:1031F000C0F3DA94F101ED0DF11D808190E0B3018F
:103200000E942C19DD20A9F706C080E290E0B301EE
:103210000E942C19EA94EE20C1F743CEF301668197
:103220007781CB012B96E2E10C94F316FC0105901B
:10323000615070400110D8F7809590958E0F9F1FB8
:103240000895FC016150704001900110D8F78095FD
:1032500090958E0F9F1F08950F931F93CF93DF9329
:103260008C01EB018B8181FF1BC082FF0DC02E8181
:103270003F818C819D812817390764F4E881F981A9
:103280000193F983E88306C0E885F985802F0995C5
:10329000892B31F48E819F8101969F838E8302C09A
:1032A0000FEF1FEFC801DF91CF911F910F9108958C
:1032B000FA01AA27283051F1203181F1E8946F9367
:1032C0006E7F6E5F7F4F8F4F9F4FAF4FB1E03ED00D
:1032D000B4E03CD0670F781F891F9A1FA11D680FAB
:1032E000791F8A1F911DA11D6A0F711D811D911DDE
:1032F000A11D20D009F468943F912AE0269F112453
:103300003019305D3193DEF6CF010895462F4770B6
:10331000405D4193B3E00FD0C9F7F6CF462F4F7011
:10332000405D4A3318F0495D31FD4052419302D06F
:10333000A9F7EACFB4E0A695979587957795679515
:10334000BA95C9F700976105710508959B01AC0115
:103350000A2E06945795479537952795BA95C9F73C
:10336000620F731F841F951FA01D0895F894FFCF4F
:103370002D002E004572726F72007C202020205795
:10338000656C636F6D6520746F202020207C007C4D
:10339000202020427269676874427265657A6520F0
:1033A00020207C007C4169722026204C696768746B
:1033B0002053797374656D7C007C2020506F776595
:1033C00072696E67206F6E2E2E2E20207C002020CA
:1033D00042726967687465723A20494E2020202045
:1033E000202000202042726967687465723A204F7D
:1033F00055542020202020002020427269676874E4
:1034000065723A2053414D452020202000496E73BB
:103410006964652074656D703A202025303275200E
:10342000202020004F7574736964652074656D7089
:103430003A202530327520202020004D6F74696FAE
:103440006E2020202020202020202020202020004E
:103450004E4F204D6F74696F6E2020202020202059
:10346000202020200020205461726765742074653C
:103470006D703A2025303275002020476F20626140
:10348000636B2020202020202020202020003E00D0
:10349000200020205461726765742074656D703A55
:1034A00020253032752020200020204375727220A4
:1034B00074696D653A20253032753A2530327525AC
:1034C000634D0020205365742074696D653A202097
:1034D000253032753A2530327525634D0020202580
:1034E000327520646567204620494E202020202028
:1034F0002020002020253275206465672046204F5B
:103500005554202020202020002020427269676826
:10351000746E6573733A2053414D4520200020207E
:10352000437572722074656D703A202530327500D3
:103530004D656E752069646C6500010120202020B6
:10354000202020202020202020202020202020207B
:1035500000CC02197D6402000200202D42726967CE
:103560006874427265657A65206D656E752D002000
:10357000205F5F20646567204620494E2020202080
:103580002020200020205F5F206465672046204FB8
:103590005554202020202020002020427269676896
:1035A0007465723A205B696E2F6F75745D00202020
:1035B0005365742074696D65202020202020202010
:1035C0002020002020536574207461726765742088
:1035D00074656D7020202000202053657420776171
:1035E0006B6575702074696D652020200020205364
:1035F00065742062656474696D6520202020202038
:103600002000EA02FF02140329033E035303680368
:103610007D0308FFFF010000000000000000000023
:103620000102020303030304040404040404040564
:103630000505050505050505050505050505050639
:10364000060606060606060606060606060606061A
:103650000606060606060606060606060606060709
:1036600007070707070707070707070707070707EA
:1036700007070707070707070707070707070707DA
:1036800007070707070707070707070707070707CA
:1036900007070707070707070707070707070708B9
:1036A000080808080808080808080808080808089A
:1036B000080808080808080808080808080808088A
:1036C000080808080808080808080808080808087A
:1036D000080808080808080808080808080808086A
:1036E000080808080808080808080808080808085A
:1036F000080808080808080808080808080808084A
:103700000808080808080808080808080808080839
:103710000808080808080808080808080808080031
:00000001FF
