:100000000C9434000C9449000C9449000C94490061
:100010000C9449000C9449000C9449000C9449003C
:100020000C9449000C9449000C9449000C9449002C
:100030000C9449000C9449000C9449000C9449001C
:100040000C9449000C9449000C9449000C9449000C
:100050000C9449000C9449000C9449000C944900FC
:100060000C9449000C94490011241FBECFEFD8E036
:10007000DEBFCDBF11E0A0E0B1E0E2EEF1E002C0F2
:1000800005900D92A430B107D9F70E94DF000C94BF
:10009000EF000C940000559A84B5836284BD84B54A
:1000A0008F7E84BD85B5886085BD85B5846085BD3E
:1000B00085B58D7F85BD85B58E7F85BD89EF87BD73
:1000C00089E188BD0895539AE0EBF0E08081836078
:1000D000808380818062808389EF8093B30080E891
:1000E0008093B400E1EBF0E08081846080838081C4
:1000F0008260808380818E7F80830895813079F44F
:1001000029E145EF50E028BD88EE93E0FA013197F0
:10011000F1F70197D9F72B5F2238A9F708952DE75A
:1001200045EF50E028BD88EE93E0FA013197F1F7F2
:100130000197D9F725502431A9F70895813081F42A
:1001400029E145EF50E02093B40088EE93E0FA01F6
:100150003197F1F70197D9F72B5F2238A1F708956E
:100160002DE745EF50E02093B40088EE93E0FA01CC
:100170003197F1F70197D9F725502431A1F7089568
:10018000409888EE93E025EF30E0F9013197F1F7E0
:100190000197D9F7409A80E197E225EF30E0F90125
:1001A0003197F1F70197D9F7409888EE93E025EF62
:1001B00030E0F9013197F1F70197D9F708950E94DE
:1001C0004B000E946300389A81E00E949E000E94CA
:1001D000C00080E00E949E000E94C000F5CFF8940D
:0201E000FFCF4F
:0401E200197D64001F
:00000001FF
