:100000000C9434000C9451000C9451000C94510049
:100010000C9451000C9451000C9451000C9451001C
:100020000C9451000C9451000C9451000C9451000C
:100030000C9451000C9451000C9451000C945100FC
:100040000C9451000C9451000C9451000C945100EC
:100050000C9451000C9451000C9451000C945100DC
:100060000C9451000C94510011241FBECFEFD8E026
:10007000DEBFCDBF11E0A0E0B1E0ECE7FBE002C0E5
:1000800005900D92A038B107D9F711E0A0E8B1E0D2
:1000900001C01D92A638B107E1F70E9486010C94B9
:1000A000BC050C940000BF92CF92DF92EF92FF92BA
:1000B0000F931F93CF93DF93B82EFB01D901E70174
:1000C0004115510531F40115110519F490E080E056
:1000D00054C084EA8093BC008091BC0087FFFCCFB1
:1000E0009091B900987F983009F09FC08B2D8E7F3A
:1000F0008093BB0084E88093BC008091BC0087FFA4
:10010000FCCF9091B900987F9831B1F0903209F00E
:100110008CC088C080818093BB002093BC008091FC
:10012000BC0087FFFCCF9091B900987F41505040B0
:100130009832C9F4319601C024E84115510551F7B0
:1001400016C08C918093BB002093BC008091BC00B2
:1001500087FFFCCF9091B900987F015010409832F2
:1001600011F4119605C0903309F05FC05BC024E81C
:100170000115110531F791E081E0C114D10409F4B2
:100180004EC0882311F428E001C020E184EA809366
:10019000BC008091BC0087FFFCCF9091B900987F94
:1001A000921709F042C081E0B82AB092BB0084E8FF
:1001B0008093BC008091BC0087FFFCCF9091B90078
:1001C000987F903419F0983481F52CC00894C108B8
:1001D000D10824EC11C02093BC008091BC0087FFA3
:1001E000FCCF9091B900987F0894C108D108903550
:1001F000E1F48091BB008993C114D10461F784E8D4
:100200008093BC008091BC0087FFFCCF9091B90027
:10021000987F983551F48091BB00888302C0992360
:1002200021F090E084E98093BC00892FDF91CF9189
:100230001F910F91FF90EF90DF90CF90BF900895A6
:100240001092B9008093B8000895883038F484EA99
:100250008093BC008091BC0087FFFCCF089521E013
:1002600030E002C0220F331F8A95E2F72093BB00D3
:1002700084E88093BC008091BC0087FFFCCF089588
:1002800084E98093BC008091BC0084FDFCCF08957C
:10029000282F84EA8093BC008091BC0087FFFCCFAC
:1002A0001092BB0084E88093BC008091BC0087FF63
:1002B000FCCF206A81E090E002C0880F991F2A9548
:1002C000E2F78093BB0084E88093BC008091BC007F
:1002D00087FFFCCF84EA8093BC008091BC0087FF3D
:1002E000FCCF1092BB0084E88093BC008091BC00DE
:1002F00087FFFCCF9091BB0084E98093BC00809184
:10030000BC0084FDFCCF892F90E008952F923F928E
:100310004F925F926F927F928F929F92AF92BF9215
:10032000CF92DF92EF92FF920F931F93CF93DF93C1
:100330001092B9008AE28093B800389A409880E021
:1003400091E00E94D30288EE93E025EF30E0F901BE
:100350003197F1F70197D9F720E030E004EA44E85B
:1003600061E070E054E918E0A5EFB0E00093BC0054
:100370008091BC0087FFFCCF1092BB004093BC0073
:100380008091BC0087FFFCCFCB01022E02C0880FFA
:10039000991F0A94E2F7FB0102C0EE0FFF1F8A9536
:1003A000E2F7E093BB004093BC008091BC0087FF64
:1003B000FCCF5093BC008091BC0084FDFCCF009327
:1003C000BC008091BC0087FFFCCF1092BB00409323
:1003D000BC008091BC0087FFFCCF1092BB00409313
:1003E000BC008091BC0087FFFCCF1093BB00409302
:1003F000BC008091BC0087FFFCCF5093BC00809173
:10040000BC0084FDFCCF88EE93E0FD013197F1F74D
:100410000197D9F72F5F3F4F2230310509F0A6CF62
:10042000442455246624772481E0282E312C4098DA
:10043000EE24FF24F4EAF093BC008091BC0087FF17
:10044000FCCF1092BB0024E82093BC008091BC003C
:1004500087FFFCCF9E2C8F2CC1010E2C02C0880F71
:10046000991F0A94E2F7D10102C0AA0FBB1F8A9517
:10047000E2F7A093BB00B4E8B093BC008091BC004D
:1004800087FFFCCFE4E9E093BC008091BC0084FDD1
:10049000FCCF84E10E944801EC0186E10E94480102
:1004A0008C0185E10E944801B82EAA24CA29DB29C3
:1004B00087E10E944801D82ECC249601202B312BB5
:1004C000CE01821B930BEE20E9F42C018DB79EB771
:1004D0000A970FB6F8949EBF0FBE8DBFEDB7FEB75B
:1004E00031968BE191E0ADB7BEB712969C938E9397
:1004F000119792828382D583C48337832683518662
:1005000040861AC03C01EDB7FEB73A970FB6F89493
:10051000FEBF0FBEEDBF31968DE491E0ADB7BEB723
:1005200012969C938E93119792828382D583C48373
:1005300037832683718660860E94BE02ADB7BEB740
:100540001A960FB6F894BEBF0FBEADBF0894E11C5B
:10055000F11CB2E0EB16F10409F06CCF461457041D
:1005600010F0409A01C0409888E893E1E5EFF0E090
:100570003197F1F7019709F45ACFF8CFA0E0B0E036
:10058000E4ECF2E00C949505FE01359661917191D1
:100590008091820190918301AF010E94080320960F
:1005A000E2E00C94B1050F931F93CF93DF938C017E
:1005B000E0918201F0918301838181FF21C0C0E03D
:1005C000D0E00DC0E0918201F0918301208531855A
:1005D000BF01F9010995892B11F0CFEFDFEFF80189
:1005E00081918F01882371F7E0918201F09183015D
:1005F000208531858AE0BF01F9010995892B11F029
:10060000CFEFDFEFCE01DF91CF911F910F910895D2
:10061000ABE0B0E0EEE0F3E00C9485053C012B018B
:100620005A01FC0117821682838181FD03C06FEF9E
:100630007FEFC6C19AE0892E1E010894211C311C4F
:10064000F3012381F20123FD859123FF81912F0185
:10065000882309F4B2C1853239F423FD859123FF43
:1006600081912F01853229F490E0B3010E94FB04AF
:10067000E7CF982FFF24EE249924FFE1FF15D0F057
:100680009B3269F09C3228F4903259F0933291F405
:100690000EC09D3249F0903369F441E024C052E02D
:1006A000F52A84E0F82A28C098E0F92A25C0E0E17C
:1006B000FE2A22C0F7FC29C0892F80538A3070F4AB
:1006C000F6FE05C0989C902C1124980E15C0E89C4D
:1006D000E02C1124E80EF0E2FF2A0EC09E3229F42D
:1006E000F6FC6BC140E4F42A07C09C3619F450E8CC
:1006F000F52A02C0983649F4F20123FD959123FFB3
:1007000091912F01992309F0B8CF892F8554833017
:1007100018F08052833038F444E050E0A40EB51E47
:100720005FE359830FC0933631F0933779F09335F7
:1007300009F056C020C0F5018081898342E050E075
:10074000A40EB51E610101E010E012C0F501C080E9
:10075000D180F6FC03C06FEF7FEF02C0692D70E01F
:1007600042E050E0A40EB51EC6010E94F0048C01C8
:100770005FE7F52214C0F501C080D180F6FC03C00C
:100780006FEF7FEF02C0692D70E042E050E0A40EF1
:10079000B51EC6010E94E5048C0150E8F52AF3FE5F
:1007A00007C01AC080E290E0B3010E94FB04EA9403
:1007B0008E2D90E008171907A8F30EC0F601F7FC7C
:1007C0008591F7FE81916F0190E0B3010E94FB04D7
:1007D000E110EA94015010400115110579F7EAC0C3
:1007E000943611F0993669F5F7FE08C0F5012081BD
:1007F00031814281538184E090E00AC0F50180811B
:1008000091819C01442737FD4095542F82E090E070
:10081000A80EB91E9FE6F92257FF09C050954095D2
:10082000309521953F4F4F4F5F4FE0E8FE2ACA01B8
:10083000B901A1012AE030E00E942705D82ED21884
:1008400040C0953729F41F2D1F7E2AE030E01DC0DF
:100850001F2D197F9F3661F0903720F4983509F0ED
:10086000ACC00FC0903739F0983709F0A6C004C06B
:1008700028E030E00AC0106114FD146020E130E08F
:1008800004C014FD166020E132E017FF08C0F50136
:10089000608171818281938144E050E008C0F5015C
:1008A00080819181BC0180E090E042E050E0A40EA4
:1008B000B51EA1010E942705D82ED2188FE7F82E69
:1008C000F122F6FE0BC05EEFF522D91438F4F4FEE7
:1008D00007C0F2FC05C08FEEF82202C01D2D01C03A
:1008E000192DF4FE0DC0FE01ED0DF11D8081803348
:1008F00019F499EEF92208C01F5FF2FE05C003C08B
:100900008F2D867809F01F5F0F2DF3FC14C0F0FEC9
:100910000FC01E1510F09D2C0BC09D2C9E0C911A23
:100920001E2D06C080E290E0B3010E94FB041F5F11
:100930001E15C0F304C01E1510F4E11A01C0EE2408
:1009400004FF0FC080E390E0B3010E94FB0402FFAC
:100950001DC001FD03C088E790E00EC088E590E06F
:100960000BC0802F867891F001FF02C08BE201C09E
:1009700080E2F7FC8DE290E0B3010E94FB0406C028
:1009800080E390E0B3010E94FB049A94D914C0F371
:10099000DA94F101ED0DF11D808190E0B3010E9428
:1009A000FB04DD20A9F706C080E290E0B3010E94BD
:1009B000FB04EA94EE20C1F743CEF3016681778110
:1009C000CB012B96E2E10C94A105FC01059061504E
:1009D00070400110D8F7809590958E0F9F1F089555
:1009E000FC016150704001900110D8F780959095FE
:1009F0008E0F9F1F08950F931F93CF93DF938C014A
:100A0000EB018B8181FF1BC082FF0DC02E813F81D6
:100A10008C819D812817390764F4E881F98101935D
:100A2000F983E88306C0E885F985802F0995892B2D
:100A300031F48E819F8101969F838E8302C00FEFD8
:100A40001FEFC801DF91CF911F910F910895FA0117
:100A5000AA27283051F1203181F1E8946F936E7FFD
:100A60006E5F7F4F8F4F9F4FAF4FB1E03ED0B4E0EE
:100A70003CD0670F781F891F9A1FA11D680F791F2F
:100A80008A1F911DA11D6A0F711D811D911DA11D40
:100A900020D009F468943F912AE0269F1124301950
:100AA000305D3193DEF6CF010895462F4770405DEB
:100AB0004193B3E00FD0C9F7F6CF462F4F70405D9A
:100AC0004A3318F0495D31FD4052419302D0A9F7F5
:100AD000EACFB4E0A6959795879577956795BA95EF
:100AE000C9F700976105710508959B01AC010A2EB5
:100AF00006945795479537952795BA95C9F7620F8C
:100B0000731F841F951FA01D08952F923F924F922F
:100B10005F926F927F928F929F92AF92BF92CF928D
:100B2000DF92EF92FF920F931F93CF93DF93CDB796
:100B3000DEB7CA1BDB0B0FB6F894DEBF0FBECDBF0E
:100B400009942A88398848885F846E847D848C84DF
:100B50009B84AA84B984C884DF80EE80FD800C81E8
:100B60001B81AA81B981CE0FD11D0FB6F894DEBFCB
:0C0B70000FBECDBFED010895F894FFCF3B
:100B7C0054534C32353931204C69676874205365B5
:100B8C006E736F7220546573740A0053656E736FC5
:100B9C0072202564202D204348303A2025642C20D7
:100BAC004348313A2025642C2076697369626C6560
:100BBC004C6967687430203D2025640A0053656ECB
:100BCC00736F72202564202D204348303A20256411
:100BDC002C204348313A2025642C207669736962B5
:100BEC006C654C6967687431203D2025640A0000EF
:00000001FF
