:100000000C9434000C943E000C943E000C943E0082
:100010000C943E000C943E000C943E000C943E0068
:100020000C943E000C943E000C943E000C943E0058
:100030000C943E000C943E000C943E000C943E0048
:100040000C943E000C943E000C943E000C943E0038
:100050000C943E000C943E000C943E000C943E0028
:100060000C943E000C943E0011241FBECFEFD8E04C
:10007000DEBFCDBF0E945E010C9468020C940000AC
:10008000BF92CF92DF92EF92FF920F931F93CF9385
:10009000DF93B82EFB01D901E7014115510531F479
:1000A0000115110519F490E080E054C084EA8093B2
:1000B000BC008091BC0087FFFCCF9091B900987F75
:1000C000983009F09FC08B2D8E7F8093BB0084E811
:1000D0008093BC008091BC0087FFFCCF9091B90059
:1000E000987F9831B1F0903209F08CC088C080813F
:1000F0008093BB002093BC008091BC0087FFFCCFA5
:100100009091B900987F415050409832C9F431968F
:1001100001C024E84115510551F716C08C91809318
:10012000BB002093BC008091BC0087FFFCCF909166
:10013000B900987F01501040983211F4119605C013
:10014000903309F05FC05BC024E80115110531F759
:1001500091E081E0C114D10409F44EC0882311F468
:1001600028E001C020E184EA8093BC008091BC00BB
:1001700087FFFCCF9091B900987F921709F042C099
:1001800081E0B82AB092BB0084E88093BC008091E3
:10019000BC0087FFFCCF9091B900987F903419F094
:1001A000983481F52CC00894C108D10824EC11C002
:1001B0002093BC008091BC0087FFFCCF9091B900D8
:1001C000987F0894C108D1089035E1F48091BB0074
:1001D0008993C114D10461F784E88093BC008091B5
:1001E000BC0087FFFCCF9091B900987F983551F4FF
:1001F0008091BB00888302C0992321F090E084E9BC
:100200008093BC00892FDF91CF911F910F91FF90B8
:10021000EF90DF90CF90BF9008951092B900809337
:10022000B8000895409888EE93E025EF30E0F9019A
:100230003197F1F70197D9F7409A80E197E225EFDE
:1002400030E0F9013197F1F70197D9F7409888EE3E
:1002500093E025EF30E0F9013197F1F70197D9F7F5
:100260000895CF92DF92EF92FF920F931F93DF9347
:10027000CF930F92CDB7DEB721E030E002C0220F5E
:10028000331F8A95E2F7298380EE60E070E040E05A
:1002900050E09E012F5F3F4F01E010E0EE24FF246D
:1002A000CC24DD240E9440000F90CF91DF911F915C
:1002B0000F91FF90EF90DF90CF9008952F923F9293
:1002C0004F925F926F927F928F929F92AF92BF9266
:1002D000CF92DF92EF92FF920F931F93DF93CF9312
:1002E000CDB7DEB72B970FB6F894DEBF0FBECDBFEC
:1002F0001092B9008AE28093B800389A80E395E7BB
:1003000025EF30E0F9013197F1F70197D9F7AA24E9
:10031000BB2443E0442E512C4C0E5D1E222423941A
:1003200032E0632E712C6C0E7D1E2BE0322E4E01BE
:100330000894811C911CC5010E94310182E18B83CC
:1003400082E560E070E040E050E020E030E000E076
:1003500010E0720191E0C92ED12C0E9440008B81E7
:10036000803ED1F40E9412012A8282E560E070E0B2
:1003700040E050E0930101E010E0EE24FF24CC24A3
:10038000DD240E944000398282E560E070E040E0B8
:1003900050E094010E9440000894A11CB11C82E02E
:1003A000A816B10441F680E395E725EF30E0F901A6
:1003B0003197F1F70197D9F71D821C821F821E82A7
:1003C000AA24BB244E010894811C911C18E0212E04
:1003D000312C2C0E3D1EB3E04B2E512C4C0E5D1ECD
:1003E000A5EF6A2E712C5CC0C5010E94310183E02B
:1003F000898382E560E070E040E050E0940101E034
:1004000010E0EE24FF24CC24DD240E94400083E190
:100410008A8382E560E070E040E050E020E030E078
:1004200000E010E0F2E0EF2EF12CEC0EFD1EE1E01A
:10043000CE2ED12C0E9440008A81882311F40E9484
:10044000120184E1888719861A861B8682E560E09E
:1004500070E040E050E020E030E000E010E07101AA
:1004600094E0C92ED12C0E944000F501EE0FFF1F31
:10047000E80DF91D88858383148281E08B8382E5F2
:1004800060E070E040E050E0920101E010E0EE2416
:10049000FF24CC24DD240E9440000894A11CB11C40
:1004A00082E0A816B10408F49FCF2C813D818E8193
:1004B0009F812817390711F00E94120180E197E20D
:1004C000F3013197F1F70197D9F7AA24BB24E8CFBC
:0404D000F894FFCFCE
:00000001FF
