:100000000C9434000C9449000C9449000C94490061
:100010000C9449000C9449000C9449000C9449003C
:100020000C9449000C9449000C9449000C9449002C
:100030000C9449000C9449000C9449000C9449001C
:100040000C9449000C9449000C9449000C9449000C
:100050000C9449000C9449000C9449000C944900FC
:100060000C9449000C94490011241FBECFEFD8E036
:10007000DEBFCDBF12E0A0E0B1E0EEEEF4E102C0E1
:1000800005900D92A233B107D9F70E94EE020C94AD
:10009000750A0C94000087B1807F87B9599A5898E7
:1000A00023E05E9A822F8A95F1F786B15E98922FAF
:1000B0009A95F1F75E9A922F9A95F1F75E98922FA2
:1000C0009A95F1F783FDEDCF5998589A87B18F60D3
:1000D00087B908950F931F93082F162F0E944B0086
:1000E000112359F45898003811F0013061F481E07F
:1000F000809327018093280106C0589A8091270198
:100100008F5F80932701599898B1802F82958F70C7
:10011000892B88B95E9A93EA892F8A95F1F75E98C0
:1001200088B1807F88B988B10F70802B88B95E9ABA
:100130009A95F1F75E9888B1807F88B91F910F91E9
:10014000089561E00E946A00089561E00E946A00DB
:100150000895682F88EE93E025EF30E0F90131979C
:10016000F1F70197D9F787B18F6087B988B1807FA0
:1001700088B9509A519A8AB183648AB95E9859981D
:10018000589888B1836088B95E9A93EA892F8A95D6
:10019000F1F75E9888B1807F88B940E050E6FA01B7
:1001A0003197F1F788B1836088B95E9A892F8A9573
:1001B000F1F75E9888B1807F88B929E939E0F901C3
:1001C0003197F1F788B1836088B95E9A892F8A9553
:1001D000F1F75E9888B1807F88B9F9013197F1F71E
:1001E000419A5E9A892F8A95F1F75E9888B1807F4F
:1001F00088B9F9013197F1F7419A5E9A892F8A956A
:10020000F1F75E9888B1807F88B9F9013197F1F7ED
:10021000439A5E9A892F8A95F1F75E9888B1807F1C
:1002200088B9F9013197F1F7409A5E9A892F8A953A
:10023000F1F75E9888B1807F88B9E0E0F0E331970C
:10024000F1F788B1866088B95E9A892F8A95F1F7AF
:100250005E9888B1807F88B9F9013197F1F788B14C
:100260008C6088B9F9013197F1F788B1807F88B93E
:100270005E9A892F8A95F1F75E98419A5E9A9A95CF
:10028000F1F75E9888B1807F88B9CA010197F1F7CC
:10029000862F8C6060E00E946A0081E060E00E942E
:1002A0006A0080E860E00E946A0008950F931F933F
:1002B000182F062F0E944B00812F81508E3F08F08F
:1002C00011E01093270100932801023051F0023011
:1002D00030F0043051F0043030F00F3F39F4115059
:1002E00005C0115C03C01D5E01C01D5A812F8068CE
:1002F00060E00E946A001F910F910895809127018C
:1003000061E00E94560185EA61E00E946A008091E6
:100310002701815062E00E94560185EA61E00E9457
:100320006A0008950F931F93CF93DF93EC0111E0C0
:1003300001E023C01531E0F0013031F481E062E0EA
:100340000E94560102E00FC0023031F481E063E008
:100350000E94560103E007C0033029F481E064E005
:100360000E94560104E08881803209F4219611E050
:10037000899161E00E946A001F5F88811816D4F29B
:10038000DF91CF911F910F9108958F929F92AF921D
:10039000BF92CF92DF92EF92FF920F931F93DF9362
:1003A000CF93CDB7DEB72C970FB6F894DEBF0FBE54
:1003B000CDBF4B015C01142F00E061157105810573
:1003C000910509F401E0C501B4010BC00F5F2AE0FB
:1003D00030E040E050E00E94010AC901DA01BC01AE
:1003E000CD01611571058105910581F7402FB7FC9D
:1003F00004C075016401BB240AC0CC24DD2476014D
:10040000C818D908EA08FB080F5FBB24B394FE01A3
:1004100031968AE0DF011D928A95E9F7141B412F7E
:1004200017FD40E0102F140F20C01A3088F4FE0191
:10043000E10FF11DFC87EB87C701B6012AE030E030
:1004400040E050E00E94010A605DAB85BC856C9382
:10045000C701B6012AE030E040E050E00E94010A06
:10046000C901DA016C017D0111501123F1F6BB20A5
:1004700011F08DE28983CE0101960E9492012C96A3
:100480000FB6F894DEBF0FBECDBFCF91DF911F91A5
:100490000F91FF90EF90DF90CF90BF90AF909F9023
:1004A0008F9008956F927F928F929F92AF92BF929A
:1004B000CF92DF92EF92FF920F931F937B018C01FB
:1004C000642E822E222319F48824839405C087E0A9
:1004D000821710F487E0882E982C0F2EF0E0AF2EB4
:1004E000F0E0BF2EF0E0CF2EFFE3DF2EF02DC601AF
:1004F000B50120E030E040E251E40E947E065B015D
:100500006C019A94A1F7C801B70120E030E040E007
:1005100050E00E942A0787FD02C0772406C017FB1F
:10052000109517F9109577247394C801B701A601A7
:1005300095010E9457057B018C010E94B8075B0161
:100540006C010E945A079B01AC01C801B7010E94CF
:1005500026057B018C01982CC801B70120E030E012
:1005600040E251E40E9484057B018C019A94A1F73A
:10057000772089F0D094C094B094A094A11CB11CB1
:10058000C11CD11CA114B104C104D10421F480E028
:1005900091E00E949201C601B501462D0E94C5015D
:1005A00082E091E00E949201C801B7010E94B80761
:1005B000482D0E94C5011F910F91FF90EF90DF9091
:1005C000CF90BF90AF909F908F907F906F90089545
:1005D0005E9A83EA8A95F1F75E980895CF93DF9348
:1005E00057985F9A2198299A22982A9A83E00E9424
:1005F000A90081E060E00E946A0081E061E00E9461
:10060000560128E833E1C5EFD0E009C0CE010197DB
:10061000F1F72150304003C028E833E1F7CF21152E
:100620003105A1F74F9B14C081E060E00E946A0091
:1006300081E061E00E94560184E091E00E94920115
:1006400088E893E1FE013197F1F70197D9F7E4CFFC
:1006500081E060E00E946A0081E061E00E94560152
:1006600085E191E00E94920188E893E1FE013197D3
:10067000F1F70197D9F7D0CF57985F9A089521984D
:10068000299A089522982A9A08952F923F924F927C
:100690005F926F927F928F929F92AF92BF92CF9212
:1006A000DF92EF92FF920F931F93CF93DF936C0132
:1006B000DC010D900020E9F77D010894E108F108C4
:1006C000E81AF90A81E060E00E946A0084E161E0D2
:1006D0000E9456018601882483949924939443E1CF
:1006E000742E34E1432E512C4E0C5F1C25EF222E2C
:1006F000312C6E2C41C0899161E00E946A009E01FC
:10070000201B2915C0F380ED97E0F1013197F1F737
:100710000197D9F781E060E00E946A0033E1381563
:1007200048F0AE14BF0430F4872D61E00E945601FA
:1007300093941FC0882D90E0A5E1EA16F10438F0EB
:100740000196E816F90628F094E1992E03C0449723
:100750005CF09A948501035110400C0D1D1D81E041
:1007600061E00E94560106C0962C872D61E00E9430
:100770005601860183947A94A82CBB24A414B50452
:1007800010F4E801BCCF80E860E00E946A00DF91CD
:10079000CF911F910F91FF90EF90DF90CF90BF907E
:1007A000AF909F908F907F906F905F904F903F9011
:1007B0002F900895A0E0B0E0E0EEF3E00C943E0A44
:1007C000DC012B01FA019C91923008F439C1EB0154
:1007D0008881823008F433C1943069F4843009F0A0
:1007E0002FC111969C9111978981981709F428C1FE
:1007F000A9E2B1E025C1843009F421C18230A9F415
:10080000923009F01DC19A01AD0188E0EA0109901A
:10081000AE01E90109929E018150C1F7E20189818F
:1008200011969C918923818308C1923009F407C1F4
:1008300012962D903C901397EB018A819B81149620
:10084000AD90BD90CD90DC901797EC80FD800E812F
:100850001F819101281B390BB90137FF04C066279E
:100860007727621B730B603271050CF061C01216A2
:1008700013066CF537014801062E04C09694879440
:10088000779467940A94D2F721E030E040E050E09A
:1008900004C0220F331F441F551F6A95D2F7215001
:1008A0003040404050402E213F214023512321150C
:1008B00031054105510521F021E030E040E050E0F4
:1008C00079018A01E628F728082919293CC0232B39
:1008D000D1F1260E371E35014601062E04C096942E
:1008E0008794779467940A94D2F721E030E040E04F
:1008F00050E004C0220F331F441F551F6A95D2F7E2
:1009000021503040404050402A213B214C215D2164
:10091000211531054105510521F021E030E040E08D
:1009200050E059016A01A628B728C828D9280BC069
:10093000821593052CF01C01AA24BB24650103C079
:10094000EE24FF24870111969C91D20111968C917F
:10095000981709F445C0992339F0A80197012A197D
:100960003B094C095D0906C0A60195012E193F09F6
:10097000400B510B57FD08C0118233822282248321
:100980003583468357831DC081E081833382228271
:1009900088279927DC01821B930BA40BB50B84835A
:1009A0009583A683B7830DC0220F331F441F551FA5
:1009B0002483358346835783828193810197938370
:1009C00082832481358146815781DA01C9010197EB
:1009D000A109B1098F5F9F4FAF4FBF4328F30BC0F1
:1009E000918333822282EA0CFB1C0C1D1D1DE482C4
:1009F000F5820683178383E08083248135814681D5
:100A0000578157FF1AC0C901AA2797FDA095BA2F91
:100A100081709070A070B070569547953795279566
:100A2000822B932BA42BB52B84839583A683B7832A
:100A300082819381019693838283DF0101C0D20179
:100A4000CD01CDB7DEB7E2E10C945A0AA0E2B0E0E6
:100A5000ECE2F5E00C944A0A69837A838B839C83E9
:100A60002D833E834F835887E9E0EE2EF12CEC0E68
:100A7000FD1ECE010196B7010E9430098E010F5E66
:100A80001F4FCE010596B8010E9430098A8991E076
:100A900089278A8BC701B801AE01475E5F4F0E946C
:100AA000DA030E945B08A096E6E00C94660AA0E2D6
:100AB000B0E0EDE5F5E00C944A0A69837A838B8314
:100AC0009C832D833E834F835887F9E0EF2EF12CD2
:100AD000EC0EFD1ECE010196B7010E9430098E0179
:100AE0000F5E1F4FCE010596B8010E943009C70165
:100AF000B801AE01475E5F4F0E94DA030E945B08B7
:100B0000A096E6E00C94660AA0E2B0E0EAE8F5E020
:100B10000C943E0A69837A838B839C832D833E8366
:100B20004F835887CE010196BE01675F7F4F0E94B9
:100B30003009CE010596BE016F5E7F4F0E943009DD
:100B40009985923088F089898230C8F0943019F400
:100B5000823051F404C0843029F4923081F489E267
:100B600091E0C6C0923049F420E09A858A899813B2
:100B700021E02A87CE010996BBC0823049F420E0EB
:100B80009A858A89981321E02A8BCE014196B0C0BC
:100B90002D843E844F8458886D887E888F88988CF9
:100BA000EE24FF248701AA24BB24650140E050E025
:100BB00060E070E0E0E0F0E0C10181709070892BAE
:100BC000E9F0E60CF71C081D191D9A01AB012A0D6E
:100BD0003B1D4C1D5D1D80E090E0A0E0B0E0E61400
:100BE000F7040805190520F481E090E0A0E0B0E0EA
:100BF000BA01A901480F591F6A1F7B1FAA0CBB1C11
:100C0000CC1CDD1C97FE08C081E090E0A0E0B0E0C5
:100C1000A82AB92ACA2ADB2A3196E032F10549F01E
:100C2000660C771C881C991C56944794379427941B
:100C3000C3CFFA85EA892B893C898B859C85280F4F
:100C4000391F2E5F3F4F17C0CA0181709070892BEA
:100C500061F016950795F794E79480E090E0A0E0A6
:100C6000B0E8E82AF92A0A2B1B2B76956795579549
:100C700047952F5F3F4F77FDE7CF0CC0440F551FBF
:100C8000661F771F17FD4160EE0CFF1C001F111F30
:100C900021503040403090E0590790E0690790E4DF
:100CA000790760F32B8F3C8FDB01CA018F7790703F
:100CB000A070B07080349105A105B10561F447FDC5
:100CC0000AC0E114F1040105110529F0405C5F4FF1
:100CD0006F4F7F4F40781A8EFE1711F081E08A8F98
:100CE0004D8F5E8F6F8F78A383E0898FCE014996F9
:100CF0000E945B08A096E2E10C945A0AA8E1B0E0D9
:100D0000E4E8F6E00C94460A69837A838B839C833B
:100D10002D833E834F835887B9E0EB2EF12CEC0EE8
:100D2000FD1ECE010196B7010E9430098E010F5EB3
:100D30001F4FCE010596B8010E9430092985223047
:100D400008F47EC03989323010F4B8017CC08A853D
:100D50009A8989278A87243011F0223031F42317A9
:100D600009F06EC069E271E06EC0343039F41D865E
:100D70001E861F86188A1C861B8604C0323021F40A
:100D800084E08987B7015FC02B853C858B899C896E
:100D9000281B390B3C872B87ED84FE840F8518892F
:100DA000AD88BE88CF88D88CEA14FB040C051D05DD
:100DB00040F4EE0CFF1C001F111F215030403C87F7
:100DC0002B8720E030E040E050E080E090E0A0E0C1
:100DD000B0E460E070E0EA14FB040C051D0540F08F
:100DE000282B392B4A2B5B2BEA18FB080C091D0911
:100DF000B695A79597958795EE0CFF1C001F111FC0
:100E00006F5F7F4F6F31710531F7DA01C9018F775D
:100E10009070A070B07080349105A105B10561F4A7
:100E200027FD0AC0E114F1040105110529F0205C39
:100E30003F4F4F4F5F4F20782D873E874F87588B0E
:100E4000BE01675F7F4FCB010E945B086896EAE0B6
:100E50000C94620AA8E1B0E0E0E3F7E00C944A0ADF
:100E600069837A838B839C832D833E834F8358874A
:100E700089E0E82EF12CEC0EFD1ECE010196B701A3
:100E80000E9430098E010F5E1F4FCE010596B801FA
:100E90000E9430098985823040F08989823028F0AB
:100EA000C701B8010E94A80901C081E06896E6E088
:100EB0000C94660AA8E0B0E0E0E6F7E00C94470A7C
:100EC0009B01AC0183E08983DA01C9018827B7FD62
:100ED00083959927AA27BB27B82E211531054105EF
:100EE000510519F482E089833AC08823A9F02030A3
:100EF00080E0380780E0480780E8580729F460E080
:100F000070E080E09FEC30C0EE24FF248701E21AFD
:100F1000F30A040B150B02C079018A018EE1C82E79
:100F2000D12CDC82CB82ED82FE820F831887C80130
:100F3000B7010E940C0801971816190684F4082EB0
:100F400004C0EE0CFF1C001F111F0A94D2F7ED82A3
:100F5000FE820F831887C81AD90ADC82CB82BA8234
:100F6000CE0101960E945B082896E9E00C94630A82
:100F7000ACE0B0E0EEEBF7E00C944E0A69837A83C4
:100F80008B839C83CE010196BE016B5F7F4F0E94D5
:100F900030098D81823061F1823050F1843021F44A
:100FA0008E81882351F12EC02F81388537FD20C0D6
:100FB0006E812F3131051CF06623F9F023C08EE1DC
:100FC00090E0821B930B29853A854B855C8504C094
:100FD00056954795379527958A95D2F76623B1F0B0
:100FE00050954095309521953F4F4F4F5F4F0EC024
:100FF00020E030E040E050E009C02FEF3FEF4FEF3E
:101000005FE704C020E030E040E050E8B901CA01E9
:101010002C96E2E00C946A0AEF92FF920F931F93D2
:101020007B018C0180E0E81680E0F80681E008078B
:1010300080E0180788F48FEFE816F1040105110528
:1010400031F028F088E090E0A0E0B0E017C080E048
:1010500090E0A0E0B0E012C080E0E81680E0F80682
:1010600080E0080781E0180728F088E190E0A0E020
:10107000B0E004C080E190E0A0E0B0E020E230E029
:1010800040E050E0281B390B4A0B5B0B04C016955F
:101090000795F794E7948A95D2F7F701EF5CFE4F36
:1010A0008081281B310941095109C9011F910F9104
:1010B000FF90EF900895DF92EF92FF920F931F93AE
:1010C000FC01E480F58006811781D1808081823027
:1010D00048F480E090E0A0E1B0E0E82AF92A0A2B89
:1010E0001B2BA5C0843009F49FC0823021F4EE246C
:1010F000FF24870105C0E114F1040105110519F46D
:10110000E0E0F0E096C0628173819FEF623879077A
:101110000CF05BC022E83FEF261B370B2A3131056C
:101120002CF020E030E040E050E02AC0B801A701F8
:10113000022E04C076956795579547950A94D2F785
:1011400081E090E0A0E0B0E004C0880F991FAA1FE2
:10115000BB1F2A95D2F70197A109B1098E219F21C2
:10116000A023B1230097A105B10521F081E090E013
:10117000A0E0B0E09A01AB01282B392B4A2B5B2B66
:10118000DA01C9018F779070A070B070803491053A
:10119000A105B10539F427FF09C0205C3F4F4F4F2F
:1011A0005F4F04C0215C3F4F4F4F5F4FE0E0F0E0E6
:1011B0002030A0E03A07A0E04A07A0E45A0710F068
:1011C000E1E0F0E079018A0127C06038710564F53B
:1011D000FB01E158FF4FD801C7018F779070A070D5
:1011E000B07080349105A105B10539F4E7FE0DC05A
:1011F00080E490E0A0E0B0E004C08FE390E0A0E0E5
:10120000B0E0E80EF91E0A1F1B1F17FF05C0169558
:101210000795F794E794319687E016950795F7942C
:10122000E7948A95D1F705C0EE24FF248701EFEFFC
:10123000F0E06E2F679566276795902F9F77D7947C
:10124000DD24D7948E2F8695492F462B582F5D2964
:10125000B701CA011F910F91FF90EF90DF900895A1
:10126000FC01DB01408151812281622F6F7770E0A8
:10127000221F2227221F9381892F880F822B282F3C
:1012800030E0991F9927991F11969C93119721156A
:101290003105A9F5411551056105710511F482E08B
:1012A00037C082E89FEF13969C938E9312979A0112
:1012B000AB0167E0220F331F441F551F6A95D1F71A
:1012C00083E08C930DC0220F331F441F551F1296CD
:1012D0008D919C911397019713969C938E931297DF
:1012E000203080E0380780E0480780E4580758F352
:1012F00014962D933D934D935C93179708952F3F2C
:10130000310579F4411551056105710519F484E041
:101310008C93089564FF03C081E08C9312C01C92EB
:1013200010C02F57304013963C932E93129783E0B2
:101330008C9387E0440F551F661F771F8A95D1F75E
:10134000706414964D935D936D937C9317970895F5
:101350001F93DC01FB019C91923008F447C080810F
:10136000823008F443C0943051F411961C918430BB
:1013700099F58181682F70E0611B71093FC084304D
:1013800021F0923031F48230B9F18181882389F1E2
:101390002DC011961C9111978230F1F081811817A0
:1013A000D9F412962D913C911397828193818217E3
:1013B000930794F028173907BCF014968D919D91EE
:1013C0000D90BC91A02D248135814681578128172D
:1013D00039074A075B0718F4112341F00AC0821746
:1013E0009307A407B50740F4112319F061E070E0FA
:1013F00005C06FEF7FEF02C060E070E0CB011F918E
:10140000089597FB092E05260ED057FD04D014D061
:101410000AD0001C38F450954095309521953F4FE7
:101420004F4F5F4F0895F6F79095809570956195B1
:101430007F4F8F4F9F4F0895A1E21A2EAA1BBB1B0F
:10144000FD010DC0AA1FBB1FEE1FFF1FA217B30790
:10145000E407F50720F0A21BB30BE40BF50B661FA6
:10146000771F881F991F1A9469F76095709580956A
:1014700090959B01AC01BD01CF0108952F923F9241
:101480004F925F926F927F928F929F92AF92BF9294
:10149000CF92DF92EF92FF920F931F93CF93DF9340
:1014A000CDB7DEB7CA1BDB0B0FB6F894DEBF0FBE9D
:1014B000CDBF09942A88398848885F846E847D84EA
:1014C0008C849B84AA84B984C884DF80EE80FD80EC
:1014D0000C811B81AA81B981CE0FD11D0FB6F89462
:0E14E000DEBF0FBECDBFED010895F894FFCF23
:1014EE002D002E00427574746F6E2031207072655F
:1014FE0073736564006E6F20627574746F6E207006
:10150E007265737365640001010000000000000045
:10151E000000010202030303030404040404040490
:10152E00040505050505050505050505050505055E
:10153E00050606060606060606060606060606063E
:10154E00060606060606060606060606060606062D
:10155E00060707070707070707070707070707070E
:10156E0007070707070707070707070707070707FD
:10157E0007070707070707070707070707070707ED
:10158E0007070707070707070707070707070707DD
:10159E0007080808080808080808080808080808BE
:1015AE0008080808080808080808080808080808AD
:1015BE00080808080808080808080808080808089D
:1015CE00080808080808080808080808080808088D
:1015DE00080808080808080808080808080808087D
:1015EE00080808080808080808080808080808086D
:1015FE00080808080808080808080808080808085D
:10160E00080808080808080808080808080808084C
:02161E000800C2
:00000001FF
