:100000000C9434000C9449000C9449000C94490061
:100010000C9449000C9449000C9449000C9449003C
:100020000C9449000C9449000C9449000C9449002C
:100030000C9449000C9449000C9449000C9449001C
:100040000C9449000C9449000C9449000C9449000C
:100050000C9449000C9449000C9449000C944900FC
:100060000C9449000C94490011241FBECFEFD8E036
:10007000DEBFCDBF11E0A0E0B1E0EEE5F2E002C0EE
:1000800005900D92A630B107D9F70E941F010C947C
:100090002D010C940000259AA1E8B0E08C918861B4
:1000A0008C93E0E8F0E080818362808380818F7EA2
:1000B00080838C918E7F8C938C918B7F8C938C9191
:1000C00082608C9380E49CE99093890080938800FF
:1000D00088EB9BE090938B0080938A000895559A5B
:1000E00084B5836284BD84B58F7E84BD85B5886008
:1000F00085BD85B58E7F85BD85B58B7F85BD85B575
:10010000826085BD80ED87BD8AE088BD089581301D
:1001100079F425E045EF50E028BD88EE93E0FA0140
:100120003197F1F70197D9F72E5C2F3FA9F7089582
:1001300026EE45EF50E028BD88EE93E0FA013197B6
:10014000F1F70197D9F722532430A9F708958130A8
:10015000A9F425E030E045EF50E030938B00209388
:100160008A0088EE93E0FA013197F1F70197D9F709
:100170002C5E3F4F253F310581F7089526EE30E094
:1001800045EF50E030938B0020938A0088EE93E097
:10019000FA013197F1F70197D9F724513040253012
:1001A000310580F708958130B1F425E030E045EF66
:1001B00050E030938B0020938A0088EE93E0FA01A0
:1001C0003197F1F70197D9F72C593F4F81E021334F
:1001D000380779F7089526EE30E045EF50E0309388
:1001E0008B0020938A0088EE93E0FA013197F1F7B3
:1001F0000197D9F7245630402530310580F708950E
:10020000409888EE93E025EF30E0F9013197F1F75F
:100210000197D9F7409A80E197E225EF30E0F901A4
:100220003197F1F70197D9F7409888EE93E025EFE1
:1002300030E0F9013197F1F70197D9F708950E945D
:100240006F00389A81E00E9487000E94000180E0E0
:0E0250000E9487000E940001F5CFF894FFCFB6
:06025E000500E60064004B
:00000001FF
