:100000000C9434000C9449000C9449000C94490061
:100010000C9449000C9449000C9449000C9449003C
:100020000C9449000C9449000C9449000C9449002C
:100030000C9449000C9449000C9449000C9449001C
:100040000C9449000C9449000C9449000C9449000C
:100050000C9449000C9449000C9449000C944900FC
:100060000C9449000C94490011241FBECFEFD8E036
:10007000DEBFCDBF11E0A0E0B1E0ECEDF1E002C0E9
:1000800005900D92A630B107D9F70E94DE000C94BE
:10009000EC000C940000559A84B5836284BD84B54D
:1000A0008F7E84BD85B5886085BD85B58E7F85BD15
:1000B00085B58B7F85BD85B5826085BD80ED87BDAB
:1000C00085E088BD0895539AE0EBF0E0808183627B
:1000D000808380818F7E8083E1EBF0E08081886087
:1000E000808380818E7F808380818B7F80838081ED
:1000F0008260808380ED8093B3008AE08093B400B7
:100100000895813069F420E845EF50E028BD88EE7D
:1001100093E0FA013197F1F70197D9F72E5CF6CF0A
:1001200028EB45EF50E028BD88EE93E0FA013197C7
:10013000F1F70197D9F722532435A9F708958130B3
:1001400071F420E845EF50E02093B40088EE93E08E
:10015000FA013197F1F70197D9F72E5CF5CF28EB2B
:1001600045EF50E02093B40088EE93E0FA01319718
:10017000F1F70197D9F722532435A1F70895409854
:1001800088EE93E025EF30E0F9013197F1F7019720
:10019000D9F7409A80E197E225EF30E0F9013197F5
:1001A000F1F70197D9F7409888EE93E025EF30E01A
:1001B000F9013197F1F70197D9F708950E944B00A3
:1001C000389A81E00E9481000E94BF0080E00E9476
:0C01D00081000E94BF00F5CFF894FFCF23
:0601DC008000B80B640076
:00000001FF
