:100000000C9434000C9449000C9449000C94490061
:100010000C9449000C9449000C9449000C9449003C
:100020000C9449000C9449000C9449000C9449002C
:100030000C9449000C9449000C9449000C9449001C
:100040000C9449000C9449000C9449000C9449000C
:100050000C9449000C9449000C9449000C944900FC
:100060000C9449000C94490011241FBECFEFD8E036
:10007000DEBFCDBF11E0A0E0B1E0E0EDF1E002C0F5
:1000800005900D92A630B107D9F70E94D9000C94C3
:10009000E6000C94000098B1907F98B998B18F70E9
:1000A000892B88B9589A589A589808951F93182FF1
:1000B000589A0E944B00812F8295807F0E944B00AE
:1000C00083E393E10197F1F71F910895CF93DF93B5
:1000D000EC0102C00E94560089918823D9F7DF9174
:1000E000CF9108951F93182F58980E944B00812F8D
:1000F0008295807F0E944B0083E393E10197F1F7A3
:100100001F910895882311F4605807C0813011F4BD
:10011000605403C0823009F0605C862F0E94720038
:1001200008958AB183608AB987B18F6087B980E00A
:1001300090E90197F1F780E30E944B0080E090E3A3
:100140000197F1F780E30E944B0086E291E001976E
:10015000F1F780E30E944B0080E20E944B0083E3B2
:1001600093E10197F1F788E20E9472008FE00E940C
:10017000720008955A9888EE93E025EF30E0F90177
:100180003197F1F70197D9F75A9A80E197E225EF75
:1001900030E0F9013197F1F70197D9F75A9888EED5
:1001A00093E025EF30E0F9013197F1F70197D9F7A6
:1001B0000895529A0E9491000E94BA0081E00E9424
:1001C000720080E091E00E9456000895F894FFCFFD
:0601D00068656C6C6F0015
:00000001FF
