:100000000C9434000C943E000C943E000C943E0082
:100010000C943E000C943E000C943E000C943E0068
:100020000C943E000C943E000C943E000C943E0058
:100030000C943E000C943E000C943E000C943E0048
:100040000C943E000C943E000C943E000C943E0038
:100050000C943E000C943E000C943E000C943E0028
:100060000C943E000C943E0011241FBECFEFD8E04C
:10007000DEBFCDBF0E945E010C9443020C940000D1
:10008000BF92CF92DF92EF92FF920F931F93CF9385
:10009000DF93B82EFB01D901E7014115510531F479
:1000A0000115110519F490E080E054C084EA8093B2
:1000B000BC008091BC0087FFFCCF9091B900987F75
:1000C000983009F09FC08B2D8E7F8093BB0084E811
:1000D0008093BC008091BC0087FFFCCF9091B90059
:1000E000987F9831B1F0903209F08CC088C080813F
:1000F0008093BB002093BC008091BC0087FFFCCFA5
:100100009091B900987F415050409832C9F431968F
:1001100001C024E84115510551F716C08C91809318
:10012000BB002093BC008091BC0087FFFCCF909166
:10013000B900987F01501040983211F4119605C013
:10014000903309F05FC05BC024E80115110531F759
:1001500091E081E0C114D10409F44EC0882311F468
:1001600028E001C020E184EA8093BC008091BC00BB
:1001700087FFFCCF9091B900987F921709F042C099
:1001800081E0B82AB092BB0084E88093BC008091E3
:10019000BC0087FFFCCF9091B900987F903419F094
:1001A000983481F52CC00894C108D10824EC11C002
:1001B0002093BC008091BC0087FFFCCF9091B900D8
:1001C000987F0894C108D1089035E1F48091BB0074
:1001D0008993C114D10461F784E88093BC008091B5
:1001E000BC0087FFFCCF9091B900987F983551F4FF
:1001F0008091BB00888302C0992321F090E084E9BC
:100200008093BC00892FDF91CF911F910F91FF90B8
:10021000EF90DF90CF90BF9008951092B900809337
:10022000B8000895409888EE93E025EF30E0F9019A
:100230003197F1F70197D9F7409A80E197E225EFDE
:1002400030E0F9013197F1F70197D9F7409888EE3E
:1002500093E025EF30E0F9013197F1F70197D9F7F5
:100260000895CF92DF92EF92FF920F931F93DF9347
:10027000CF930F92CDB7DEB721E030E002C0220F5E
:10028000331F8A95E2F7298380E760E070E040E061
:1002900050E09E012F5F3F4F01E010E0EE24FF246D
:1002A000CC24DD240E9440000F90CF91DF911F915C
:1002B0000F91FF90EF90DF90CF9008952F923F9293
:1002C0004F925F926F927F928F929F92AF92BF9266
:1002D000CF92DF92EF92FF920F931F93DF93CF9312
:1002E000CDB7DEB729970FB6F894DEBF0FBECDBFEE
:1002F0001092B9008AE28093B800389AAA24BB24ED
:100300002E010894411C511C3324339444E0642E84
:10031000712C6C0E7D1E33E5232E22E0822E912C53
:100320008C0E9D1EC5010E94310182E1898389E204
:1003300060E070E040E050E020E030E000E010E0FD
:10034000720191E0C92ED12C0E9440008981803534
:10035000D1F41C823D8289E260E070E040E050E030
:10036000930102E010E0EE24FF24CC24DD240E945F
:1003700040003A822B8289E260E070E040E050E089
:1003800094010E9440000894A11CB11C82E0A816B0
:10039000B10441F680E395E725EF30E0F9013197AC
:1003A000F1F70197D9F7AA24BB241E010894211C58
:1003B000311CB6E04B2E512C4C0E5D1EA4E06A2E73
:1003C000712C6C0E7D1EF5EF8F2E912C4DC0C5014A
:1003D0000E9431011A8283E08B8389E260E070E041
:1003E00040E050E09E012E5F3F4F02E010E0EE241F
:1003F000FF24CC24DD240E94400083E1898389E22C
:1004000060E070E040E050E020E030E000E010E02C
:100410007101E1E0CE2ED12C0E94400084E18E8358
:100420001F821886198689E260E070E040E050E0A3
:1004300020E030E0720194E0C92ED12C0E944000EF
:100440001C8281E08D8389E260E070E040E050E052
:10045000930102E010E0EE24FF24CC24DD240E946E
:1004600040000894A11CB11C82E0A816B10408F455
:10047000AECF80E197E2F4013197F1F70197D9F718
:0A048000AA24BB24F1CFF894FFCFAB
:00000001FF
