:100000000C9434000C943E000C943E000C943E0082
:100010000C943E000C943E000C943E000C943E0068
:100020000C943E000C943E000C943E000C943E0058
:100030000C943E000C943E000C943E000C943E0048
:100040000C943E000C943E000C943E000C943E0038
:100050000C943E000C943E000C943E000C943E0028
:100060000C943E000C943E0011241FBECFEFD8E04C
:10007000DEBFCDBF0E9440000C94BD010C94000077
:10008000289829982A982B982C982D982F98409842
:1000900041984298439844984598589859985A9846
:1000A0005B985C985D985E985F98209A219A229A56
:1000B000239A249A259A279A389A399A3A9A3B9AF7
:1000C0003C9A3D9A509A519A529A539A549A559AF8
:1000D000569A579A25EF30E0409A88EE93E0F9015E
:1000E0003197F1F70197D9F7409888EE93E0F9013D
:1000F0003197F1F70197D9F7419A88EE93E0F9012A
:100100003197F1F70197D9F7419888EE93E0F9011B
:100110003197F1F70197D9F7429A88EE93E0F90108
:100120003197F1F70197D9F7429888EE93E0F901FA
:100130003197F1F70197D9F7439A88EE93E0F901E7
:100140003197F1F70197D9F7439888EE93E0F901D9
:100150003197F1F70197D9F7449A88EE93E0F901C6
:100160003197F1F70197D9F7449888EE93E0F901B8
:100170003197F1F70197D9F7459A88EE93E0F901A5
:100180003197F1F70197D9F7459888EE93E0F90197
:100190003197F1F70197D9F7289A88EE93E0F901A2
:1001A0003197F1F70197D9F7289888EE93E0F90194
:1001B0003197F1F70197D9F7299A88EE93E0F90181
:1001C0003197F1F70197D9F7299888EE93E0F90173
:1001D0003197F1F70197D9F72D9A88EE93E0F9015D
:1001E0003197F1F70197D9F72A9888EE93E0F90152
:1001F0003197F1F70197D9F72B9A88EE93E0F9013F
:100200003197F1F70197D9F72B9888EE93E0F90130
:100210003197F1F70197D9F72C9A88EE93E0F9011D
:100220003197F1F70197D9F72C9888EE93E0F9010F
:100230003197F1F70197D9F72D9A88EE93E0F901FC
:100240003197F1F70197D9F72D9888EE93E0F901EE
:100250003197F1F70197D9F72F9A88EE93E0F901DA
:100260003197F1F70197D9F72F9888EE93E0F901CC
:100270003197F1F70197D9F7589A88EE93E0F90191
:100280003197F1F70197D9F7589888EE93E0F90183
:100290003197F1F70197D9F7599A88EE93E0F90170
:1002A0003197F1F70197D9F7599888EE93E0F90162
:1002B0003197F1F70197D9F75A9A88EE93E0F9014F
:1002C0003197F1F70197D9F75A9888EE93E0F90141
:1002D0003197F1F70197D9F75B9A88EE93E0F9012E
:1002E0003197F1F70197D9F75B9888EE93E0F90120
:1002F0003197F1F70197D9F75C9A88EE93E0F9010D
:100300003197F1F70197D9F75C9888EE93E0F901FE
:100310003197F1F70197D9F75D9A88EE93E0F901EB
:100320003197F1F70197D9F75D9888EE93E0F901DD
:100330003197F1F70197D9F75E9A88EE93E0F901CA
:100340003197F1F70197D9F75E9888EE93E0F901BC
:100350003197F1F70197D9F75F9A88EE93E0F901A9
:100360003197F1F70197D9F75F9888EE93E0F9019B
:0E0370003197F1F70197D9F7AFCEF894FFCF90
:00000001FF
